{"contracts/DataDao.sol":{"DataDao":{"abi":[{"inputs":[{"internalType":"string","name":"_datasetCID","type":"string"}],"stateMutability":"nonpayable","type":"constructor"},{"inputs":[{"internalType":"int256","name":"errorCode","type":"int256"}],"name":"ActorError","type":"error"},{"inputs":[],"name":"FailToCallActor","type":"error"},{"inputs":[{"internalType":"uint64","name":"","type":"uint64"}],"name":"InvalidCodec","type":"error"},{"inputs":[],"name":"InvalidResponseLength","type":"error"},{"inputs":[{"internalType":"uint256","name":"balance","type":"uint256"},{"internalType":"uint256","name":"value","type":"uint256"}],"name":"NotEnoughBalance","type":"error"},{"inputs":[{"internalType":"address","name":"tradingProposalAddress","type":"address"}],"name":"checkIfDatasetIsListed","outputs":[{"internalType":"bool","name":"","type":"bool"}],"stateMutability":"view","type":"function"},{"inputs":[],"name":"checkIfMember","outputs":[{"internalType":"bool","name":"","type":"bool"}],"stateMutability":"view","type":"function"},{"inputs":[{"internalType":"string","name":"title","type":"string"},{"internalType":"string","name":"description","type":"string"}],"name":"createTradingProposal","outputs":[],"stateMutability":"nonpayable","type":"function"},{"inputs":[{"internalType":"address","name":"_tradingProposalList","type":"address"}],"name":"getDetailedTradingProposalInfo","outputs":[{"internalType":"address","name":"_proposer","type":"address"},{"internalType":"uint256","name":"_numberOfYesVotes","type":"uint256"},{"internalType":"uint256","name":"_numberOfNoVotes","type":"uint256"},{"internalType":"uint256","name":"_voteThreshold","type":"uint256"},{"internalType":"string","name":"_cid","type":"string"},{"internalType":"uint256","name":"_listedPrice","type":"uint256"}],"stateMutability":"view","type":"function"},{"inputs":[{"internalType":"address","name":"tradingProposalAddress","type":"address"}],"name":"getTradingProposalCID","outputs":[{"internalType":"string","name":"_cid","type":"string"}],"stateMutability":"view","type":"function"},{"inputs":[],"name":"getTradingProposalList","outputs":[{"internalType":"string[]","name":"title","type":"string[]"},{"internalType":"string[]","name":"description","type":"string[]"},{"internalType":"string[]","name":"status","type":"string[]"},{"internalType":"address[]","name":"tradingProposalContractAddress","type":"address[]"}],"stateMutability":"view","type":"function"},{"inputs":[{"internalType":"address","name":"tradingProposalAddress","type":"address"}],"name":"hasVoted","outputs":[{"internalType":"bool","name":"","type":"bool"}],"stateMutability":"view","type":"function"},{"inputs":[],"name":"joinDataDao","outputs":[],"stateMutability":"nonpayable","type":"function"},{"inputs":[{"internalType":"address","name":"tradingProposalAddress","type":"address"},{"internalType":"uint256","name":"price","type":"uint256"}],"name":"listDataset","outputs":[],"stateMutability":"nonpayable","type":"function"},{"inputs":[{"internalType":"uint256","name":"","type":"uint256"}],"name":"members","outputs":[{"internalType":"address","name":"","type":"address"}],"stateMutability":"view","type":"function"},{"inputs":[{"internalType":"uint256","name":"","type":"uint256"}],"name":"tradingProposals","outputs":[{"internalType":"contract TradingProposal","name":"","type":"address"}],"stateMutability":"view","type":"function"},{"inputs":[{"internalType":"address","name":"","type":"address"}],"name":"tradingProposalsList","outputs":[{"internalType":"uint256","name":"","type":"uint256"}],"stateMutability":"view","type":"function"},{"inputs":[{"internalType":"address","name":"tradingProposalAddress","type":"address"},{"internalType":"bool","name":"isYesVote","type":"bool"}],"name":"vote","outputs":[],"stateMutability":"nonpayable","type":"function"}],"evm":{"bytecode":{"linkReferences":{},"object":"60806040523480156200001157600080fd5b5060405162005c6638038062005c6683398181016040528101906200003791906200029d565b806002908162000048919062000539565b5060018060003373ffffffffffffffffffffffffffffffffffffffff1673ffffffffffffffffffffffffffffffffffffffff16815260200190815260200160002060006101000a81548160ff0219169083151502179055506000339080600181540180825580915050600190039060005260206000200160009091909190916101000a81548173ffffffffffffffffffffffffffffffffffffffff021916908373ffffffffffffffffffffffffffffffffffffffff1602179055505062000620565b6000604051905090565b600080fd5b600080fd5b600080fd5b600080fd5b6000601f19601f8301169050919050565b7f4e487b7100000000000000000000000000000000000000000000000000000000600052604160045260246000fd5b620001738262000128565b810181811067ffffffffffffffff8211171562000195576200019462000139565b5b80604052505050565b6000620001aa6200010a565b9050620001b8828262000168565b919050565b600067ffffffffffffffff821115620001db57620001da62000139565b5b620001e68262000128565b9050602081019050919050565b60005b8381101562000213578082015181840152602081019050620001f6565b60008484015250505050565b6000620002366200023084620001bd565b6200019e565b90508281526020810184848401111562000255576200025462000123565b5b62000262848285620001f3565b509392505050565b600082601f8301126200028257620002816200011e565b5b8151620002948482602086016200021f565b91505092915050565b600060208284031215620002b657620002b562000114565b5b600082015167ffffffffffffffff811115620002d757620002d662000119565b5b620002e5848285016200026a565b91505092915050565b600081519050919050565b7f4e487b7100000000000000000000000000000000000000000000000000000000600052602260045260246000fd5b600060028204905060018216806200034157607f821691505b602082108103620003575762000356620002f9565b5b50919050565b60008190508160005260206000209050919050565b60006020601f8301049050919050565b600082821b905092915050565b600060088302620003c17fffffffffffffffffffffffffffffffffffffffffffffffffffffffffffffffff8262000382565b620003cd868362000382565b95508019841693508086168417925050509392505050565b6000819050919050565b6000819050919050565b60006200041a620004146200040e84620003e5565b620003ef565b620003e5565b9050919050565b6000819050919050565b6200043683620003f9565b6200044e620004458262000421565b8484546200038f565b825550505050565b600090565b6200046562000456565b620004728184846200042b565b505050565b5b818110156200049a576200048e6000826200045b565b60018101905062000478565b5050565b601f821115620004e957620004b3816200035d565b620004be8462000372565b81016020851015620004ce578190505b620004e6620004dd8562000372565b83018262000477565b50505b505050565b600082821c905092915050565b60006200050e60001984600802620004ee565b1980831691505092915050565b6000620005298383620004fb565b9150826002028217905092915050565b6200054482620002ee565b67ffffffffffffffff81111562000560576200055f62000139565b5b6200056c825462000328565b620005798282856200049e565b600060209050601f831160018114620005b157600084156200059c578287015190505b620005a885826200051b565b86555062000618565b601f198416620005c1866200035d565b60005b82811015620005eb57848901518255600182019150602085019450602081019050620005c4565b868310156200060b578489015162000607601f891682620004fb565b8355505b6001600288020188555050505b505050505050565b61563680620006306000396000f3fe60806040523480156200001157600080fd5b5060043610620000e25760003560e01c8063580c521711620000995780639c07f4e7116200006f5780639c07f4e714620002a6578063bd041c4d14620002b2578063d495133d14620002d2578063f22d5e2814620002f457620000e2565b8063580c5217146200021a5780635daf08ca146200023a57806391e944a0146200027057620000e2565b806309eef43e14620000e75780631124ef42146200011d57806312a0feff146200013d5780632b42f88d14620001735780632e2750da14620001a9578063405cf1b714620001df575b600080fd5b620001056004803603810190620000ff9190620027d6565b62000319565b60405162000114919062002825565b60405180910390f35b6200013b6004803603810190620001359190620029a4565b6200042c565b005b6200015b6004803603810190620001559190620027d6565b620005d4565b6040516200016a919062002ab2565b60405180910390f35b6200019160048036038101906200018b919062002b11565b6200073e565b604051620001a0919062002bae565b60405180910390f35b620001c76004803603810190620001c19190620027d6565b6200077e565b604051620001d6919062002825565b60405180910390f35b620001fd6004803603810190620001f79190620027d6565b62000884565b604051620002119695949392919062002bed565b60405180910390f35b62000238600480360381019062000232919062002c61565b62000c3e565b005b62000258600480360381019062000252919062002b11565b62000db9565b60405162000267919062002ca8565b60405180910390f35b6200028e6004803603810190620002889190620027d6565b62000df9565b6040516200029d919062002cc5565b60405180910390f35b620002b062000e11565b005b620002d06004803603810190620002ca919062002d13565b62000f2b565b005b620002dc62001132565b604051620002eb919062002825565b60405180910390f35b620002fe62001186565b60405162000310949392919062002f4a565b60405180910390f35b600080600460008473ffffffffffffffffffffffffffffffffffffffff1673ffffffffffffffffffffffffffffffffffffffff16815260200190815260200160002054905060006003828154811062000377576200037662002fb3565b5b9060005260206000200160009054906101000a900473ffffffffffffffffffffffffffffffffffffffff1690508073ffffffffffffffffffffffffffffffffffffffff166309eef43e336040518263ffffffff1660e01b8152600401620003df919062002ca8565b602060405180830381865afa158015620003fd573d6000803e3d6000fd5b505050506040513d601f19601f8201168201806040525081019062000423919062002ff9565b92505050919050565b3373ffffffffffffffffffffffffffffffffffffffff16600080815481106200045a576200045962002fb3565b5b9060005260206000200160009054906101000a900473ffffffffffffffffffffffffffffffffffffffff1673ffffffffffffffffffffffffffffffffffffffff1614620004a657600080fd5b6000620004b56103c762001639565b90506000816020015167ffffffffffffffff161115620005cf5760003384846002604051620004e490620026ef565b620004f3949392919062003134565b604051809103906000f08015801562000510573d6000803e3d6000fd5b5090506003819080600181540180825580915050600190039060005260206000200160009091909190916101000a81548173ffffffffffffffffffffffffffffffffffffffff021916908373ffffffffffffffffffffffffffffffffffffffff16021790555060016003805490506200058a9190620031c5565b600460008373ffffffffffffffffffffffffffffffffffffffff1673ffffffffffffffffffffffffffffffffffffffff16815260200190815260200160002081905550505b505050565b606060011515600160003373ffffffffffffffffffffffffffffffffffffffff1673ffffffffffffffffffffffffffffffffffffffff16815260200190815260200160002060009054906101000a900460ff161515146200063457600080fd5b6000600460008473ffffffffffffffffffffffffffffffffffffffff1673ffffffffffffffffffffffffffffffffffffffff16815260200190815260200160002054905060006003828154811062000691576200069062002fb3565b5b9060005260206000200160009054906101000a900473ffffffffffffffffffffffffffffffffffffffff1690508073ffffffffffffffffffffffffffffffffffffffff166372d641706040518163ffffffff1660e01b8152600401600060405180830381865afa1580156200070a573d6000803e3d6000fd5b505050506040513d6000823e3d601f19601f820116820180604052508101906200073591906200327e565b92505050919050565b600381815481106200074f57600080fd5b906000526020600020016000915054906101000a900473ffffffffffffffffffffffffffffffffffffffff1681565b600080600460008473ffffffffffffffffffffffffffffffffffffffff1673ffffffffffffffffffffffffffffffffffffffff168152602001908152602001600020549050600060038281548110620007dc57620007db62002fb3565b5b9060005260206000200160009054906101000a900473ffffffffffffffffffffffffffffffffffffffff1690508073ffffffffffffffffffffffffffffffffffffffff1663d910b05a6040518163ffffffff1660e01b8152600401602060405180830381865afa15801562000855573d6000803e3d6000fd5b505050506040513d601f19601f820116820180604052508101906200087b919062002ff9565b92505050919050565b6000806000806060600060011515600160003373ffffffffffffffffffffffffffffffffffffffff1673ffffffffffffffffffffffffffffffffffffffff16815260200190815260200160002060009054906101000a900460ff16151514620008ec57600080fd5b6000600460008973ffffffffffffffffffffffffffffffffffffffff1673ffffffffffffffffffffffffffffffffffffffff16815260200190815260200160002054905060006003828154811062000949576200094862002fb3565b5b9060005260206000200160009054906101000a900473ffffffffffffffffffffffffffffffffffffffff1690508073ffffffffffffffffffffffffffffffffffffffff1663a8e4fb906040518163ffffffff1660e01b8152600401602060405180830381865afa158015620009c2573d6000803e3d6000fd5b505050506040513d601f19601f82011682018060405250810190620009e89190620032e6565b8173ffffffffffffffffffffffffffffffffffffffff16635369cce56040518163ffffffff1660e01b8152600401602060405180830381865afa15801562000a34573d6000803e3d6000fd5b505050506040513d601f19601f8201168201806040525081019062000a5a91906200332f565b8273ffffffffffffffffffffffffffffffffffffffff166344b88cfa6040518163ffffffff1660e01b8152600401602060405180830381865afa15801562000aa6573d6000803e3d6000fd5b505050506040513d601f19601f8201168201806040525081019062000acc91906200332f565b8373ffffffffffffffffffffffffffffffffffffffff16634fe437d56040518163ffffffff1660e01b8152600401602060405180830381865afa15801562000b18573d6000803e3d6000fd5b505050506040513d601f19601f8201168201806040525081019062000b3e91906200332f565b8473ffffffffffffffffffffffffffffffffffffffff166372d641706040518163ffffffff1660e01b8152600401600060405180830381865afa15801562000b8a573d6000803e3d6000fd5b505050506040513d6000823e3d601f19601f8201168201806040525081019062000bb591906200327e565b8573ffffffffffffffffffffffffffffffffffffffff166357ed4b2f6040518163ffffffff1660e01b8152600401602060405180830381865afa15801562000c01573d6000803e3d6000fd5b505050506040513d601f19601f8201168201806040525081019062000c2791906200332f565b975097509750975097509750505091939550919395565b3373ffffffffffffffffffffffffffffffffffffffff166000808154811062000c6c5762000c6b62002fb3565b5b9060005260206000200160009054906101000a900473ffffffffffffffffffffffffffffffffffffffff1673ffffffffffffffffffffffffffffffffffffffff161462000cb857600080fd5b6000600460008473ffffffffffffffffffffffffffffffffffffffff1673ffffffffffffffffffffffffffffffffffffffff16815260200190815260200160002054905060006003828154811062000d155762000d1462002fb3565b5b9060005260206000200160009054906101000a900473ffffffffffffffffffffffffffffffffffffffff1690508073ffffffffffffffffffffffffffffffffffffffff1663580c521733856040518363ffffffff1660e01b815260040162000d7f92919062003361565b600060405180830381600087803b15801562000d9a57600080fd5b505af115801562000daf573d6000803e3d6000fd5b5050505050505050565b6000818154811062000dca57600080fd5b906000526020600020016000915054906101000a900473ffffffffffffffffffffffffffffffffffffffff1681565b60046020528060005260406000206000915090505481565b60011515600160003373ffffffffffffffffffffffffffffffffffffffff1673ffffffffffffffffffffffffffffffffffffffff16815260200190815260200160002060009054906101000a900460ff1615150362000e6f57600080fd5b6000339080600181540180825580915050600190039060005260206000200160009091909190916101000a81548173ffffffffffffffffffffffffffffffffffffffff021916908373ffffffffffffffffffffffffffffffffffffffff16021790555060018060003373ffffffffffffffffffffffffffffffffffffffff1673ffffffffffffffffffffffffffffffffffffffff16815260200190815260200160002060006101000a81548160ff021916908315150217905550565b60011515600160003373ffffffffffffffffffffffffffffffffffffffff1673ffffffffffffffffffffffffffffffffffffffff16815260200190815260200160002060009054906101000a900460ff1615151462000f8957600080fd5b3373ffffffffffffffffffffffffffffffffffffffff166000808154811062000fb75762000fb662002fb3565b5b9060005260206000200160009054906101000a900473ffffffffffffffffffffffffffffffffffffffff1673ffffffffffffffffffffffffffffffffffffffff16036200100357600080fd5b6000620010126103c762001639565b90506000816020015167ffffffffffffffff16116200103057600080fd5b6000600460008573ffffffffffffffffffffffffffffffffffffffff1673ffffffffffffffffffffffffffffffffffffffff1681526020019081526020016000205490506000600382815481106200108d576200108c62002fb3565b5b9060005260206000200160009054906101000a900473ffffffffffffffffffffffffffffffffffffffff1690508073ffffffffffffffffffffffffffffffffffffffff1663bd041c4d33866040518363ffffffff1660e01b8152600401620010f79291906200338e565b600060405180830381600087803b1580156200111257600080fd5b505af115801562001127573d6000803e3d6000fd5b505050505050505050565b6000600160003373ffffffffffffffffffffffffffffffffffffffff1673ffffffffffffffffffffffffffffffffffffffff16815260200190815260200160002060009054906101000a900460ff16905090565b60608060608060038054905067ffffffffffffffff811115620011ae57620011ad6200285d565b5b604051908082528060200260200182016040528015620011e357816020015b6060815260200190600190039081620011cd5790505b50935060038054905067ffffffffffffffff8111156200120857620012076200285d565b5b6040519080825280602002602001820160405280156200123d57816020015b6060815260200190600190039081620012275790505b50925060038054905067ffffffffffffffff8111156200126257620012616200285d565b5b6040519080825280602002602001820160405280156200129757816020015b6060815260200190600190039081620012815790505b50915060038054905067ffffffffffffffff811115620012bc57620012bb6200285d565b5b604051908082528060200260200182016040528015620012eb5781602001602082028036833780820191505090505b50905060005b60038054905081101562001632576003818154811062001316576200131562002fb3565b5b9060005260206000200160009054906101000a900473ffffffffffffffffffffffffffffffffffffffff1673ffffffffffffffffffffffffffffffffffffffff16634a79d50c6040518163ffffffff1660e01b8152600401600060405180830381865afa1580156200138c573d6000803e3d6000fd5b505050506040513d6000823e3d601f19601f82011682018060405250810190620013b791906200327e565b858281518110620013cd57620013cc62002fb3565b5b602002602001018190525060038181548110620013ef57620013ee62002fb3565b5b9060005260206000200160009054906101000a900473ffffffffffffffffffffffffffffffffffffffff1673ffffffffffffffffffffffffffffffffffffffff16637284e4166040518163ffffffff1660e01b8152600401600060405180830381865afa15801562001465573d6000803e3d6000fd5b505050506040513d6000823e3d601f19601f820116820180604052508101906200149091906200327e565b848281518110620014a657620014a562002fb3565b5b602002602001018190525060038181548110620014c857620014c762002fb3565b5b9060005260206000200160009054906101000a900473ffffffffffffffffffffffffffffffffffffffff1673ffffffffffffffffffffffffffffffffffffffff16634e69d5606040518163ffffffff1660e01b8152600401600060405180830381865afa1580156200153e573d6000803e3d6000fd5b505050506040513d6000823e3d601f19601f820116820180604052508101906200156991906200327e565b8382815181106200157f576200157e62002fb3565b5b602002602001018190525060038181548110620015a157620015a062002fb3565b5b9060005260206000200160009054906101000a900473ffffffffffffffffffffffffffffffffffffffff16828281518110620015e257620015e162002fb3565b5b602002602001019073ffffffffffffffffffffffffffffffffffffffff16908173ffffffffffffffffffffffffffffffffffffffff168152505080806200162990620033bb565b915050620012f1565b5090919293565b62001643620026fd565b60006200165a8367ffffffffffffffff166200168c565b90506000620016766005634505760a60518560006001620016c6565b9050620016838162001829565b92505050919050565b606060006200169c60406200193d565b9050620016b383826200196890919063ffffffff16565b620016be816200197a565b915050919050565b6060600047905083811015620017175780846040517f8f0f42060000000000000000000000000000000000000000000000000000000081526004016200170e92919062003408565b60405180910390fd5b60008073fe0000000000000000000000000000000000000573ffffffffffffffffffffffffffffffffffffffff168987876200175557600062001758565b60015b8b8b8f6040516020016200177296959493929190620034f0565b604051602081830303815290604052604051620017909190620035a6565b600060405180830381855af49150503d8060008114620017cd576040519150601f19603f3d011682016040523d82523d6000602084013e620017d2565b606091505b5091509150816200180f576040517f8a7db5bf00000000000000000000000000000000000000000000000000000000815260040160405180910390fd5b6200181a81620019d6565b93505050509695505050505050565b62001833620026fd565b6000806200184b828562001b6b90919063ffffffff16565b80935081925050506000811115620018ba5762001872828562001bf190919063ffffffff16565b84600001819450829052505062001893828562001ded90919063ffffffff16565b846020018194508267ffffffffffffffff1667ffffffffffffffff16815250505062001936565b600067ffffffffffffffff811115620018d857620018d76200285d565b5b6040519080825280601f01601f1916602001820160405280156200190b5781602001600182028036833780820191505090505b5083600001819052506000836020019067ffffffffffffffff16908167ffffffffffffffff16815250505b5050919050565b6200194762002721565b6200195781600001518362001e73565b506000816020018181525050919050565b620019768260008362001ef8565b5050565b60606000826020015114620019c6576040517f08c379a0000000000000000000000000000000000000000000000000000000008152600401620019bd906200360f565b60405180910390fd5b8160000151600001519050919050565b6060600080600084806020019051810190620019f3919062003751565b925092509250600067ffffffffffffffff168267ffffffffffffffff160362001a5857600081511462001a52576040517f0e74990700000000000000000000000000000000000000000000000000000000815260040160405180910390fd5b62001b18565b605167ffffffffffffffff168267ffffffffffffffff16148062001a905750607167ffffffffffffffff168267ffffffffffffffff16145b1562001ad857600081510362001ad2576040517f0e74990700000000000000000000000000000000000000000000000000000000815260040160405180910390fd5b62001b17565b816040517ff1f6bced00000000000000000000000000000000000000000000000000000000815260040162001b0e9190620037cc565b60405180910390fd5b5b6000831462001b6057826040517fd4bb667100000000000000000000000000000000000000000000000000000000815260040162001b579190620037fa565b60405180910390fd5b809350505050919050565b60008060008062001b7d8686620020bb565b8167ffffffffffffffff169150809750819350829450505050600460ff168260ff161462001be2576040517f08c379a000000000000000000000000000000000000000000000000000000000815260040162001bd99062003867565b60405180910390fd5b80859350935050509250929050565b6060600080600062001c048686620020bb565b8167ffffffffffffffff169150809750819350829450505050600660ff168260ff16148062001c395750600260ff168260ff16145b62001c7b576040517f08c379a000000000000000000000000000000000000000000000000000000000815260040162001c7290620038ff565b60405180910390fd5b600660ff168260ff160362001cca5762001c968686620020bb565b8167ffffffffffffffff169150809750819350829450505050600260ff168260ff161462001cc95762001cc862003921565b5b5b6000818662001cda919062003950565b905060008267ffffffffffffffff81111562001cfb5762001cfa6200285d565b5b6040519080825280601f01601f19166020018201604052801562001d2e5781602001600182028036833780820191505090505b5090506000808890505b8381101562001dcd5789818151811062001d575762001d5662002fb3565b5b602001015160f81c60f81b83838151811062001d785762001d7762002fb3565b5b60200101907effffffffffffffffffffffffffffffffffffffffffffffffffffffffffffff1916908160001a905350818062001db490620033bb565b925050808062001dc490620033bb565b91505062001d38565b5081848962001ddd919062003950565b9650965050505050509250929050565b60008060008062001dff8686620020bb565b8167ffffffffffffffff169150809750819350829450505050600060ff168260ff161462001e64576040517f08c379a000000000000000000000000000000000000000000000000000000000815260040162001e5b9062003a01565b60405180910390fd5b80859350935050509250929050565b62001e7d62002743565b600060208362001e8e919062003a52565b1462001ec15760208262001ea3919062003a52565b602062001eb19190620031c5565b8262001ebe919062003950565b91505b81836020018181525050604051808452600081528281016020018181101562001ee957600080fd5b80604052505082905092915050565b60178167ffffffffffffffff161162001f375762001f308160058460ff16901b60ff16178460000151620022d290919063ffffffff16565b50620020b6565b60ff8167ffffffffffffffff161162001f9b5762001f6d601860058460ff16901b178460000151620022d290919063ffffffff16565b5062001f948167ffffffffffffffff1660018560000151620023469092919063ffffffff16565b50620020b5565b61ffff8167ffffffffffffffff1611620020005762001fd2601960058460ff16901b178460000151620022d290919063ffffffff16565b5062001ff98167ffffffffffffffff1660028560000151620023469092919063ffffffff16565b50620020b4565b63ffffffff8167ffffffffffffffff1611620020675762002039601a60058460ff16901b178460000151620022d290919063ffffffff16565b50620020608167ffffffffffffffff1660048560000151620023469092919063ffffffff16565b50620020b3565b6200208a601b60058460ff16901b178460000151620022d290919063ffffffff16565b50620020b18167ffffffffffffffff1660088560000151620023469092919063ffffffff16565b505b5b5b5b505050565b600080600080620020cd8686620023e1565b9050600185620020de919062003950565b94506000600560e0831660ff16901c90506000601f83169050601c8160ff161062002140576040517f08c379a0000000000000000000000000000000000000000000000000000000008152600401620021379062003b00565b60405180910390fd5b60188160ff16101562002165578181888160ff169150955095509550505050620022cb565b60188160ff1603620021f55760006200217f8989620023e1565b905060018862002190919062003950565b975060188160ff161015620021dc576040517f08c379a0000000000000000000000000000000000000000000000000000000008152600401620021d39062003b72565b60405180910390fd5b8281898160ff16915096509650965050505050620022cb565b60198160ff16036200223c5760006200220f898962002464565b905060028862002220919062003950565b97508281898161ffff16915096509650965050505050620022cb565b601a8160ff160362002285576000620022568989620024d3565b905060048862002267919062003950565b97508281898163ffffffff16915096509650965050505050620022cb565b601b8160ff16146200229c576200229b62003921565b5b6000620022aa898962002542565b9050600888620022bb919062003950565b9750828189965096509650505050505b9250925092565b620022dc62002743565b600083600001515190506000600182620022f7919062003950565b90508460200151821062002320576200231f8560028362002319919062003b94565b620025b1565b5b8451602083820101858153815183111562002339578282525b5050849250505092915050565b6200235062002743565b60008460000151519050600081846200236a919062003950565b90508560200151811115620023945762002393866002836200238d919062003b94565b620025b1565b5b6000600185610100620023a8919062003d33565b620023b49190620031c5565b905086518281018783198251161781528151841115620023d2578382525b50508693505050509392505050565b6000600182620023f2919062003950565b8351101562002438576040517f08c379a00000000000000000000000000000000000000000000000000000000081526004016200242f9062003dd4565b60405180910390fd5b8282815181106200244e576200244d62002fb3565b5b602001015160f81c60f81b60f81c905092915050565b600060028262002475919062003950565b83511015620024bb576040517f08c379a0000000000000000000000000000000000000000000000000000000008152600401620024b29062003dd4565b60405180910390fd5b60008260200184015190508060f01c91505092915050565b6000600482620024e4919062003950565b835110156200252a576040517f08c379a0000000000000000000000000000000000000000000000000000000008152600401620025219062003dd4565b60405180910390fd5b60008260200184015190508060e01c91505092915050565b600060088262002553919062003950565b8351101562002599576040517f08c379a0000000000000000000000000000000000000000000000000000000008152600401620025909062003dd4565b60405180910390fd5b60008260200184015190508060c01c91505092915050565b600082600001519050620025c6838362001e73565b50620025d38382620025d9565b50505050565b620025e362002743565b620025f183838451620025f9565b905092915050565b6200260362002743565b82518211156200261257600080fd5b60008460000151519050600083826200262c919062003950565b90508560200151811115620026565762002655866002836200264f919062003b94565b620025b1565b5b6000808751805185602083010193508085111562002672578482525b60208901925050505b60208610620026c1578051825260208262002697919062003950565b9150602081620026a8919062003950565b9050602086620026b99190620031c5565b95506200267b565b60006001876020036101000a0390508019825116818451168181178552505050879450505050509392505050565b61180a8062003df783390190565b604051806040016040528060608152602001600067ffffffffffffffff1681525090565b60405180604001604052806200273662002743565b8152602001600081525090565b604051806040016040528060608152602001600081525090565b6000604051905090565b600080fd5b600080fd5b600073ffffffffffffffffffffffffffffffffffffffff82169050919050565b60006200279e8262002771565b9050919050565b620027b08162002791565b8114620027bc57600080fd5b50565b600081359050620027d081620027a5565b92915050565b600060208284031215620027ef57620027ee62002767565b5b6000620027ff84828501620027bf565b91505092915050565b60008115159050919050565b6200281f8162002808565b82525050565b60006020820190506200283c600083018462002814565b92915050565b600080fd5b600080fd5b6000601f19601f8301169050919050565b7f4e487b7100000000000000000000000000000000000000000000000000000000600052604160045260246000fd5b62002897826200284c565b810181811067ffffffffffffffff82111715620028b957620028b86200285d565b5b80604052505050565b6000620028ce6200275d565b9050620028dc82826200288c565b919050565b600067ffffffffffffffff821115620028ff57620028fe6200285d565b5b6200290a826200284c565b9050602081019050919050565b82818337600083830152505050565b60006200293d6200293784620028e1565b620028c2565b9050828152602081018484840111156200295c576200295b62002847565b5b6200296984828562002917565b509392505050565b600082601f83011262002989576200298862002842565b5b81356200299b84826020860162002926565b91505092915050565b60008060408385031215620029be57620029bd62002767565b5b600083013567ffffffffffffffff811115620029df57620029de6200276c565b5b620029ed8582860162002971565b925050602083013567ffffffffffffffff81111562002a115762002a106200276c565b5b62002a1f8582860162002971565b9150509250929050565b600081519050919050565b600082825260208201905092915050565b60005b8381101562002a6557808201518184015260208101905062002a48565b60008484015250505050565b600062002a7e8262002a29565b62002a8a818562002a34565b935062002a9c81856020860162002a45565b62002aa7816200284c565b840191505092915050565b6000602082019050818103600083015262002ace818462002a71565b905092915050565b6000819050919050565b62002aeb8162002ad6565b811462002af757600080fd5b50565b60008135905062002b0b8162002ae0565b92915050565b60006020828403121562002b2a5762002b2962002767565b5b600062002b3a8482850162002afa565b91505092915050565b6000819050919050565b600062002b6e62002b6862002b628462002771565b62002b43565b62002771565b9050919050565b600062002b828262002b4d565b9050919050565b600062002b968262002b75565b9050919050565b62002ba88162002b89565b82525050565b600060208201905062002bc5600083018462002b9d565b92915050565b62002bd68162002791565b82525050565b62002be78162002ad6565b82525050565b600060c08201905062002c04600083018962002bcb565b62002c13602083018862002bdc565b62002c22604083018762002bdc565b62002c31606083018662002bdc565b818103608083015262002c45818562002a71565b905062002c5660a083018462002bdc565b979650505050505050565b6000806040838503121562002c7b5762002c7a62002767565b5b600062002c8b85828601620027bf565b925050602062002c9e8582860162002afa565b9150509250929050565b600060208201905062002cbf600083018462002bcb565b92915050565b600060208201905062002cdc600083018462002bdc565b92915050565b62002ced8162002808565b811462002cf957600080fd5b50565b60008135905062002d0d8162002ce2565b92915050565b6000806040838503121562002d2d5762002d2c62002767565b5b600062002d3d85828601620027bf565b925050602062002d508582860162002cfc565b9150509250929050565b600081519050919050565b600082825260208201905092915050565b6000819050602082019050919050565b600082825260208201905092915050565b600062002da48262002a29565b62002db0818562002d86565b935062002dc281856020860162002a45565b62002dcd816200284c565b840191505092915050565b600062002de6838362002d97565b905092915050565b6000602082019050919050565b600062002e088262002d5a565b62002e14818562002d65565b93508360208202850162002e288562002d76565b8060005b8581101562002e6a578484038952815162002e48858262002dd8565b945062002e558362002dee565b925060208a0199505060018101905062002e2c565b50829750879550505050505092915050565b600081519050919050565b600082825260208201905092915050565b6000819050602082019050919050565b62002eb38162002791565b82525050565b600062002ec7838362002ea8565b60208301905092915050565b6000602082019050919050565b600062002eed8262002e7c565b62002ef9818562002e87565b935062002f068362002e98565b8060005b8381101562002f3d57815162002f21888262002eb9565b975062002f2e8362002ed3565b92505060018101905062002f0a565b5085935050505092915050565b6000608082019050818103600083015262002f66818762002dfb565b9050818103602083015262002f7c818662002dfb565b9050818103604083015262002f92818562002dfb565b9050818103606083015262002fa8818462002ee0565b905095945050505050565b7f4e487b7100000000000000000000000000000000000000000000000000000000600052603260045260246000fd5b60008151905062002ff38162002ce2565b92915050565b60006020828403121562003012576200301162002767565b5b6000620030228482850162002fe2565b91505092915050565b7f4e487b7100000000000000000000000000000000000000000000000000000000600052602260045260246000fd5b600060028204905060018216806200307357607f821691505b6020821081036200308957620030886200302b565b5b50919050565b60008190508160005260206000209050919050565b60008154620030b3816200305a565b620030bf818662002a34565b94506001821660008114620030dd5760018114620030f4576200312b565b60ff1983168652811515602002860193506200312b565b620030ff856200308f565b60005b83811015620031235781548189015260018201915060208101905062003102565b808801955050505b50505092915050565b60006080820190506200314b600083018762002bcb565b81810360208301526200315f818662002a71565b9050818103604083015262003175818562002a71565b905081810360608301526200318b8184620030a4565b905095945050505050565b7f4e487b7100000000000000000000000000000000000000000000000000000000600052601160045260246000fd5b6000620031d28262002ad6565b9150620031df8362002ad6565b9250828203905081811115620031fa57620031f962003196565b5b92915050565b6000620032176200321184620028e1565b620028c2565b90508281526020810184848401111562003236576200323562002847565b5b6200324384828562002a45565b509392505050565b600082601f83011262003263576200326262002842565b5b81516200327584826020860162003200565b91505092915050565b60006020828403121562003297576200329662002767565b5b600082015167ffffffffffffffff811115620032b857620032b76200276c565b5b620032c6848285016200324b565b91505092915050565b600081519050620032e081620027a5565b92915050565b600060208284031215620032ff57620032fe62002767565b5b60006200330f84828501620032cf565b91505092915050565b600081519050620033298162002ae0565b92915050565b60006020828403121562003348576200334762002767565b5b6000620033588482850162003318565b91505092915050565b600060408201905062003378600083018562002bcb565b62003387602083018462002bdc565b9392505050565b6000604082019050620033a5600083018562002bcb565b620033b4602083018462002814565b9392505050565b6000620033c88262002ad6565b91507fffffffffffffffffffffffffffffffffffffffffffffffffffffffffffffffff8203620033fd57620033fc62003196565b5b600182019050919050565b60006040820190506200341f600083018562002bdc565b6200342e602083018462002bdc565b9392505050565b600067ffffffffffffffff82169050919050565b620034548162003435565b82525050565b600081519050919050565b600082825260208201905092915050565b600062003483826200345a565b6200348f818562003465565b9350620034a181856020860162002a45565b620034ac816200284c565b840191505092915050565b6000620034d8620034d2620034cc8462003435565b62002b43565b62003435565b9050919050565b620034ea81620034b7565b82525050565b600060c08201905062003507600083018962003449565b62003516602083018862002bdc565b62003525604083018762003449565b62003534606083018662003449565b818103608083015262003548818562003476565b90506200355960a0830184620034df565b979650505050505050565b600081905092915050565b60006200357c826200345a565b62003588818562003564565b93506200359a81856020860162002a45565b80840191505092915050565b6000620035b482846200356f565b915081905092915050565b7f496e76616c69642043424f520000000000000000000000000000000000000000600082015250565b6000620035f7600c8362002a34565b91506200360482620035bf565b602082019050919050565b600060208201905081810360008301526200362a81620035e8565b9050919050565b6000819050919050565b620036468162003631565b81146200365257600080fd5b50565b60008151905062003666816200363b565b92915050565b620036778162003435565b81146200368357600080fd5b50565b60008151905062003697816200366c565b92915050565b600067ffffffffffffffff821115620036bb57620036ba6200285d565b5b620036c6826200284c565b9050602081019050919050565b6000620036ea620036e4846200369d565b620028c2565b90508281526020810184848401111562003709576200370862002847565b5b6200371684828562002a45565b509392505050565b600082601f83011262003736576200373562002842565b5b815162003748848260208601620036d3565b91505092915050565b6000806000606084860312156200376d576200376c62002767565b5b60006200377d8682870162003655565b9350506020620037908682870162003686565b925050604084015167ffffffffffffffff811115620037b457620037b36200276c565b5b620037c2868287016200371e565b9150509250925092565b6000602082019050620037e3600083018462003449565b92915050565b620037f48162003631565b82525050565b6000602082019050620038116000830184620037e9565b92915050565b7f696e76616c6964206d616a20286578706563746564204d616a41727261792900600082015250565b60006200384f601f8362002a34565b91506200385c8262003817565b602082019050919050565b60006020820190508181036000830152620038828162003840565b9050919050565b7f696e76616c6964206d616a20286578706563746564204d616a546167206f722060008201527f4d616a42797465537472696e6729000000000000000000000000000000000000602082015250565b6000620038e7602e8362002a34565b9150620038f48262003889565b604082019050919050565b600060208201905081810360008301526200391a81620038d8565b9050919050565b7f4e487b7100000000000000000000000000000000000000000000000000000000600052600160045260246000fd5b60006200395d8262002ad6565b91506200396a8362002ad6565b925082820190508082111562003985576200398462003196565b5b92915050565b7f696e76616c6964206d616a20286578706563746564204d616a556e7369676e6560008201527f64496e7429000000000000000000000000000000000000000000000000000000602082015250565b6000620039e960258362002a34565b9150620039f6826200398b565b604082019050919050565b6000602082019050818103600083015262003a1c81620039da565b9050919050565b7f4e487b7100000000000000000000000000000000000000000000000000000000600052601260045260246000fd5b600062003a5f8262002ad6565b915062003a6c8362002ad6565b92508262003a7f5762003a7e62003a23565b5b828206905092915050565b7f63616e6e6f742068616e646c652068656164657273207769746820657874726160008201527f203e203237000000000000000000000000000000000000000000000000000000602082015250565b600062003ae860258362002a34565b915062003af58262003a8a565b604082019050919050565b6000602082019050818103600083015262003b1b8162003ad9565b9050919050565b7f696e76616c69642063626f720000000000000000000000000000000000000000600082015250565b600062003b5a600c8362002a34565b915062003b678262003b22565b602082019050919050565b6000602082019050818103600083015262003b8d8162003b4b565b9050919050565b600062003ba18262002ad6565b915062003bae8362002ad6565b925082820262003bbe8162002ad6565b9150828204841483151762003bd85762003bd762003196565b5b5092915050565b60008160011c9050919050565b6000808291508390505b600185111562003c3e5780860481111562003c165762003c1562003196565b5b600185161562003c265780820291505b808102905062003c368562003bdf565b945062003bf6565b94509492505050565b60008262003c59576001905062003d2c565b8162003c69576000905062003d2c565b816001811462003c82576002811462003c8d5762003cc3565b600191505062003d2c565b60ff84111562003ca25762003ca162003196565b5b8360020a91508482111562003cbc5762003cbb62003196565b5b5062003d2c565b5060208310610133831016604e8410600b841016171562003cfd5782820a90508381111562003cf75762003cf662003196565b5b62003d2c565b62003d0c848484600162003bec565b9250905081840481111562003d265762003d2562003196565b5b81810290505b9392505050565b600062003d408262002ad6565b915062003d4d8362002ad6565b925062003d7c7fffffffffffffffffffffffffffffffffffffffffffffffffffffffffffffffff848462003c47565b905092915050565b7f736c6963696e67206f7574206f662072616e6765000000000000000000000000600082015250565b600062003dbc60148362002a34565b915062003dc98262003d84565b602082019050919050565b6000602082019050818103600083015262003def8162003dad565b905091905056fe60806040523480156200001157600080fd5b506040516200180a3803806200180a8339818101604052810190620000379190620002e5565b836000806101000a81548173ffffffffffffffffffffffffffffffffffffffff021916908373ffffffffffffffffffffffffffffffffffffffff1602179055508260019081620000889190620005ff565b5081600290816200009a9190620005ff565b5060026003819055506000600460006101000a81548160ff02191690836002811115620000cc57620000cb620006e6565b5b02179055508060099081620000e29190620005ff565b505050505062000715565b6000604051905090565b600080fd5b600080fd5b600073ffffffffffffffffffffffffffffffffffffffff82169050919050565b60006200012e8262000101565b9050919050565b620001408162000121565b81146200014c57600080fd5b50565b600081519050620001608162000135565b92915050565b600080fd5b600080fd5b6000601f19601f8301169050919050565b7f4e487b7100000000000000000000000000000000000000000000000000000000600052604160045260246000fd5b620001bb8262000170565b810181811067ffffffffffffffff82111715620001dd57620001dc62000181565b5b80604052505050565b6000620001f2620000ed565b9050620002008282620001b0565b919050565b600067ffffffffffffffff82111562000223576200022262000181565b5b6200022e8262000170565b9050602081019050919050565b60005b838110156200025b5780820151818401526020810190506200023e565b60008484015250505050565b60006200027e620002788462000205565b620001e6565b9050828152602081018484840111156200029d576200029c6200016b565b5b620002aa8482856200023b565b509392505050565b600082601f830112620002ca57620002c962000166565b5b8151620002dc84826020860162000267565b91505092915050565b60008060008060808587031215620003025762000301620000f7565b5b600062000312878288016200014f565b945050602085015167ffffffffffffffff811115620003365762000335620000fc565b5b6200034487828801620002b2565b935050604085015167ffffffffffffffff811115620003685762000367620000fc565b5b6200037687828801620002b2565b925050606085015167ffffffffffffffff8111156200039a5762000399620000fc565b5b620003a887828801620002b2565b91505092959194509250565b600081519050919050565b7f4e487b7100000000000000000000000000000000000000000000000000000000600052602260045260246000fd5b600060028204905060018216806200040757607f821691505b6020821081036200041d576200041c620003bf565b5b50919050565b60008190508160005260206000209050919050565b60006020601f8301049050919050565b600082821b905092915050565b600060088302620004877fffffffffffffffffffffffffffffffffffffffffffffffffffffffffffffffff8262000448565b62000493868362000448565b95508019841693508086168417925050509392505050565b6000819050919050565b6000819050919050565b6000620004e0620004da620004d484620004ab565b620004b5565b620004ab565b9050919050565b6000819050919050565b620004fc83620004bf565b620005146200050b82620004e7565b84845462000455565b825550505050565b600090565b6200052b6200051c565b62000538818484620004f1565b505050565b5b8181101562000560576200055460008262000521565b6001810190506200053e565b5050565b601f821115620005af57620005798162000423565b620005848462000438565b8101602085101562000594578190505b620005ac620005a38562000438565b8301826200053d565b50505b505050565b600082821c905092915050565b6000620005d460001984600802620005b4565b1980831691505092915050565b6000620005ef8383620005c1565b9150826002028217905092915050565b6200060a82620003b4565b67ffffffffffffffff81111562000626576200062562000181565b5b620006328254620003ee565b6200063f82828562000564565b600060209050601f83116001811462000677576000841562000662578287015190505b6200066e8582620005e1565b865550620006de565b601f198416620006878662000423565b60005b82811015620006b1578489015182556001820191506020850194506020810190506200068a565b86831015620006d15784890151620006cd601f891682620005c1565b8355505b6001600288020188555050505b505050505050565b7f4e487b7100000000000000000000000000000000000000000000000000000000600052602160045260246000fd5b6110e580620007256000396000f3fe608060405234801561001057600080fd5b50600436106101165760003560e01c8063580c5217116100a25780639143462e116100715780639143462e146102d5578063a8e4fb9014610305578063bd041c4d14610323578063cb8d00a11461033f578063d910b05a1461036f57610116565b8063580c52171461024d5780635caf5896146102695780637284e4161461029957806372d64170146102b757610116565b80634a79d50c116100e95780634a79d50c146101b75780634e69d560146101d55780634fe437d5146101f35780635369cce51461021157806357ed4b2f1461022f57610116565b806309eef43e1461011b578063200d2ed21461014b57806344b88cfa146101695780634812c7e614610187575b600080fd5b61013560048036038101906101309190610d45565b61038d565b6040516101429190610d8d565b60405180910390f35b610153610437565b6040516101609190610e1f565b60405180910390f35b61017161044a565b60405161017e9190610e53565b60405180910390f35b6101a1600480360381019061019c9190610e9a565b610457565b6040516101ae9190610ed6565b60405180910390f35b6101bf610496565b6040516101cc9190610f81565b60405180910390f35b6101dd610524565b6040516101ea9190610f81565b60405180910390f35b6101fb610651565b6040516102089190610e53565b60405180910390f35b610219610657565b6040516102269190610e53565b60405180910390f35b610237610664565b6040516102449190610e53565b60405180910390f35b61026760048036038101906102629190610fa3565b61066a565b005b610283600480360381019061027e9190610d45565b610728565b6040516102909190610d8d565b60405180910390f35b6102a1610748565b6040516102ae9190610f81565b60405180910390f35b6102bf6107d6565b6040516102cc9190610f81565b60405180910390f35b6102ef60048036038101906102ea9190610d45565b610958565b6040516102fc9190610d8d565b60405180910390f35b61030d610978565b60405161031a9190610ed6565b60405180910390f35b61033d6004803603810190610338919061100f565b61099c565b005b61035960048036038101906103549190610e9a565b610c90565b6040516103669190610ed6565b60405180910390f35b610377610ccf565b6040516103849190610d8d565b60405180910390f35b6000600660008373ffffffffffffffffffffffffffffffffffffffff1673ffffffffffffffffffffffffffffffffffffffff16815260200190815260200160002060009054906101000a900460ff16806104305750600860008373ffffffffffffffffffffffffffffffffffffffff1673ffffffffffffffffffffffffffffffffffffffff16815260200190815260200160002060009054906101000a900460ff165b9050919050565b600460009054906101000a900460ff1681565b6000600780549050905090565b6005818154811061046757600080fd5b906000526020600020016000915054906101000a900473ffffffffffffffffffffffffffffffffffffffff1681565b600180546104a39061107e565b80601f01602080910402602001604051908101604052809291908181526020018280546104cf9061107e565b801561051c5780601f106104f15761010080835404028352916020019161051c565b820191906000526020600020905b8154815290600101906020018083116104ff57829003601f168201915b505050505081565b60606001600281111561053a57610539610da8565b5b600460009054906101000a900460ff16600281111561055c5761055b610da8565b5b0361059e576040518060400160405280600781526020017f5375636365737300000000000000000000000000000000000000000000000000815250905061064e565b6002808111156105b1576105b0610da8565b5b600460009054906101000a900460ff1660028111156105d3576105d2610da8565b5b03610615576040518060400160405280600681526020017f4661696c65640000000000000000000000000000000000000000000000000000815250905061064e565b6040518060400160405280600681526020017f566f74696e67000000000000000000000000000000000000000000000000000081525090505b90565b60035481565b6000600580549050905090565b600b5481565b6001600281111561067e5761067d610da8565b5b600460009054906101000a900460ff1660028111156106a05761069f610da8565b5b146106aa57600080fd5b60008054906101000a900473ffffffffffffffffffffffffffffffffffffffff1673ffffffffffffffffffffffffffffffffffffffff168273ffffffffffffffffffffffffffffffffffffffff161461070257600080fd5b80600b819055506001600a60006101000a81548160ff0219169083151502179055505050565b60086020528060005260406000206000915054906101000a900460ff1681565b600280546107559061107e565b80601f01602080910402602001604051908101604052809291908181526020018280546107819061107e565b80156107ce5780601f106107a3576101008083540402835291602001916107ce565b820191906000526020600020905b8154815290600101906020018083116107b157829003601f168201915b505050505081565b6060600160028111156107ec576107eb610da8565b5b600460009054906101000a900460ff16600281111561080e5761080d610da8565b5b036108a557600980546108209061107e565b80601f016020809104026020016040519081016040528092919081815260200182805461084c9061107e565b80156108995780601f1061086e57610100808354040283529160200191610899565b820191906000526020600020905b81548152906001019060200180831161087c57829003601f168201915b50505050509050610955565b6002808111156108b8576108b7610da8565b5b600460009054906101000a900460ff1660028111156108da576108d9610da8565b5b0361091c576040518060400160405280601781526020017f54726164696e672050726f706f73616c204661696c65640000000000000000008152509050610955565b6040518060400160405280601281526020017f566f74696e6720496e2050726f6772657373000000000000000000000000000081525090505b90565b60066020528060005260406000206000915054906101000a900460ff1681565b60008054906101000a900473ffffffffffffffffffffffffffffffffffffffff1681565b600060028111156109b0576109af610da8565b5b600460009054906101000a900460ff1660028111156109d2576109d1610da8565b5b146109dc57600080fd5b60011515600660008473ffffffffffffffffffffffffffffffffffffffff1673ffffffffffffffffffffffffffffffffffffffff16815260200190815260200160002060009054906101000a900460ff16151503610a3957600080fd5b60011515600860008473ffffffffffffffffffffffffffffffffffffffff1673ffffffffffffffffffffffffffffffffffffffff16815260200190815260200160002060009054906101000a900460ff16151503610a9657600080fd5b8015610b96576005829080600181540180825580915050600190039060005260206000200160009091909190916101000a81548173ffffffffffffffffffffffffffffffffffffffff021916908373ffffffffffffffffffffffffffffffffffffffff1602179055506001600660008473ffffffffffffffffffffffffffffffffffffffff1673ffffffffffffffffffffffffffffffffffffffff16815260200190815260200160002060006101000a81548160ff02191690831515021790555060035460058054905003610b91576001600460006101000a81548160ff02191690836002811115610b8b57610b8a610da8565b5b02179055505b610c8c565b6007829080600181540180825580915050600190039060005260206000200160009091909190916101000a81548173ffffffffffffffffffffffffffffffffffffffff021916908373ffffffffffffffffffffffffffffffffffffffff1602179055506001600860008473ffffffffffffffffffffffffffffffffffffffff1673ffffffffffffffffffffffffffffffffffffffff16815260200190815260200160002060006101000a81548160ff02191690831515021790555060035460078054905003610c8b576002600460006101000a81548160ff02191690836002811115610c8557610c84610da8565b5b02179055505b5b5050565b60078181548110610ca057600080fd5b906000526020600020016000915054906101000a900473ffffffffffffffffffffffffffffffffffffffff1681565b600a60009054906101000a900460ff1681565b600080fd5b600073ffffffffffffffffffffffffffffffffffffffff82169050919050565b6000610d1282610ce7565b9050919050565b610d2281610d07565b8114610d2d57600080fd5b50565b600081359050610d3f81610d19565b92915050565b600060208284031215610d5b57610d5a610ce2565b5b6000610d6984828501610d30565b91505092915050565b60008115159050919050565b610d8781610d72565b82525050565b6000602082019050610da26000830184610d7e565b92915050565b7f4e487b7100000000000000000000000000000000000000000000000000000000600052602160045260246000fd5b60038110610de857610de7610da8565b5b50565b6000819050610df982610dd7565b919050565b6000610e0982610deb565b9050919050565b610e1981610dfe565b82525050565b6000602082019050610e346000830184610e10565b92915050565b6000819050919050565b610e4d81610e3a565b82525050565b6000602082019050610e686000830184610e44565b92915050565b610e7781610e3a565b8114610e8257600080fd5b50565b600081359050610e9481610e6e565b92915050565b600060208284031215610eb057610eaf610ce2565b5b6000610ebe84828501610e85565b91505092915050565b610ed081610d07565b82525050565b6000602082019050610eeb6000830184610ec7565b92915050565b600081519050919050565b600082825260208201905092915050565b60005b83811015610f2b578082015181840152602081019050610f10565b60008484015250505050565b6000601f19601f8301169050919050565b6000610f5382610ef1565b610f5d8185610efc565b9350610f6d818560208601610f0d565b610f7681610f37565b840191505092915050565b60006020820190508181036000830152610f9b8184610f48565b905092915050565b60008060408385031215610fba57610fb9610ce2565b5b6000610fc885828601610d30565b9250506020610fd985828601610e85565b9150509250929050565b610fec81610d72565b8114610ff757600080fd5b50565b60008135905061100981610fe3565b92915050565b6000806040838503121561102657611025610ce2565b5b600061103485828601610d30565b925050602061104585828601610ffa565b9150509250929050565b7f4e487b7100000000000000000000000000000000000000000000000000000000600052602260045260246000fd5b6000600282049050600182168061109657607f821691505b6020821081036110a9576110a861104f565b5b5091905056fea264697066735822122075ee86de05da6a1aa5c0bc2bf1df4cb7a279a1a16c5311113292c644407563c264736f6c63430008110033a2646970667358221220d17eef967fd6a45c7c11b842198f58c95a43c8b406dec8da7eaa0f68bf30402c64736f6c63430008110033","opcodes":"PUSH1 0x80 PUSH1 0x40 MSTORE CALLVALUE DUP1 ISZERO PUSH3 0x11 JUMPI PUSH1 0x0 DUP1 REVERT JUMPDEST POP PUSH1 0x40 MLOAD PUSH3 0x5C66 CODESIZE SUB DUP1 PUSH3 0x5C66 DUP4 CODECOPY DUP2 DUP2 ADD PUSH1 0x40 MSTORE DUP2 ADD SWAP1 PUSH3 0x37 SWAP2 SWAP1 PUSH3 0x29D JUMP JUMPDEST DUP1 PUSH1 0x2 SWAP1 DUP2 PUSH3 0x48 SWAP2 SWAP1 PUSH3 0x539 JUMP JUMPDEST POP PUSH1 0x1 DUP1 PUSH1 0x0 CALLER PUSH20 0xFFFFFFFFFFFFFFFFFFFFFFFFFFFFFFFFFFFFFFFF AND PUSH20 0xFFFFFFFFFFFFFFFFFFFFFFFFFFFFFFFFFFFFFFFF AND DUP2 MSTORE PUSH1 0x20 ADD SWAP1 DUP2 MSTORE PUSH1 0x20 ADD PUSH1 0x0 KECCAK256 PUSH1 0x0 PUSH2 0x100 EXP DUP2 SLOAD DUP2 PUSH1 0xFF MUL NOT AND SWAP1 DUP4 ISZERO ISZERO MUL OR SWAP1 SSTORE POP PUSH1 0x0 CALLER SWAP1 DUP1 PUSH1 0x1 DUP2 SLOAD ADD DUP1 DUP3 SSTORE DUP1 SWAP2 POP POP PUSH1 0x1 SWAP1 SUB SWAP1 PUSH1 0x0 MSTORE PUSH1 0x20 PUSH1 0x0 KECCAK256 ADD PUSH1 0x0 SWAP1 SWAP2 SWAP1 SWAP2 SWAP1 SWAP2 PUSH2 0x100 EXP DUP2 SLOAD DUP2 PUSH20 0xFFFFFFFFFFFFFFFFFFFFFFFFFFFFFFFFFFFFFFFF MUL NOT AND SWAP1 DUP4 PUSH20 0xFFFFFFFFFFFFFFFFFFFFFFFFFFFFFFFFFFFFFFFF AND MUL OR SWAP1 SSTORE POP POP PUSH3 0x620 JUMP JUMPDEST PUSH1 0x0 PUSH1 0x40 MLOAD SWAP1 POP SWAP1 JUMP JUMPDEST PUSH1 0x0 DUP1 REVERT JUMPDEST PUSH1 0x0 DUP1 REVERT JUMPDEST PUSH1 0x0 DUP1 REVERT JUMPDEST PUSH1 0x0 DUP1 REVERT JUMPDEST PUSH1 0x0 PUSH1 0x1F NOT PUSH1 0x1F DUP4 ADD AND SWAP1 POP SWAP2 SWAP1 POP JUMP JUMPDEST PUSH32 0x4E487B7100000000000000000000000000000000000000000000000000000000 PUSH1 0x0 MSTORE PUSH1 0x41 PUSH1 0x4 MSTORE PUSH1 0x24 PUSH1 0x0 REVERT JUMPDEST PUSH3 0x173 DUP3 PUSH3 0x128 JUMP JUMPDEST DUP2 ADD DUP2 DUP2 LT PUSH8 0xFFFFFFFFFFFFFFFF DUP3 GT OR ISZERO PUSH3 0x195 JUMPI PUSH3 0x194 PUSH3 0x139 JUMP JUMPDEST JUMPDEST DUP1 PUSH1 0x40 MSTORE POP POP POP JUMP JUMPDEST PUSH1 0x0 PUSH3 0x1AA PUSH3 0x10A JUMP JUMPDEST SWAP1 POP PUSH3 0x1B8 DUP3 DUP3 PUSH3 0x168 JUMP JUMPDEST SWAP2 SWAP1 POP JUMP JUMPDEST PUSH1 0x0 PUSH8 0xFFFFFFFFFFFFFFFF DUP3 GT ISZERO PUSH3 0x1DB JUMPI PUSH3 0x1DA PUSH3 0x139 JUMP JUMPDEST JUMPDEST PUSH3 0x1E6 DUP3 PUSH3 0x128 JUMP JUMPDEST SWAP1 POP PUSH1 0x20 DUP2 ADD SWAP1 POP SWAP2 SWAP1 POP JUMP JUMPDEST PUSH1 0x0 JUMPDEST DUP4 DUP2 LT ISZERO PUSH3 0x213 JUMPI DUP1 DUP3 ADD MLOAD DUP2 DUP5 ADD MSTORE PUSH1 0x20 DUP2 ADD SWAP1 POP PUSH3 0x1F6 JUMP JUMPDEST PUSH1 0x0 DUP5 DUP5 ADD MSTORE POP POP POP POP JUMP JUMPDEST PUSH1 0x0 PUSH3 0x236 PUSH3 0x230 DUP5 PUSH3 0x1BD JUMP JUMPDEST PUSH3 0x19E JUMP JUMPDEST SWAP1 POP DUP3 DUP2 MSTORE PUSH1 0x20 DUP2 ADD DUP5 DUP5 DUP5 ADD GT ISZERO PUSH3 0x255 JUMPI PUSH3 0x254 PUSH3 0x123 JUMP JUMPDEST JUMPDEST PUSH3 0x262 DUP5 DUP3 DUP6 PUSH3 0x1F3 JUMP JUMPDEST POP SWAP4 SWAP3 POP POP POP JUMP JUMPDEST PUSH1 0x0 DUP3 PUSH1 0x1F DUP4 ADD SLT PUSH3 0x282 JUMPI PUSH3 0x281 PUSH3 0x11E JUMP JUMPDEST JUMPDEST DUP2 MLOAD PUSH3 0x294 DUP5 DUP3 PUSH1 0x20 DUP7 ADD PUSH3 0x21F JUMP JUMPDEST SWAP2 POP POP SWAP3 SWAP2 POP POP JUMP JUMPDEST PUSH1 0x0 PUSH1 0x20 DUP3 DUP5 SUB SLT ISZERO PUSH3 0x2B6 JUMPI PUSH3 0x2B5 PUSH3 0x114 JUMP JUMPDEST JUMPDEST PUSH1 0x0 DUP3 ADD MLOAD PUSH8 0xFFFFFFFFFFFFFFFF DUP2 GT ISZERO PUSH3 0x2D7 JUMPI PUSH3 0x2D6 PUSH3 0x119 JUMP JUMPDEST JUMPDEST PUSH3 0x2E5 DUP5 DUP3 DUP6 ADD PUSH3 0x26A JUMP JUMPDEST SWAP2 POP POP SWAP3 SWAP2 POP POP JUMP JUMPDEST PUSH1 0x0 DUP2 MLOAD SWAP1 POP SWAP2 SWAP1 POP JUMP JUMPDEST PUSH32 0x4E487B7100000000000000000000000000000000000000000000000000000000 PUSH1 0x0 MSTORE PUSH1 0x22 PUSH1 0x4 MSTORE PUSH1 0x24 PUSH1 0x0 REVERT JUMPDEST PUSH1 0x0 PUSH1 0x2 DUP3 DIV SWAP1 POP PUSH1 0x1 DUP3 AND DUP1 PUSH3 0x341 JUMPI PUSH1 0x7F DUP3 AND SWAP2 POP JUMPDEST PUSH1 0x20 DUP3 LT DUP2 SUB PUSH3 0x357 JUMPI PUSH3 0x356 PUSH3 0x2F9 JUMP JUMPDEST JUMPDEST POP SWAP2 SWAP1 POP JUMP JUMPDEST PUSH1 0x0 DUP2 SWAP1 POP DUP2 PUSH1 0x0 MSTORE PUSH1 0x20 PUSH1 0x0 KECCAK256 SWAP1 POP SWAP2 SWAP1 POP JUMP JUMPDEST PUSH1 0x0 PUSH1 0x20 PUSH1 0x1F DUP4 ADD DIV SWAP1 POP SWAP2 SWAP1 POP JUMP JUMPDEST PUSH1 0x0 DUP3 DUP3 SHL SWAP1 POP SWAP3 SWAP2 POP POP JUMP JUMPDEST PUSH1 0x0 PUSH1 0x8 DUP4 MUL PUSH3 0x3C1 PUSH32 0xFFFFFFFFFFFFFFFFFFFFFFFFFFFFFFFFFFFFFFFFFFFFFFFFFFFFFFFFFFFFFFFF DUP3 PUSH3 0x382 JUMP JUMPDEST PUSH3 0x3CD DUP7 DUP4 PUSH3 0x382 JUMP JUMPDEST SWAP6 POP DUP1 NOT DUP5 AND SWAP4 POP DUP1 DUP7 AND DUP5 OR SWAP3 POP POP POP SWAP4 SWAP3 POP POP POP JUMP JUMPDEST PUSH1 0x0 DUP2 SWAP1 POP SWAP2 SWAP1 POP JUMP JUMPDEST PUSH1 0x0 DUP2 SWAP1 POP SWAP2 SWAP1 POP JUMP JUMPDEST PUSH1 0x0 PUSH3 0x41A PUSH3 0x414 PUSH3 0x40E DUP5 PUSH3 0x3E5 JUMP JUMPDEST PUSH3 0x3EF JUMP JUMPDEST PUSH3 0x3E5 JUMP JUMPDEST SWAP1 POP SWAP2 SWAP1 POP JUMP JUMPDEST PUSH1 0x0 DUP2 SWAP1 POP SWAP2 SWAP1 POP JUMP JUMPDEST PUSH3 0x436 DUP4 PUSH3 0x3F9 JUMP JUMPDEST PUSH3 0x44E PUSH3 0x445 DUP3 PUSH3 0x421 JUMP JUMPDEST DUP5 DUP5 SLOAD PUSH3 0x38F JUMP JUMPDEST DUP3 SSTORE POP POP POP POP JUMP JUMPDEST PUSH1 0x0 SWAP1 JUMP JUMPDEST PUSH3 0x465 PUSH3 0x456 JUMP JUMPDEST PUSH3 0x472 DUP2 DUP5 DUP5 PUSH3 0x42B JUMP JUMPDEST POP POP POP JUMP JUMPDEST JUMPDEST DUP2 DUP2 LT ISZERO PUSH3 0x49A JUMPI PUSH3 0x48E PUSH1 0x0 DUP3 PUSH3 0x45B JUMP JUMPDEST PUSH1 0x1 DUP2 ADD SWAP1 POP PUSH3 0x478 JUMP JUMPDEST POP POP JUMP JUMPDEST PUSH1 0x1F DUP3 GT ISZERO PUSH3 0x4E9 JUMPI PUSH3 0x4B3 DUP2 PUSH3 0x35D JUMP JUMPDEST PUSH3 0x4BE DUP5 PUSH3 0x372 JUMP JUMPDEST DUP2 ADD PUSH1 0x20 DUP6 LT ISZERO PUSH3 0x4CE JUMPI DUP2 SWAP1 POP JUMPDEST PUSH3 0x4E6 PUSH3 0x4DD DUP6 PUSH3 0x372 JUMP JUMPDEST DUP4 ADD DUP3 PUSH3 0x477 JUMP JUMPDEST POP POP JUMPDEST POP POP POP JUMP JUMPDEST PUSH1 0x0 DUP3 DUP3 SHR SWAP1 POP SWAP3 SWAP2 POP POP JUMP JUMPDEST PUSH1 0x0 PUSH3 0x50E PUSH1 0x0 NOT DUP5 PUSH1 0x8 MUL PUSH3 0x4EE JUMP JUMPDEST NOT DUP1 DUP4 AND SWAP2 POP POP SWAP3 SWAP2 POP POP JUMP JUMPDEST PUSH1 0x0 PUSH3 0x529 DUP4 DUP4 PUSH3 0x4FB JUMP JUMPDEST SWAP2 POP DUP3 PUSH1 0x2 MUL DUP3 OR SWAP1 POP SWAP3 SWAP2 POP POP JUMP JUMPDEST PUSH3 0x544 DUP3 PUSH3 0x2EE JUMP JUMPDEST PUSH8 0xFFFFFFFFFFFFFFFF DUP2 GT ISZERO PUSH3 0x560 JUMPI PUSH3 0x55F PUSH3 0x139 JUMP JUMPDEST JUMPDEST PUSH3 0x56C DUP3 SLOAD PUSH3 0x328 JUMP JUMPDEST PUSH3 0x579 DUP3 DUP3 DUP6 PUSH3 0x49E JUMP JUMPDEST PUSH1 0x0 PUSH1 0x20 SWAP1 POP PUSH1 0x1F DUP4 GT PUSH1 0x1 DUP2 EQ PUSH3 0x5B1 JUMPI PUSH1 0x0 DUP5 ISZERO PUSH3 0x59C JUMPI DUP3 DUP8 ADD MLOAD SWAP1 POP JUMPDEST PUSH3 0x5A8 DUP6 DUP3 PUSH3 0x51B JUMP JUMPDEST DUP7 SSTORE POP PUSH3 0x618 JUMP JUMPDEST PUSH1 0x1F NOT DUP5 AND PUSH3 0x5C1 DUP7 PUSH3 0x35D JUMP JUMPDEST PUSH1 0x0 JUMPDEST DUP3 DUP2 LT ISZERO PUSH3 0x5EB JUMPI DUP5 DUP10 ADD MLOAD DUP3 SSTORE PUSH1 0x1 DUP3 ADD SWAP2 POP PUSH1 0x20 DUP6 ADD SWAP5 POP PUSH1 0x20 DUP2 ADD SWAP1 POP PUSH3 0x5C4 JUMP JUMPDEST DUP7 DUP4 LT ISZERO PUSH3 0x60B JUMPI DUP5 DUP10 ADD MLOAD PUSH3 0x607 PUSH1 0x1F DUP10 AND DUP3 PUSH3 0x4FB JUMP JUMPDEST DUP4 SSTORE POP JUMPDEST PUSH1 0x1 PUSH1 0x2 DUP9 MUL ADD DUP9 SSTORE POP POP POP JUMPDEST POP POP POP POP POP POP JUMP JUMPDEST PUSH2 0x5636 DUP1 PUSH3 0x630 PUSH1 0x0 CODECOPY PUSH1 0x0 RETURN INVALID PUSH1 0x80 PUSH1 0x40 MSTORE CALLVALUE DUP1 ISZERO PUSH3 0x11 JUMPI PUSH1 0x0 DUP1 REVERT JUMPDEST POP PUSH1 0x4 CALLDATASIZE LT PUSH3 0xE2 JUMPI PUSH1 0x0 CALLDATALOAD PUSH1 0xE0 SHR DUP1 PUSH4 0x580C5217 GT PUSH3 0x99 JUMPI DUP1 PUSH4 0x9C07F4E7 GT PUSH3 0x6F JUMPI DUP1 PUSH4 0x9C07F4E7 EQ PUSH3 0x2A6 JUMPI DUP1 PUSH4 0xBD041C4D EQ PUSH3 0x2B2 JUMPI DUP1 PUSH4 0xD495133D EQ PUSH3 0x2D2 JUMPI DUP1 PUSH4 0xF22D5E28 EQ PUSH3 0x2F4 JUMPI PUSH3 0xE2 JUMP JUMPDEST DUP1 PUSH4 0x580C5217 EQ PUSH3 0x21A JUMPI DUP1 PUSH4 0x5DAF08CA EQ PUSH3 0x23A JUMPI DUP1 PUSH4 0x91E944A0 EQ PUSH3 0x270 JUMPI PUSH3 0xE2 JUMP JUMPDEST DUP1 PUSH4 0x9EEF43E EQ PUSH3 0xE7 JUMPI DUP1 PUSH4 0x1124EF42 EQ PUSH3 0x11D JUMPI DUP1 PUSH4 0x12A0FEFF EQ PUSH3 0x13D JUMPI DUP1 PUSH4 0x2B42F88D EQ PUSH3 0x173 JUMPI DUP1 PUSH4 0x2E2750DA EQ PUSH3 0x1A9 JUMPI DUP1 PUSH4 0x405CF1B7 EQ PUSH3 0x1DF JUMPI JUMPDEST PUSH1 0x0 DUP1 REVERT JUMPDEST PUSH3 0x105 PUSH1 0x4 DUP1 CALLDATASIZE SUB DUP2 ADD SWAP1 PUSH3 0xFF SWAP2 SWAP1 PUSH3 0x27D6 JUMP JUMPDEST PUSH3 0x319 JUMP JUMPDEST PUSH1 0x40 MLOAD PUSH3 0x114 SWAP2 SWAP1 PUSH3 0x2825 JUMP JUMPDEST PUSH1 0x40 MLOAD DUP1 SWAP2 SUB SWAP1 RETURN JUMPDEST PUSH3 0x13B PUSH1 0x4 DUP1 CALLDATASIZE SUB DUP2 ADD SWAP1 PUSH3 0x135 SWAP2 SWAP1 PUSH3 0x29A4 JUMP JUMPDEST PUSH3 0x42C JUMP JUMPDEST STOP JUMPDEST PUSH3 0x15B PUSH1 0x4 DUP1 CALLDATASIZE SUB DUP2 ADD SWAP1 PUSH3 0x155 SWAP2 SWAP1 PUSH3 0x27D6 JUMP JUMPDEST PUSH3 0x5D4 JUMP JUMPDEST PUSH1 0x40 MLOAD PUSH3 0x16A SWAP2 SWAP1 PUSH3 0x2AB2 JUMP JUMPDEST PUSH1 0x40 MLOAD DUP1 SWAP2 SUB SWAP1 RETURN JUMPDEST PUSH3 0x191 PUSH1 0x4 DUP1 CALLDATASIZE SUB DUP2 ADD SWAP1 PUSH3 0x18B SWAP2 SWAP1 PUSH3 0x2B11 JUMP JUMPDEST PUSH3 0x73E JUMP JUMPDEST PUSH1 0x40 MLOAD PUSH3 0x1A0 SWAP2 SWAP1 PUSH3 0x2BAE JUMP JUMPDEST PUSH1 0x40 MLOAD DUP1 SWAP2 SUB SWAP1 RETURN JUMPDEST PUSH3 0x1C7 PUSH1 0x4 DUP1 CALLDATASIZE SUB DUP2 ADD SWAP1 PUSH3 0x1C1 SWAP2 SWAP1 PUSH3 0x27D6 JUMP JUMPDEST PUSH3 0x77E JUMP JUMPDEST PUSH1 0x40 MLOAD PUSH3 0x1D6 SWAP2 SWAP1 PUSH3 0x2825 JUMP JUMPDEST PUSH1 0x40 MLOAD DUP1 SWAP2 SUB SWAP1 RETURN JUMPDEST PUSH3 0x1FD PUSH1 0x4 DUP1 CALLDATASIZE SUB DUP2 ADD SWAP1 PUSH3 0x1F7 SWAP2 SWAP1 PUSH3 0x27D6 JUMP JUMPDEST PUSH3 0x884 JUMP JUMPDEST PUSH1 0x40 MLOAD PUSH3 0x211 SWAP7 SWAP6 SWAP5 SWAP4 SWAP3 SWAP2 SWAP1 PUSH3 0x2BED JUMP JUMPDEST PUSH1 0x40 MLOAD DUP1 SWAP2 SUB SWAP1 RETURN JUMPDEST PUSH3 0x238 PUSH1 0x4 DUP1 CALLDATASIZE SUB DUP2 ADD SWAP1 PUSH3 0x232 SWAP2 SWAP1 PUSH3 0x2C61 JUMP JUMPDEST PUSH3 0xC3E JUMP JUMPDEST STOP JUMPDEST PUSH3 0x258 PUSH1 0x4 DUP1 CALLDATASIZE SUB DUP2 ADD SWAP1 PUSH3 0x252 SWAP2 SWAP1 PUSH3 0x2B11 JUMP JUMPDEST PUSH3 0xDB9 JUMP JUMPDEST PUSH1 0x40 MLOAD PUSH3 0x267 SWAP2 SWAP1 PUSH3 0x2CA8 JUMP JUMPDEST PUSH1 0x40 MLOAD DUP1 SWAP2 SUB SWAP1 RETURN JUMPDEST PUSH3 0x28E PUSH1 0x4 DUP1 CALLDATASIZE SUB DUP2 ADD SWAP1 PUSH3 0x288 SWAP2 SWAP1 PUSH3 0x27D6 JUMP JUMPDEST PUSH3 0xDF9 JUMP JUMPDEST PUSH1 0x40 MLOAD PUSH3 0x29D SWAP2 SWAP1 PUSH3 0x2CC5 JUMP JUMPDEST PUSH1 0x40 MLOAD DUP1 SWAP2 SUB SWAP1 RETURN JUMPDEST PUSH3 0x2B0 PUSH3 0xE11 JUMP JUMPDEST STOP JUMPDEST PUSH3 0x2D0 PUSH1 0x4 DUP1 CALLDATASIZE SUB DUP2 ADD SWAP1 PUSH3 0x2CA SWAP2 SWAP1 PUSH3 0x2D13 JUMP JUMPDEST PUSH3 0xF2B JUMP JUMPDEST STOP JUMPDEST PUSH3 0x2DC PUSH3 0x1132 JUMP JUMPDEST PUSH1 0x40 MLOAD PUSH3 0x2EB SWAP2 SWAP1 PUSH3 0x2825 JUMP JUMPDEST PUSH1 0x40 MLOAD DUP1 SWAP2 SUB SWAP1 RETURN JUMPDEST PUSH3 0x2FE PUSH3 0x1186 JUMP JUMPDEST PUSH1 0x40 MLOAD PUSH3 0x310 SWAP5 SWAP4 SWAP3 SWAP2 SWAP1 PUSH3 0x2F4A JUMP JUMPDEST PUSH1 0x40 MLOAD DUP1 SWAP2 SUB SWAP1 RETURN JUMPDEST PUSH1 0x0 DUP1 PUSH1 0x4 PUSH1 0x0 DUP5 PUSH20 0xFFFFFFFFFFFFFFFFFFFFFFFFFFFFFFFFFFFFFFFF AND PUSH20 0xFFFFFFFFFFFFFFFFFFFFFFFFFFFFFFFFFFFFFFFF AND DUP2 MSTORE PUSH1 0x20 ADD SWAP1 DUP2 MSTORE PUSH1 0x20 ADD PUSH1 0x0 KECCAK256 SLOAD SWAP1 POP PUSH1 0x0 PUSH1 0x3 DUP3 DUP2 SLOAD DUP2 LT PUSH3 0x377 JUMPI PUSH3 0x376 PUSH3 0x2FB3 JUMP JUMPDEST JUMPDEST SWAP1 PUSH1 0x0 MSTORE PUSH1 0x20 PUSH1 0x0 KECCAK256 ADD PUSH1 0x0 SWAP1 SLOAD SWAP1 PUSH2 0x100 EXP SWAP1 DIV PUSH20 0xFFFFFFFFFFFFFFFFFFFFFFFFFFFFFFFFFFFFFFFF AND SWAP1 POP DUP1 PUSH20 0xFFFFFFFFFFFFFFFFFFFFFFFFFFFFFFFFFFFFFFFF AND PUSH4 0x9EEF43E CALLER PUSH1 0x40 MLOAD DUP3 PUSH4 0xFFFFFFFF AND PUSH1 0xE0 SHL DUP2 MSTORE PUSH1 0x4 ADD PUSH3 0x3DF SWAP2 SWAP1 PUSH3 0x2CA8 JUMP JUMPDEST PUSH1 0x20 PUSH1 0x40 MLOAD DUP1 DUP4 SUB DUP2 DUP7 GAS STATICCALL ISZERO DUP1 ISZERO PUSH3 0x3FD JUMPI RETURNDATASIZE PUSH1 0x0 DUP1 RETURNDATACOPY RETURNDATASIZE PUSH1 0x0 REVERT JUMPDEST POP POP POP POP PUSH1 0x40 MLOAD RETURNDATASIZE PUSH1 0x1F NOT PUSH1 0x1F DUP3 ADD AND DUP3 ADD DUP1 PUSH1 0x40 MSTORE POP DUP2 ADD SWAP1 PUSH3 0x423 SWAP2 SWAP1 PUSH3 0x2FF9 JUMP JUMPDEST SWAP3 POP POP POP SWAP2 SWAP1 POP JUMP JUMPDEST CALLER PUSH20 0xFFFFFFFFFFFFFFFFFFFFFFFFFFFFFFFFFFFFFFFF AND PUSH1 0x0 DUP1 DUP2 SLOAD DUP2 LT PUSH3 0x45A JUMPI PUSH3 0x459 PUSH3 0x2FB3 JUMP JUMPDEST JUMPDEST SWAP1 PUSH1 0x0 MSTORE PUSH1 0x20 PUSH1 0x0 KECCAK256 ADD PUSH1 0x0 SWAP1 SLOAD SWAP1 PUSH2 0x100 EXP SWAP1 DIV PUSH20 0xFFFFFFFFFFFFFFFFFFFFFFFFFFFFFFFFFFFFFFFF AND PUSH20 0xFFFFFFFFFFFFFFFFFFFFFFFFFFFFFFFFFFFFFFFF AND EQ PUSH3 0x4A6 JUMPI PUSH1 0x0 DUP1 REVERT JUMPDEST PUSH1 0x0 PUSH3 0x4B5 PUSH2 0x3C7 PUSH3 0x1639 JUMP JUMPDEST SWAP1 POP PUSH1 0x0 DUP2 PUSH1 0x20 ADD MLOAD PUSH8 0xFFFFFFFFFFFFFFFF AND GT ISZERO PUSH3 0x5CF JUMPI PUSH1 0x0 CALLER DUP5 DUP5 PUSH1 0x2 PUSH1 0x40 MLOAD PUSH3 0x4E4 SWAP1 PUSH3 0x26EF JUMP JUMPDEST PUSH3 0x4F3 SWAP5 SWAP4 SWAP3 SWAP2 SWAP1 PUSH3 0x3134 JUMP JUMPDEST PUSH1 0x40 MLOAD DUP1 SWAP2 SUB SWAP1 PUSH1 0x0 CREATE DUP1 ISZERO DUP1 ISZERO PUSH3 0x510 JUMPI RETURNDATASIZE PUSH1 0x0 DUP1 RETURNDATACOPY RETURNDATASIZE PUSH1 0x0 REVERT JUMPDEST POP SWAP1 POP PUSH1 0x3 DUP2 SWAP1 DUP1 PUSH1 0x1 DUP2 SLOAD ADD DUP1 DUP3 SSTORE DUP1 SWAP2 POP POP PUSH1 0x1 SWAP1 SUB SWAP1 PUSH1 0x0 MSTORE PUSH1 0x20 PUSH1 0x0 KECCAK256 ADD PUSH1 0x0 SWAP1 SWAP2 SWAP1 SWAP2 SWAP1 SWAP2 PUSH2 0x100 EXP DUP2 SLOAD DUP2 PUSH20 0xFFFFFFFFFFFFFFFFFFFFFFFFFFFFFFFFFFFFFFFF MUL NOT AND SWAP1 DUP4 PUSH20 0xFFFFFFFFFFFFFFFFFFFFFFFFFFFFFFFFFFFFFFFF AND MUL OR SWAP1 SSTORE POP PUSH1 0x1 PUSH1 0x3 DUP1 SLOAD SWAP1 POP PUSH3 0x58A SWAP2 SWAP1 PUSH3 0x31C5 JUMP JUMPDEST PUSH1 0x4 PUSH1 0x0 DUP4 PUSH20 0xFFFFFFFFFFFFFFFFFFFFFFFFFFFFFFFFFFFFFFFF AND PUSH20 0xFFFFFFFFFFFFFFFFFFFFFFFFFFFFFFFFFFFFFFFF AND DUP2 MSTORE PUSH1 0x20 ADD SWAP1 DUP2 MSTORE PUSH1 0x20 ADD PUSH1 0x0 KECCAK256 DUP2 SWAP1 SSTORE POP POP JUMPDEST POP POP POP JUMP JUMPDEST PUSH1 0x60 PUSH1 0x1 ISZERO ISZERO PUSH1 0x1 PUSH1 0x0 CALLER PUSH20 0xFFFFFFFFFFFFFFFFFFFFFFFFFFFFFFFFFFFFFFFF AND PUSH20 0xFFFFFFFFFFFFFFFFFFFFFFFFFFFFFFFFFFFFFFFF AND DUP2 MSTORE PUSH1 0x20 ADD SWAP1 DUP2 MSTORE PUSH1 0x20 ADD PUSH1 0x0 KECCAK256 PUSH1 0x0 SWAP1 SLOAD SWAP1 PUSH2 0x100 EXP SWAP1 DIV PUSH1 0xFF AND ISZERO ISZERO EQ PUSH3 0x634 JUMPI PUSH1 0x0 DUP1 REVERT JUMPDEST PUSH1 0x0 PUSH1 0x4 PUSH1 0x0 DUP5 PUSH20 0xFFFFFFFFFFFFFFFFFFFFFFFFFFFFFFFFFFFFFFFF AND PUSH20 0xFFFFFFFFFFFFFFFFFFFFFFFFFFFFFFFFFFFFFFFF AND DUP2 MSTORE PUSH1 0x20 ADD SWAP1 DUP2 MSTORE PUSH1 0x20 ADD PUSH1 0x0 KECCAK256 SLOAD SWAP1 POP PUSH1 0x0 PUSH1 0x3 DUP3 DUP2 SLOAD DUP2 LT PUSH3 0x691 JUMPI PUSH3 0x690 PUSH3 0x2FB3 JUMP JUMPDEST JUMPDEST SWAP1 PUSH1 0x0 MSTORE PUSH1 0x20 PUSH1 0x0 KECCAK256 ADD PUSH1 0x0 SWAP1 SLOAD SWAP1 PUSH2 0x100 EXP SWAP1 DIV PUSH20 0xFFFFFFFFFFFFFFFFFFFFFFFFFFFFFFFFFFFFFFFF AND SWAP1 POP DUP1 PUSH20 0xFFFFFFFFFFFFFFFFFFFFFFFFFFFFFFFFFFFFFFFF AND PUSH4 0x72D64170 PUSH1 0x40 MLOAD DUP2 PUSH4 0xFFFFFFFF AND PUSH1 0xE0 SHL DUP2 MSTORE PUSH1 0x4 ADD PUSH1 0x0 PUSH1 0x40 MLOAD DUP1 DUP4 SUB DUP2 DUP7 GAS STATICCALL ISZERO DUP1 ISZERO PUSH3 0x70A JUMPI RETURNDATASIZE PUSH1 0x0 DUP1 RETURNDATACOPY RETURNDATASIZE PUSH1 0x0 REVERT JUMPDEST POP POP POP POP PUSH1 0x40 MLOAD RETURNDATASIZE PUSH1 0x0 DUP3 RETURNDATACOPY RETURNDATASIZE PUSH1 0x1F NOT PUSH1 0x1F DUP3 ADD AND DUP3 ADD DUP1 PUSH1 0x40 MSTORE POP DUP2 ADD SWAP1 PUSH3 0x735 SWAP2 SWAP1 PUSH3 0x327E JUMP JUMPDEST SWAP3 POP POP POP SWAP2 SWAP1 POP JUMP JUMPDEST PUSH1 0x3 DUP2 DUP2 SLOAD DUP2 LT PUSH3 0x74F JUMPI PUSH1 0x0 DUP1 REVERT JUMPDEST SWAP1 PUSH1 0x0 MSTORE PUSH1 0x20 PUSH1 0x0 KECCAK256 ADD PUSH1 0x0 SWAP2 POP SLOAD SWAP1 PUSH2 0x100 EXP SWAP1 DIV PUSH20 0xFFFFFFFFFFFFFFFFFFFFFFFFFFFFFFFFFFFFFFFF AND DUP2 JUMP JUMPDEST PUSH1 0x0 DUP1 PUSH1 0x4 PUSH1 0x0 DUP5 PUSH20 0xFFFFFFFFFFFFFFFFFFFFFFFFFFFFFFFFFFFFFFFF AND PUSH20 0xFFFFFFFFFFFFFFFFFFFFFFFFFFFFFFFFFFFFFFFF AND DUP2 MSTORE PUSH1 0x20 ADD SWAP1 DUP2 MSTORE PUSH1 0x20 ADD PUSH1 0x0 KECCAK256 SLOAD SWAP1 POP PUSH1 0x0 PUSH1 0x3 DUP3 DUP2 SLOAD DUP2 LT PUSH3 0x7DC JUMPI PUSH3 0x7DB PUSH3 0x2FB3 JUMP JUMPDEST JUMPDEST SWAP1 PUSH1 0x0 MSTORE PUSH1 0x20 PUSH1 0x0 KECCAK256 ADD PUSH1 0x0 SWAP1 SLOAD SWAP1 PUSH2 0x100 EXP SWAP1 DIV PUSH20 0xFFFFFFFFFFFFFFFFFFFFFFFFFFFFFFFFFFFFFFFF AND SWAP1 POP DUP1 PUSH20 0xFFFFFFFFFFFFFFFFFFFFFFFFFFFFFFFFFFFFFFFF AND PUSH4 0xD910B05A PUSH1 0x40 MLOAD DUP2 PUSH4 0xFFFFFFFF AND PUSH1 0xE0 SHL DUP2 MSTORE PUSH1 0x4 ADD PUSH1 0x20 PUSH1 0x40 MLOAD DUP1 DUP4 SUB DUP2 DUP7 GAS STATICCALL ISZERO DUP1 ISZERO PUSH3 0x855 JUMPI RETURNDATASIZE PUSH1 0x0 DUP1 RETURNDATACOPY RETURNDATASIZE PUSH1 0x0 REVERT JUMPDEST POP POP POP POP PUSH1 0x40 MLOAD RETURNDATASIZE PUSH1 0x1F NOT PUSH1 0x1F DUP3 ADD AND DUP3 ADD DUP1 PUSH1 0x40 MSTORE POP DUP2 ADD SWAP1 PUSH3 0x87B SWAP2 SWAP1 PUSH3 0x2FF9 JUMP JUMPDEST SWAP3 POP POP POP SWAP2 SWAP1 POP JUMP JUMPDEST PUSH1 0x0 DUP1 PUSH1 0x0 DUP1 PUSH1 0x60 PUSH1 0x0 PUSH1 0x1 ISZERO ISZERO PUSH1 0x1 PUSH1 0x0 CALLER PUSH20 0xFFFFFFFFFFFFFFFFFFFFFFFFFFFFFFFFFFFFFFFF AND PUSH20 0xFFFFFFFFFFFFFFFFFFFFFFFFFFFFFFFFFFFFFFFF AND DUP2 MSTORE PUSH1 0x20 ADD SWAP1 DUP2 MSTORE PUSH1 0x20 ADD PUSH1 0x0 KECCAK256 PUSH1 0x0 SWAP1 SLOAD SWAP1 PUSH2 0x100 EXP SWAP1 DIV PUSH1 0xFF AND ISZERO ISZERO EQ PUSH3 0x8EC JUMPI PUSH1 0x0 DUP1 REVERT JUMPDEST PUSH1 0x0 PUSH1 0x4 PUSH1 0x0 DUP10 PUSH20 0xFFFFFFFFFFFFFFFFFFFFFFFFFFFFFFFFFFFFFFFF AND PUSH20 0xFFFFFFFFFFFFFFFFFFFFFFFFFFFFFFFFFFFFFFFF AND DUP2 MSTORE PUSH1 0x20 ADD SWAP1 DUP2 MSTORE PUSH1 0x20 ADD PUSH1 0x0 KECCAK256 SLOAD SWAP1 POP PUSH1 0x0 PUSH1 0x3 DUP3 DUP2 SLOAD DUP2 LT PUSH3 0x949 JUMPI PUSH3 0x948 PUSH3 0x2FB3 JUMP JUMPDEST JUMPDEST SWAP1 PUSH1 0x0 MSTORE PUSH1 0x20 PUSH1 0x0 KECCAK256 ADD PUSH1 0x0 SWAP1 SLOAD SWAP1 PUSH2 0x100 EXP SWAP1 DIV PUSH20 0xFFFFFFFFFFFFFFFFFFFFFFFFFFFFFFFFFFFFFFFF AND SWAP1 POP DUP1 PUSH20 0xFFFFFFFFFFFFFFFFFFFFFFFFFFFFFFFFFFFFFFFF AND PUSH4 0xA8E4FB90 PUSH1 0x40 MLOAD DUP2 PUSH4 0xFFFFFFFF AND PUSH1 0xE0 SHL DUP2 MSTORE PUSH1 0x4 ADD PUSH1 0x20 PUSH1 0x40 MLOAD DUP1 DUP4 SUB DUP2 DUP7 GAS STATICCALL ISZERO DUP1 ISZERO PUSH3 0x9C2 JUMPI RETURNDATASIZE PUSH1 0x0 DUP1 RETURNDATACOPY RETURNDATASIZE PUSH1 0x0 REVERT JUMPDEST POP POP POP POP PUSH1 0x40 MLOAD RETURNDATASIZE PUSH1 0x1F NOT PUSH1 0x1F DUP3 ADD AND DUP3 ADD DUP1 PUSH1 0x40 MSTORE POP DUP2 ADD SWAP1 PUSH3 0x9E8 SWAP2 SWAP1 PUSH3 0x32E6 JUMP JUMPDEST DUP2 PUSH20 0xFFFFFFFFFFFFFFFFFFFFFFFFFFFFFFFFFFFFFFFF AND PUSH4 0x5369CCE5 PUSH1 0x40 MLOAD DUP2 PUSH4 0xFFFFFFFF AND PUSH1 0xE0 SHL DUP2 MSTORE PUSH1 0x4 ADD PUSH1 0x20 PUSH1 0x40 MLOAD DUP1 DUP4 SUB DUP2 DUP7 GAS STATICCALL ISZERO DUP1 ISZERO PUSH3 0xA34 JUMPI RETURNDATASIZE PUSH1 0x0 DUP1 RETURNDATACOPY RETURNDATASIZE PUSH1 0x0 REVERT JUMPDEST POP POP POP POP PUSH1 0x40 MLOAD RETURNDATASIZE PUSH1 0x1F NOT PUSH1 0x1F DUP3 ADD AND DUP3 ADD DUP1 PUSH1 0x40 MSTORE POP DUP2 ADD SWAP1 PUSH3 0xA5A SWAP2 SWAP1 PUSH3 0x332F JUMP JUMPDEST DUP3 PUSH20 0xFFFFFFFFFFFFFFFFFFFFFFFFFFFFFFFFFFFFFFFF AND PUSH4 0x44B88CFA PUSH1 0x40 MLOAD DUP2 PUSH4 0xFFFFFFFF AND PUSH1 0xE0 SHL DUP2 MSTORE PUSH1 0x4 ADD PUSH1 0x20 PUSH1 0x40 MLOAD DUP1 DUP4 SUB DUP2 DUP7 GAS STATICCALL ISZERO DUP1 ISZERO PUSH3 0xAA6 JUMPI RETURNDATASIZE PUSH1 0x0 DUP1 RETURNDATACOPY RETURNDATASIZE PUSH1 0x0 REVERT JUMPDEST POP POP POP POP PUSH1 0x40 MLOAD RETURNDATASIZE PUSH1 0x1F NOT PUSH1 0x1F DUP3 ADD AND DUP3 ADD DUP1 PUSH1 0x40 MSTORE POP DUP2 ADD SWAP1 PUSH3 0xACC SWAP2 SWAP1 PUSH3 0x332F JUMP JUMPDEST DUP4 PUSH20 0xFFFFFFFFFFFFFFFFFFFFFFFFFFFFFFFFFFFFFFFF AND PUSH4 0x4FE437D5 PUSH1 0x40 MLOAD DUP2 PUSH4 0xFFFFFFFF AND PUSH1 0xE0 SHL DUP2 MSTORE PUSH1 0x4 ADD PUSH1 0x20 PUSH1 0x40 MLOAD DUP1 DUP4 SUB DUP2 DUP7 GAS STATICCALL ISZERO DUP1 ISZERO PUSH3 0xB18 JUMPI RETURNDATASIZE PUSH1 0x0 DUP1 RETURNDATACOPY RETURNDATASIZE PUSH1 0x0 REVERT JUMPDEST POP POP POP POP PUSH1 0x40 MLOAD RETURNDATASIZE PUSH1 0x1F NOT PUSH1 0x1F DUP3 ADD AND DUP3 ADD DUP1 PUSH1 0x40 MSTORE POP DUP2 ADD SWAP1 PUSH3 0xB3E SWAP2 SWAP1 PUSH3 0x332F JUMP JUMPDEST DUP5 PUSH20 0xFFFFFFFFFFFFFFFFFFFFFFFFFFFFFFFFFFFFFFFF AND PUSH4 0x72D64170 PUSH1 0x40 MLOAD DUP2 PUSH4 0xFFFFFFFF AND PUSH1 0xE0 SHL DUP2 MSTORE PUSH1 0x4 ADD PUSH1 0x0 PUSH1 0x40 MLOAD DUP1 DUP4 SUB DUP2 DUP7 GAS STATICCALL ISZERO DUP1 ISZERO PUSH3 0xB8A JUMPI RETURNDATASIZE PUSH1 0x0 DUP1 RETURNDATACOPY RETURNDATASIZE PUSH1 0x0 REVERT JUMPDEST POP POP POP POP PUSH1 0x40 MLOAD RETURNDATASIZE PUSH1 0x0 DUP3 RETURNDATACOPY RETURNDATASIZE PUSH1 0x1F NOT PUSH1 0x1F DUP3 ADD AND DUP3 ADD DUP1 PUSH1 0x40 MSTORE POP DUP2 ADD SWAP1 PUSH3 0xBB5 SWAP2 SWAP1 PUSH3 0x327E JUMP JUMPDEST DUP6 PUSH20 0xFFFFFFFFFFFFFFFFFFFFFFFFFFFFFFFFFFFFFFFF AND PUSH4 0x57ED4B2F PUSH1 0x40 MLOAD DUP2 PUSH4 0xFFFFFFFF AND PUSH1 0xE0 SHL DUP2 MSTORE PUSH1 0x4 ADD PUSH1 0x20 PUSH1 0x40 MLOAD DUP1 DUP4 SUB DUP2 DUP7 GAS STATICCALL ISZERO DUP1 ISZERO PUSH3 0xC01 JUMPI RETURNDATASIZE PUSH1 0x0 DUP1 RETURNDATACOPY RETURNDATASIZE PUSH1 0x0 REVERT JUMPDEST POP POP POP POP PUSH1 0x40 MLOAD RETURNDATASIZE PUSH1 0x1F NOT PUSH1 0x1F DUP3 ADD AND DUP3 ADD DUP1 PUSH1 0x40 MSTORE POP DUP2 ADD SWAP1 PUSH3 0xC27 SWAP2 SWAP1 PUSH3 0x332F JUMP JUMPDEST SWAP8 POP SWAP8 POP SWAP8 POP SWAP8 POP SWAP8 POP SWAP8 POP POP POP SWAP2 SWAP4 SWAP6 POP SWAP2 SWAP4 SWAP6 JUMP JUMPDEST CALLER PUSH20 0xFFFFFFFFFFFFFFFFFFFFFFFFFFFFFFFFFFFFFFFF AND PUSH1 0x0 DUP1 DUP2 SLOAD DUP2 LT PUSH3 0xC6C JUMPI PUSH3 0xC6B PUSH3 0x2FB3 JUMP JUMPDEST JUMPDEST SWAP1 PUSH1 0x0 MSTORE PUSH1 0x20 PUSH1 0x0 KECCAK256 ADD PUSH1 0x0 SWAP1 SLOAD SWAP1 PUSH2 0x100 EXP SWAP1 DIV PUSH20 0xFFFFFFFFFFFFFFFFFFFFFFFFFFFFFFFFFFFFFFFF AND PUSH20 0xFFFFFFFFFFFFFFFFFFFFFFFFFFFFFFFFFFFFFFFF AND EQ PUSH3 0xCB8 JUMPI PUSH1 0x0 DUP1 REVERT JUMPDEST PUSH1 0x0 PUSH1 0x4 PUSH1 0x0 DUP5 PUSH20 0xFFFFFFFFFFFFFFFFFFFFFFFFFFFFFFFFFFFFFFFF AND PUSH20 0xFFFFFFFFFFFFFFFFFFFFFFFFFFFFFFFFFFFFFFFF AND DUP2 MSTORE PUSH1 0x20 ADD SWAP1 DUP2 MSTORE PUSH1 0x20 ADD PUSH1 0x0 KECCAK256 SLOAD SWAP1 POP PUSH1 0x0 PUSH1 0x3 DUP3 DUP2 SLOAD DUP2 LT PUSH3 0xD15 JUMPI PUSH3 0xD14 PUSH3 0x2FB3 JUMP JUMPDEST JUMPDEST SWAP1 PUSH1 0x0 MSTORE PUSH1 0x20 PUSH1 0x0 KECCAK256 ADD PUSH1 0x0 SWAP1 SLOAD SWAP1 PUSH2 0x100 EXP SWAP1 DIV PUSH20 0xFFFFFFFFFFFFFFFFFFFFFFFFFFFFFFFFFFFFFFFF AND SWAP1 POP DUP1 PUSH20 0xFFFFFFFFFFFFFFFFFFFFFFFFFFFFFFFFFFFFFFFF AND PUSH4 0x580C5217 CALLER DUP6 PUSH1 0x40 MLOAD DUP4 PUSH4 0xFFFFFFFF AND PUSH1 0xE0 SHL DUP2 MSTORE PUSH1 0x4 ADD PUSH3 0xD7F SWAP3 SWAP2 SWAP1 PUSH3 0x3361 JUMP JUMPDEST PUSH1 0x0 PUSH1 0x40 MLOAD DUP1 DUP4 SUB DUP2 PUSH1 0x0 DUP8 DUP1 EXTCODESIZE ISZERO DUP1 ISZERO PUSH3 0xD9A JUMPI PUSH1 0x0 DUP1 REVERT JUMPDEST POP GAS CALL ISZERO DUP1 ISZERO PUSH3 0xDAF JUMPI RETURNDATASIZE PUSH1 0x0 DUP1 RETURNDATACOPY RETURNDATASIZE PUSH1 0x0 REVERT JUMPDEST POP POP POP POP POP POP POP POP JUMP JUMPDEST PUSH1 0x0 DUP2 DUP2 SLOAD DUP2 LT PUSH3 0xDCA JUMPI PUSH1 0x0 DUP1 REVERT JUMPDEST SWAP1 PUSH1 0x0 MSTORE PUSH1 0x20 PUSH1 0x0 KECCAK256 ADD PUSH1 0x0 SWAP2 POP SLOAD SWAP1 PUSH2 0x100 EXP SWAP1 DIV PUSH20 0xFFFFFFFFFFFFFFFFFFFFFFFFFFFFFFFFFFFFFFFF AND DUP2 JUMP JUMPDEST PUSH1 0x4 PUSH1 0x20 MSTORE DUP1 PUSH1 0x0 MSTORE PUSH1 0x40 PUSH1 0x0 KECCAK256 PUSH1 0x0 SWAP2 POP SWAP1 POP SLOAD DUP2 JUMP JUMPDEST PUSH1 0x1 ISZERO ISZERO PUSH1 0x1 PUSH1 0x0 CALLER PUSH20 0xFFFFFFFFFFFFFFFFFFFFFFFFFFFFFFFFFFFFFFFF AND PUSH20 0xFFFFFFFFFFFFFFFFFFFFFFFFFFFFFFFFFFFFFFFF AND DUP2 MSTORE PUSH1 0x20 ADD SWAP1 DUP2 MSTORE PUSH1 0x20 ADD PUSH1 0x0 KECCAK256 PUSH1 0x0 SWAP1 SLOAD SWAP1 PUSH2 0x100 EXP SWAP1 DIV PUSH1 0xFF AND ISZERO ISZERO SUB PUSH3 0xE6F JUMPI PUSH1 0x0 DUP1 REVERT JUMPDEST PUSH1 0x0 CALLER SWAP1 DUP1 PUSH1 0x1 DUP2 SLOAD ADD DUP1 DUP3 SSTORE DUP1 SWAP2 POP POP PUSH1 0x1 SWAP1 SUB SWAP1 PUSH1 0x0 MSTORE PUSH1 0x20 PUSH1 0x0 KECCAK256 ADD PUSH1 0x0 SWAP1 SWAP2 SWAP1 SWAP2 SWAP1 SWAP2 PUSH2 0x100 EXP DUP2 SLOAD DUP2 PUSH20 0xFFFFFFFFFFFFFFFFFFFFFFFFFFFFFFFFFFFFFFFF MUL NOT AND SWAP1 DUP4 PUSH20 0xFFFFFFFFFFFFFFFFFFFFFFFFFFFFFFFFFFFFFFFF AND MUL OR SWAP1 SSTORE POP PUSH1 0x1 DUP1 PUSH1 0x0 CALLER PUSH20 0xFFFFFFFFFFFFFFFFFFFFFFFFFFFFFFFFFFFFFFFF AND PUSH20 0xFFFFFFFFFFFFFFFFFFFFFFFFFFFFFFFFFFFFFFFF AND DUP2 MSTORE PUSH1 0x20 ADD SWAP1 DUP2 MSTORE PUSH1 0x20 ADD PUSH1 0x0 KECCAK256 PUSH1 0x0 PUSH2 0x100 EXP DUP2 SLOAD DUP2 PUSH1 0xFF MUL NOT AND SWAP1 DUP4 ISZERO ISZERO MUL OR SWAP1 SSTORE POP JUMP JUMPDEST PUSH1 0x1 ISZERO ISZERO PUSH1 0x1 PUSH1 0x0 CALLER PUSH20 0xFFFFFFFFFFFFFFFFFFFFFFFFFFFFFFFFFFFFFFFF AND PUSH20 0xFFFFFFFFFFFFFFFFFFFFFFFFFFFFFFFFFFFFFFFF AND DUP2 MSTORE PUSH1 0x20 ADD SWAP1 DUP2 MSTORE PUSH1 0x20 ADD PUSH1 0x0 KECCAK256 PUSH1 0x0 SWAP1 SLOAD SWAP1 PUSH2 0x100 EXP SWAP1 DIV PUSH1 0xFF AND ISZERO ISZERO EQ PUSH3 0xF89 JUMPI PUSH1 0x0 DUP1 REVERT JUMPDEST CALLER PUSH20 0xFFFFFFFFFFFFFFFFFFFFFFFFFFFFFFFFFFFFFFFF AND PUSH1 0x0 DUP1 DUP2 SLOAD DUP2 LT PUSH3 0xFB7 JUMPI PUSH3 0xFB6 PUSH3 0x2FB3 JUMP JUMPDEST JUMPDEST SWAP1 PUSH1 0x0 MSTORE PUSH1 0x20 PUSH1 0x0 KECCAK256 ADD PUSH1 0x0 SWAP1 SLOAD SWAP1 PUSH2 0x100 EXP SWAP1 DIV PUSH20 0xFFFFFFFFFFFFFFFFFFFFFFFFFFFFFFFFFFFFFFFF AND PUSH20 0xFFFFFFFFFFFFFFFFFFFFFFFFFFFFFFFFFFFFFFFF AND SUB PUSH3 0x1003 JUMPI PUSH1 0x0 DUP1 REVERT JUMPDEST PUSH1 0x0 PUSH3 0x1012 PUSH2 0x3C7 PUSH3 0x1639 JUMP JUMPDEST SWAP1 POP PUSH1 0x0 DUP2 PUSH1 0x20 ADD MLOAD PUSH8 0xFFFFFFFFFFFFFFFF AND GT PUSH3 0x1030 JUMPI PUSH1 0x0 DUP1 REVERT JUMPDEST PUSH1 0x0 PUSH1 0x4 PUSH1 0x0 DUP6 PUSH20 0xFFFFFFFFFFFFFFFFFFFFFFFFFFFFFFFFFFFFFFFF AND PUSH20 0xFFFFFFFFFFFFFFFFFFFFFFFFFFFFFFFFFFFFFFFF AND DUP2 MSTORE PUSH1 0x20 ADD SWAP1 DUP2 MSTORE PUSH1 0x20 ADD PUSH1 0x0 KECCAK256 SLOAD SWAP1 POP PUSH1 0x0 PUSH1 0x3 DUP3 DUP2 SLOAD DUP2 LT PUSH3 0x108D JUMPI PUSH3 0x108C PUSH3 0x2FB3 JUMP JUMPDEST JUMPDEST SWAP1 PUSH1 0x0 MSTORE PUSH1 0x20 PUSH1 0x0 KECCAK256 ADD PUSH1 0x0 SWAP1 SLOAD SWAP1 PUSH2 0x100 EXP SWAP1 DIV PUSH20 0xFFFFFFFFFFFFFFFFFFFFFFFFFFFFFFFFFFFFFFFF AND SWAP1 POP DUP1 PUSH20 0xFFFFFFFFFFFFFFFFFFFFFFFFFFFFFFFFFFFFFFFF AND PUSH4 0xBD041C4D CALLER DUP7 PUSH1 0x40 MLOAD DUP4 PUSH4 0xFFFFFFFF AND PUSH1 0xE0 SHL DUP2 MSTORE PUSH1 0x4 ADD PUSH3 0x10F7 SWAP3 SWAP2 SWAP1 PUSH3 0x338E JUMP JUMPDEST PUSH1 0x0 PUSH1 0x40 MLOAD DUP1 DUP4 SUB DUP2 PUSH1 0x0 DUP8 DUP1 EXTCODESIZE ISZERO DUP1 ISZERO PUSH3 0x1112 JUMPI PUSH1 0x0 DUP1 REVERT JUMPDEST POP GAS CALL ISZERO DUP1 ISZERO PUSH3 0x1127 JUMPI RETURNDATASIZE PUSH1 0x0 DUP1 RETURNDATACOPY RETURNDATASIZE PUSH1 0x0 REVERT JUMPDEST POP POP POP POP POP POP POP POP POP JUMP JUMPDEST PUSH1 0x0 PUSH1 0x1 PUSH1 0x0 CALLER PUSH20 0xFFFFFFFFFFFFFFFFFFFFFFFFFFFFFFFFFFFFFFFF AND PUSH20 0xFFFFFFFFFFFFFFFFFFFFFFFFFFFFFFFFFFFFFFFF AND DUP2 MSTORE PUSH1 0x20 ADD SWAP1 DUP2 MSTORE PUSH1 0x20 ADD PUSH1 0x0 KECCAK256 PUSH1 0x0 SWAP1 SLOAD SWAP1 PUSH2 0x100 EXP SWAP1 DIV PUSH1 0xFF AND SWAP1 POP SWAP1 JUMP JUMPDEST PUSH1 0x60 DUP1 PUSH1 0x60 DUP1 PUSH1 0x3 DUP1 SLOAD SWAP1 POP PUSH8 0xFFFFFFFFFFFFFFFF DUP2 GT ISZERO PUSH3 0x11AE JUMPI PUSH3 0x11AD PUSH3 0x285D JUMP JUMPDEST JUMPDEST PUSH1 0x40 MLOAD SWAP1 DUP1 DUP3 MSTORE DUP1 PUSH1 0x20 MUL PUSH1 0x20 ADD DUP3 ADD PUSH1 0x40 MSTORE DUP1 ISZERO PUSH3 0x11E3 JUMPI DUP2 PUSH1 0x20 ADD JUMPDEST PUSH1 0x60 DUP2 MSTORE PUSH1 0x20 ADD SWAP1 PUSH1 0x1 SWAP1 SUB SWAP1 DUP2 PUSH3 0x11CD JUMPI SWAP1 POP JUMPDEST POP SWAP4 POP PUSH1 0x3 DUP1 SLOAD SWAP1 POP PUSH8 0xFFFFFFFFFFFFFFFF DUP2 GT ISZERO PUSH3 0x1208 JUMPI PUSH3 0x1207 PUSH3 0x285D JUMP JUMPDEST JUMPDEST PUSH1 0x40 MLOAD SWAP1 DUP1 DUP3 MSTORE DUP1 PUSH1 0x20 MUL PUSH1 0x20 ADD DUP3 ADD PUSH1 0x40 MSTORE DUP1 ISZERO PUSH3 0x123D JUMPI DUP2 PUSH1 0x20 ADD JUMPDEST PUSH1 0x60 DUP2 MSTORE PUSH1 0x20 ADD SWAP1 PUSH1 0x1 SWAP1 SUB SWAP1 DUP2 PUSH3 0x1227 JUMPI SWAP1 POP JUMPDEST POP SWAP3 POP PUSH1 0x3 DUP1 SLOAD SWAP1 POP PUSH8 0xFFFFFFFFFFFFFFFF DUP2 GT ISZERO PUSH3 0x1262 JUMPI PUSH3 0x1261 PUSH3 0x285D JUMP JUMPDEST JUMPDEST PUSH1 0x40 MLOAD SWAP1 DUP1 DUP3 MSTORE DUP1 PUSH1 0x20 MUL PUSH1 0x20 ADD DUP3 ADD PUSH1 0x40 MSTORE DUP1 ISZERO PUSH3 0x1297 JUMPI DUP2 PUSH1 0x20 ADD JUMPDEST PUSH1 0x60 DUP2 MSTORE PUSH1 0x20 ADD SWAP1 PUSH1 0x1 SWAP1 SUB SWAP1 DUP2 PUSH3 0x1281 JUMPI SWAP1 POP JUMPDEST POP SWAP2 POP PUSH1 0x3 DUP1 SLOAD SWAP1 POP PUSH8 0xFFFFFFFFFFFFFFFF DUP2 GT ISZERO PUSH3 0x12BC JUMPI PUSH3 0x12BB PUSH3 0x285D JUMP JUMPDEST JUMPDEST PUSH1 0x40 MLOAD SWAP1 DUP1 DUP3 MSTORE DUP1 PUSH1 0x20 MUL PUSH1 0x20 ADD DUP3 ADD PUSH1 0x40 MSTORE DUP1 ISZERO PUSH3 0x12EB JUMPI DUP2 PUSH1 0x20 ADD PUSH1 0x20 DUP3 MUL DUP1 CALLDATASIZE DUP4 CALLDATACOPY DUP1 DUP3 ADD SWAP2 POP POP SWAP1 POP JUMPDEST POP SWAP1 POP PUSH1 0x0 JUMPDEST PUSH1 0x3 DUP1 SLOAD SWAP1 POP DUP2 LT ISZERO PUSH3 0x1632 JUMPI PUSH1 0x3 DUP2 DUP2 SLOAD DUP2 LT PUSH3 0x1316 JUMPI PUSH3 0x1315 PUSH3 0x2FB3 JUMP JUMPDEST JUMPDEST SWAP1 PUSH1 0x0 MSTORE PUSH1 0x20 PUSH1 0x0 KECCAK256 ADD PUSH1 0x0 SWAP1 SLOAD SWAP1 PUSH2 0x100 EXP SWAP1 DIV PUSH20 0xFFFFFFFFFFFFFFFFFFFFFFFFFFFFFFFFFFFFFFFF AND PUSH20 0xFFFFFFFFFFFFFFFFFFFFFFFFFFFFFFFFFFFFFFFF AND PUSH4 0x4A79D50C PUSH1 0x40 MLOAD DUP2 PUSH4 0xFFFFFFFF AND PUSH1 0xE0 SHL DUP2 MSTORE PUSH1 0x4 ADD PUSH1 0x0 PUSH1 0x40 MLOAD DUP1 DUP4 SUB DUP2 DUP7 GAS STATICCALL ISZERO DUP1 ISZERO PUSH3 0x138C JUMPI RETURNDATASIZE PUSH1 0x0 DUP1 RETURNDATACOPY RETURNDATASIZE PUSH1 0x0 REVERT JUMPDEST POP POP POP POP PUSH1 0x40 MLOAD RETURNDATASIZE PUSH1 0x0 DUP3 RETURNDATACOPY RETURNDATASIZE PUSH1 0x1F NOT PUSH1 0x1F DUP3 ADD AND DUP3 ADD DUP1 PUSH1 0x40 MSTORE POP DUP2 ADD SWAP1 PUSH3 0x13B7 SWAP2 SWAP1 PUSH3 0x327E JUMP JUMPDEST DUP6 DUP3 DUP2 MLOAD DUP2 LT PUSH3 0x13CD JUMPI PUSH3 0x13CC PUSH3 0x2FB3 JUMP JUMPDEST JUMPDEST PUSH1 0x20 MUL PUSH1 0x20 ADD ADD DUP2 SWAP1 MSTORE POP PUSH1 0x3 DUP2 DUP2 SLOAD DUP2 LT PUSH3 0x13EF JUMPI PUSH3 0x13EE PUSH3 0x2FB3 JUMP JUMPDEST JUMPDEST SWAP1 PUSH1 0x0 MSTORE PUSH1 0x20 PUSH1 0x0 KECCAK256 ADD PUSH1 0x0 SWAP1 SLOAD SWAP1 PUSH2 0x100 EXP SWAP1 DIV PUSH20 0xFFFFFFFFFFFFFFFFFFFFFFFFFFFFFFFFFFFFFFFF AND PUSH20 0xFFFFFFFFFFFFFFFFFFFFFFFFFFFFFFFFFFFFFFFF AND PUSH4 0x7284E416 PUSH1 0x40 MLOAD DUP2 PUSH4 0xFFFFFFFF AND PUSH1 0xE0 SHL DUP2 MSTORE PUSH1 0x4 ADD PUSH1 0x0 PUSH1 0x40 MLOAD DUP1 DUP4 SUB DUP2 DUP7 GAS STATICCALL ISZERO DUP1 ISZERO PUSH3 0x1465 JUMPI RETURNDATASIZE PUSH1 0x0 DUP1 RETURNDATACOPY RETURNDATASIZE PUSH1 0x0 REVERT JUMPDEST POP POP POP POP PUSH1 0x40 MLOAD RETURNDATASIZE PUSH1 0x0 DUP3 RETURNDATACOPY RETURNDATASIZE PUSH1 0x1F NOT PUSH1 0x1F DUP3 ADD AND DUP3 ADD DUP1 PUSH1 0x40 MSTORE POP DUP2 ADD SWAP1 PUSH3 0x1490 SWAP2 SWAP1 PUSH3 0x327E JUMP JUMPDEST DUP5 DUP3 DUP2 MLOAD DUP2 LT PUSH3 0x14A6 JUMPI PUSH3 0x14A5 PUSH3 0x2FB3 JUMP JUMPDEST JUMPDEST PUSH1 0x20 MUL PUSH1 0x20 ADD ADD DUP2 SWAP1 MSTORE POP PUSH1 0x3 DUP2 DUP2 SLOAD DUP2 LT PUSH3 0x14C8 JUMPI PUSH3 0x14C7 PUSH3 0x2FB3 JUMP JUMPDEST JUMPDEST SWAP1 PUSH1 0x0 MSTORE PUSH1 0x20 PUSH1 0x0 KECCAK256 ADD PUSH1 0x0 SWAP1 SLOAD SWAP1 PUSH2 0x100 EXP SWAP1 DIV PUSH20 0xFFFFFFFFFFFFFFFFFFFFFFFFFFFFFFFFFFFFFFFF AND PUSH20 0xFFFFFFFFFFFFFFFFFFFFFFFFFFFFFFFFFFFFFFFF AND PUSH4 0x4E69D560 PUSH1 0x40 MLOAD DUP2 PUSH4 0xFFFFFFFF AND PUSH1 0xE0 SHL DUP2 MSTORE PUSH1 0x4 ADD PUSH1 0x0 PUSH1 0x40 MLOAD DUP1 DUP4 SUB DUP2 DUP7 GAS STATICCALL ISZERO DUP1 ISZERO PUSH3 0x153E JUMPI RETURNDATASIZE PUSH1 0x0 DUP1 RETURNDATACOPY RETURNDATASIZE PUSH1 0x0 REVERT JUMPDEST POP POP POP POP PUSH1 0x40 MLOAD RETURNDATASIZE PUSH1 0x0 DUP3 RETURNDATACOPY RETURNDATASIZE PUSH1 0x1F NOT PUSH1 0x1F DUP3 ADD AND DUP3 ADD DUP1 PUSH1 0x40 MSTORE POP DUP2 ADD SWAP1 PUSH3 0x1569 SWAP2 SWAP1 PUSH3 0x327E JUMP JUMPDEST DUP4 DUP3 DUP2 MLOAD DUP2 LT PUSH3 0x157F JUMPI PUSH3 0x157E PUSH3 0x2FB3 JUMP JUMPDEST JUMPDEST PUSH1 0x20 MUL PUSH1 0x20 ADD ADD DUP2 SWAP1 MSTORE POP PUSH1 0x3 DUP2 DUP2 SLOAD DUP2 LT PUSH3 0x15A1 JUMPI PUSH3 0x15A0 PUSH3 0x2FB3 JUMP JUMPDEST JUMPDEST SWAP1 PUSH1 0x0 MSTORE PUSH1 0x20 PUSH1 0x0 KECCAK256 ADD PUSH1 0x0 SWAP1 SLOAD SWAP1 PUSH2 0x100 EXP SWAP1 DIV PUSH20 0xFFFFFFFFFFFFFFFFFFFFFFFFFFFFFFFFFFFFFFFF AND DUP3 DUP3 DUP2 MLOAD DUP2 LT PUSH3 0x15E2 JUMPI PUSH3 0x15E1 PUSH3 0x2FB3 JUMP JUMPDEST JUMPDEST PUSH1 0x20 MUL PUSH1 0x20 ADD ADD SWAP1 PUSH20 0xFFFFFFFFFFFFFFFFFFFFFFFFFFFFFFFFFFFFFFFF AND SWAP1 DUP2 PUSH20 0xFFFFFFFFFFFFFFFFFFFFFFFFFFFFFFFFFFFFFFFF AND DUP2 MSTORE POP POP DUP1 DUP1 PUSH3 0x1629 SWAP1 PUSH3 0x33BB JUMP JUMPDEST SWAP2 POP POP PUSH3 0x12F1 JUMP JUMPDEST POP SWAP1 SWAP2 SWAP3 SWAP4 JUMP JUMPDEST PUSH3 0x1643 PUSH3 0x26FD JUMP JUMPDEST PUSH1 0x0 PUSH3 0x165A DUP4 PUSH8 0xFFFFFFFFFFFFFFFF AND PUSH3 0x168C JUMP JUMPDEST SWAP1 POP PUSH1 0x0 PUSH3 0x1676 PUSH1 0x5 PUSH4 0x4505760A PUSH1 0x51 DUP6 PUSH1 0x0 PUSH1 0x1 PUSH3 0x16C6 JUMP JUMPDEST SWAP1 POP PUSH3 0x1683 DUP2 PUSH3 0x1829 JUMP JUMPDEST SWAP3 POP POP POP SWAP2 SWAP1 POP JUMP JUMPDEST PUSH1 0x60 PUSH1 0x0 PUSH3 0x169C PUSH1 0x40 PUSH3 0x193D JUMP JUMPDEST SWAP1 POP PUSH3 0x16B3 DUP4 DUP3 PUSH3 0x1968 SWAP1 SWAP2 SWAP1 PUSH4 0xFFFFFFFF AND JUMP JUMPDEST PUSH3 0x16BE DUP2 PUSH3 0x197A JUMP JUMPDEST SWAP2 POP POP SWAP2 SWAP1 POP JUMP JUMPDEST PUSH1 0x60 PUSH1 0x0 SELFBALANCE SWAP1 POP DUP4 DUP2 LT ISZERO PUSH3 0x1717 JUMPI DUP1 DUP5 PUSH1 0x40 MLOAD PUSH32 0x8F0F420600000000000000000000000000000000000000000000000000000000 DUP2 MSTORE PUSH1 0x4 ADD PUSH3 0x170E SWAP3 SWAP2 SWAP1 PUSH3 0x3408 JUMP JUMPDEST PUSH1 0x40 MLOAD DUP1 SWAP2 SUB SWAP1 REVERT JUMPDEST PUSH1 0x0 DUP1 PUSH20 0xFE00000000000000000000000000000000000005 PUSH20 0xFFFFFFFFFFFFFFFFFFFFFFFFFFFFFFFFFFFFFFFF AND DUP10 DUP8 DUP8 PUSH3 0x1755 JUMPI PUSH1 0x0 PUSH3 0x1758 JUMP JUMPDEST PUSH1 0x1 JUMPDEST DUP12 DUP12 DUP16 PUSH1 0x40 MLOAD PUSH1 0x20 ADD PUSH3 0x1772 SWAP7 SWAP6 SWAP5 SWAP4 SWAP3 SWAP2 SWAP1 PUSH3 0x34F0 JUMP JUMPDEST PUSH1 0x40 MLOAD PUSH1 0x20 DUP2 DUP4 SUB SUB DUP2 MSTORE SWAP1 PUSH1 0x40 MSTORE PUSH1 0x40 MLOAD PUSH3 0x1790 SWAP2 SWAP1 PUSH3 0x35A6 JUMP JUMPDEST PUSH1 0x0 PUSH1 0x40 MLOAD DUP1 DUP4 SUB DUP2 DUP6 GAS DELEGATECALL SWAP2 POP POP RETURNDATASIZE DUP1 PUSH1 0x0 DUP2 EQ PUSH3 0x17CD JUMPI PUSH1 0x40 MLOAD SWAP2 POP PUSH1 0x1F NOT PUSH1 0x3F RETURNDATASIZE ADD AND DUP3 ADD PUSH1 0x40 MSTORE RETURNDATASIZE DUP3 MSTORE RETURNDATASIZE PUSH1 0x0 PUSH1 0x20 DUP5 ADD RETURNDATACOPY PUSH3 0x17D2 JUMP JUMPDEST PUSH1 0x60 SWAP2 POP JUMPDEST POP SWAP2 POP SWAP2 POP DUP2 PUSH3 0x180F JUMPI PUSH1 0x40 MLOAD PUSH32 0x8A7DB5BF00000000000000000000000000000000000000000000000000000000 DUP2 MSTORE PUSH1 0x4 ADD PUSH1 0x40 MLOAD DUP1 SWAP2 SUB SWAP1 REVERT JUMPDEST PUSH3 0x181A DUP2 PUSH3 0x19D6 JUMP JUMPDEST SWAP4 POP POP POP POP SWAP7 SWAP6 POP POP POP POP POP POP JUMP JUMPDEST PUSH3 0x1833 PUSH3 0x26FD JUMP JUMPDEST PUSH1 0x0 DUP1 PUSH3 0x184B DUP3 DUP6 PUSH3 0x1B6B SWAP1 SWAP2 SWAP1 PUSH4 0xFFFFFFFF AND JUMP JUMPDEST DUP1 SWAP4 POP DUP2 SWAP3 POP POP POP PUSH1 0x0 DUP2 GT ISZERO PUSH3 0x18BA JUMPI PUSH3 0x1872 DUP3 DUP6 PUSH3 0x1BF1 SWAP1 SWAP2 SWAP1 PUSH4 0xFFFFFFFF AND JUMP JUMPDEST DUP5 PUSH1 0x0 ADD DUP2 SWAP5 POP DUP3 SWAP1 MSTORE POP POP PUSH3 0x1893 DUP3 DUP6 PUSH3 0x1DED SWAP1 SWAP2 SWAP1 PUSH4 0xFFFFFFFF AND JUMP JUMPDEST DUP5 PUSH1 0x20 ADD DUP2 SWAP5 POP DUP3 PUSH8 0xFFFFFFFFFFFFFFFF AND PUSH8 0xFFFFFFFFFFFFFFFF AND DUP2 MSTORE POP POP POP PUSH3 0x1936 JUMP JUMPDEST PUSH1 0x0 PUSH8 0xFFFFFFFFFFFFFFFF DUP2 GT ISZERO PUSH3 0x18D8 JUMPI PUSH3 0x18D7 PUSH3 0x285D JUMP JUMPDEST JUMPDEST PUSH1 0x40 MLOAD SWAP1 DUP1 DUP3 MSTORE DUP1 PUSH1 0x1F ADD PUSH1 0x1F NOT AND PUSH1 0x20 ADD DUP3 ADD PUSH1 0x40 MSTORE DUP1 ISZERO PUSH3 0x190B JUMPI DUP2 PUSH1 0x20 ADD PUSH1 0x1 DUP3 MUL DUP1 CALLDATASIZE DUP4 CALLDATACOPY DUP1 DUP3 ADD SWAP2 POP POP SWAP1 POP JUMPDEST POP DUP4 PUSH1 0x0 ADD DUP2 SWAP1 MSTORE POP PUSH1 0x0 DUP4 PUSH1 0x20 ADD SWAP1 PUSH8 0xFFFFFFFFFFFFFFFF AND SWAP1 DUP2 PUSH8 0xFFFFFFFFFFFFFFFF AND DUP2 MSTORE POP POP JUMPDEST POP POP SWAP2 SWAP1 POP JUMP JUMPDEST PUSH3 0x1947 PUSH3 0x2721 JUMP JUMPDEST PUSH3 0x1957 DUP2 PUSH1 0x0 ADD MLOAD DUP4 PUSH3 0x1E73 JUMP JUMPDEST POP PUSH1 0x0 DUP2 PUSH1 0x20 ADD DUP2 DUP2 MSTORE POP POP SWAP2 SWAP1 POP JUMP JUMPDEST PUSH3 0x1976 DUP3 PUSH1 0x0 DUP4 PUSH3 0x1EF8 JUMP JUMPDEST POP POP JUMP JUMPDEST PUSH1 0x60 PUSH1 0x0 DUP3 PUSH1 0x20 ADD MLOAD EQ PUSH3 0x19C6 JUMPI PUSH1 0x40 MLOAD PUSH32 0x8C379A000000000000000000000000000000000000000000000000000000000 DUP2 MSTORE PUSH1 0x4 ADD PUSH3 0x19BD SWAP1 PUSH3 0x360F JUMP JUMPDEST PUSH1 0x40 MLOAD DUP1 SWAP2 SUB SWAP1 REVERT JUMPDEST DUP2 PUSH1 0x0 ADD MLOAD PUSH1 0x0 ADD MLOAD SWAP1 POP SWAP2 SWAP1 POP JUMP JUMPDEST PUSH1 0x60 PUSH1 0x0 DUP1 PUSH1 0x0 DUP5 DUP1 PUSH1 0x20 ADD SWAP1 MLOAD DUP2 ADD SWAP1 PUSH3 0x19F3 SWAP2 SWAP1 PUSH3 0x3751 JUMP JUMPDEST SWAP3 POP SWAP3 POP SWAP3 POP PUSH1 0x0 PUSH8 0xFFFFFFFFFFFFFFFF AND DUP3 PUSH8 0xFFFFFFFFFFFFFFFF AND SUB PUSH3 0x1A58 JUMPI PUSH1 0x0 DUP2 MLOAD EQ PUSH3 0x1A52 JUMPI PUSH1 0x40 MLOAD PUSH32 0xE74990700000000000000000000000000000000000000000000000000000000 DUP2 MSTORE PUSH1 0x4 ADD PUSH1 0x40 MLOAD DUP1 SWAP2 SUB SWAP1 REVERT JUMPDEST PUSH3 0x1B18 JUMP JUMPDEST PUSH1 0x51 PUSH8 0xFFFFFFFFFFFFFFFF AND DUP3 PUSH8 0xFFFFFFFFFFFFFFFF AND EQ DUP1 PUSH3 0x1A90 JUMPI POP PUSH1 0x71 PUSH8 0xFFFFFFFFFFFFFFFF AND DUP3 PUSH8 0xFFFFFFFFFFFFFFFF AND EQ JUMPDEST ISZERO PUSH3 0x1AD8 JUMPI PUSH1 0x0 DUP2 MLOAD SUB PUSH3 0x1AD2 JUMPI PUSH1 0x40 MLOAD PUSH32 0xE74990700000000000000000000000000000000000000000000000000000000 DUP2 MSTORE PUSH1 0x4 ADD PUSH1 0x40 MLOAD DUP1 SWAP2 SUB SWAP1 REVERT JUMPDEST PUSH3 0x1B17 JUMP JUMPDEST DUP2 PUSH1 0x40 MLOAD PUSH32 0xF1F6BCED00000000000000000000000000000000000000000000000000000000 DUP2 MSTORE PUSH1 0x4 ADD PUSH3 0x1B0E SWAP2 SWAP1 PUSH3 0x37CC JUMP JUMPDEST PUSH1 0x40 MLOAD DUP1 SWAP2 SUB SWAP1 REVERT JUMPDEST JUMPDEST PUSH1 0x0 DUP4 EQ PUSH3 0x1B60 JUMPI DUP3 PUSH1 0x40 MLOAD PUSH32 0xD4BB667100000000000000000000000000000000000000000000000000000000 DUP2 MSTORE PUSH1 0x4 ADD PUSH3 0x1B57 SWAP2 SWAP1 PUSH3 0x37FA JUMP JUMPDEST PUSH1 0x40 MLOAD DUP1 SWAP2 SUB SWAP1 REVERT JUMPDEST DUP1 SWAP4 POP POP POP POP SWAP2 SWAP1 POP JUMP JUMPDEST PUSH1 0x0 DUP1 PUSH1 0x0 DUP1 PUSH3 0x1B7D DUP7 DUP7 PUSH3 0x20BB JUMP JUMPDEST DUP2 PUSH8 0xFFFFFFFFFFFFFFFF AND SWAP2 POP DUP1 SWAP8 POP DUP2 SWAP4 POP DUP3 SWAP5 POP POP POP POP PUSH1 0x4 PUSH1 0xFF AND DUP3 PUSH1 0xFF AND EQ PUSH3 0x1BE2 JUMPI PUSH1 0x40 MLOAD PUSH32 0x8C379A000000000000000000000000000000000000000000000000000000000 DUP2 MSTORE PUSH1 0x4 ADD PUSH3 0x1BD9 SWAP1 PUSH3 0x3867 JUMP JUMPDEST PUSH1 0x40 MLOAD DUP1 SWAP2 SUB SWAP1 REVERT JUMPDEST DUP1 DUP6 SWAP4 POP SWAP4 POP POP POP SWAP3 POP SWAP3 SWAP1 POP JUMP JUMPDEST PUSH1 0x60 PUSH1 0x0 DUP1 PUSH1 0x0 PUSH3 0x1C04 DUP7 DUP7 PUSH3 0x20BB JUMP JUMPDEST DUP2 PUSH8 0xFFFFFFFFFFFFFFFF AND SWAP2 POP DUP1 SWAP8 POP DUP2 SWAP4 POP DUP3 SWAP5 POP POP POP POP PUSH1 0x6 PUSH1 0xFF AND DUP3 PUSH1 0xFF AND EQ DUP1 PUSH3 0x1C39 JUMPI POP PUSH1 0x2 PUSH1 0xFF AND DUP3 PUSH1 0xFF AND EQ JUMPDEST PUSH3 0x1C7B JUMPI PUSH1 0x40 MLOAD PUSH32 0x8C379A000000000000000000000000000000000000000000000000000000000 DUP2 MSTORE PUSH1 0x4 ADD PUSH3 0x1C72 SWAP1 PUSH3 0x38FF JUMP JUMPDEST PUSH1 0x40 MLOAD DUP1 SWAP2 SUB SWAP1 REVERT JUMPDEST PUSH1 0x6 PUSH1 0xFF AND DUP3 PUSH1 0xFF AND SUB PUSH3 0x1CCA JUMPI PUSH3 0x1C96 DUP7 DUP7 PUSH3 0x20BB JUMP JUMPDEST DUP2 PUSH8 0xFFFFFFFFFFFFFFFF AND SWAP2 POP DUP1 SWAP8 POP DUP2 SWAP4 POP DUP3 SWAP5 POP POP POP POP PUSH1 0x2 PUSH1 0xFF AND DUP3 PUSH1 0xFF AND EQ PUSH3 0x1CC9 JUMPI PUSH3 0x1CC8 PUSH3 0x3921 JUMP JUMPDEST JUMPDEST JUMPDEST PUSH1 0x0 DUP2 DUP7 PUSH3 0x1CDA SWAP2 SWAP1 PUSH3 0x3950 JUMP JUMPDEST SWAP1 POP PUSH1 0x0 DUP3 PUSH8 0xFFFFFFFFFFFFFFFF DUP2 GT ISZERO PUSH3 0x1CFB JUMPI PUSH3 0x1CFA PUSH3 0x285D JUMP JUMPDEST JUMPDEST PUSH1 0x40 MLOAD SWAP1 DUP1 DUP3 MSTORE DUP1 PUSH1 0x1F ADD PUSH1 0x1F NOT AND PUSH1 0x20 ADD DUP3 ADD PUSH1 0x40 MSTORE DUP1 ISZERO PUSH3 0x1D2E JUMPI DUP2 PUSH1 0x20 ADD PUSH1 0x1 DUP3 MUL DUP1 CALLDATASIZE DUP4 CALLDATACOPY DUP1 DUP3 ADD SWAP2 POP POP SWAP1 POP JUMPDEST POP SWAP1 POP PUSH1 0x0 DUP1 DUP9 SWAP1 POP JUMPDEST DUP4 DUP2 LT ISZERO PUSH3 0x1DCD JUMPI DUP10 DUP2 DUP2 MLOAD DUP2 LT PUSH3 0x1D57 JUMPI PUSH3 0x1D56 PUSH3 0x2FB3 JUMP JUMPDEST JUMPDEST PUSH1 0x20 ADD ADD MLOAD PUSH1 0xF8 SHR PUSH1 0xF8 SHL DUP4 DUP4 DUP2 MLOAD DUP2 LT PUSH3 0x1D78 JUMPI PUSH3 0x1D77 PUSH3 0x2FB3 JUMP JUMPDEST JUMPDEST PUSH1 0x20 ADD ADD SWAP1 PUSH31 0xFFFFFFFFFFFFFFFFFFFFFFFFFFFFFFFFFFFFFFFFFFFFFFFFFFFFFFFFFFFFFF NOT AND SWAP1 DUP2 PUSH1 0x0 BYTE SWAP1 MSTORE8 POP DUP2 DUP1 PUSH3 0x1DB4 SWAP1 PUSH3 0x33BB JUMP JUMPDEST SWAP3 POP POP DUP1 DUP1 PUSH3 0x1DC4 SWAP1 PUSH3 0x33BB JUMP JUMPDEST SWAP2 POP POP PUSH3 0x1D38 JUMP JUMPDEST POP DUP2 DUP5 DUP10 PUSH3 0x1DDD SWAP2 SWAP1 PUSH3 0x3950 JUMP JUMPDEST SWAP7 POP SWAP7 POP POP POP POP POP POP SWAP3 POP SWAP3 SWAP1 POP JUMP JUMPDEST PUSH1 0x0 DUP1 PUSH1 0x0 DUP1 PUSH3 0x1DFF DUP7 DUP7 PUSH3 0x20BB JUMP JUMPDEST DUP2 PUSH8 0xFFFFFFFFFFFFFFFF AND SWAP2 POP DUP1 SWAP8 POP DUP2 SWAP4 POP DUP3 SWAP5 POP POP POP POP PUSH1 0x0 PUSH1 0xFF AND DUP3 PUSH1 0xFF AND EQ PUSH3 0x1E64 JUMPI PUSH1 0x40 MLOAD PUSH32 0x8C379A000000000000000000000000000000000000000000000000000000000 DUP2 MSTORE PUSH1 0x4 ADD PUSH3 0x1E5B SWAP1 PUSH3 0x3A01 JUMP JUMPDEST PUSH1 0x40 MLOAD DUP1 SWAP2 SUB SWAP1 REVERT JUMPDEST DUP1 DUP6 SWAP4 POP SWAP4 POP POP POP SWAP3 POP SWAP3 SWAP1 POP JUMP JUMPDEST PUSH3 0x1E7D PUSH3 0x2743 JUMP JUMPDEST PUSH1 0x0 PUSH1 0x20 DUP4 PUSH3 0x1E8E SWAP2 SWAP1 PUSH3 0x3A52 JUMP JUMPDEST EQ PUSH3 0x1EC1 JUMPI PUSH1 0x20 DUP3 PUSH3 0x1EA3 SWAP2 SWAP1 PUSH3 0x3A52 JUMP JUMPDEST PUSH1 0x20 PUSH3 0x1EB1 SWAP2 SWAP1 PUSH3 0x31C5 JUMP JUMPDEST DUP3 PUSH3 0x1EBE SWAP2 SWAP1 PUSH3 0x3950 JUMP JUMPDEST SWAP2 POP JUMPDEST DUP2 DUP4 PUSH1 0x20 ADD DUP2 DUP2 MSTORE POP POP PUSH1 0x40 MLOAD DUP1 DUP5 MSTORE PUSH1 0x0 DUP2 MSTORE DUP3 DUP2 ADD PUSH1 0x20 ADD DUP2 DUP2 LT ISZERO PUSH3 0x1EE9 JUMPI PUSH1 0x0 DUP1 REVERT JUMPDEST DUP1 PUSH1 0x40 MSTORE POP POP DUP3 SWAP1 POP SWAP3 SWAP2 POP POP JUMP JUMPDEST PUSH1 0x17 DUP2 PUSH8 0xFFFFFFFFFFFFFFFF AND GT PUSH3 0x1F37 JUMPI PUSH3 0x1F30 DUP2 PUSH1 0x5 DUP5 PUSH1 0xFF AND SWAP1 SHL PUSH1 0xFF AND OR DUP5 PUSH1 0x0 ADD MLOAD PUSH3 0x22D2 SWAP1 SWAP2 SWAP1 PUSH4 0xFFFFFFFF AND JUMP JUMPDEST POP PUSH3 0x20B6 JUMP JUMPDEST PUSH1 0xFF DUP2 PUSH8 0xFFFFFFFFFFFFFFFF AND GT PUSH3 0x1F9B JUMPI PUSH3 0x1F6D PUSH1 0x18 PUSH1 0x5 DUP5 PUSH1 0xFF AND SWAP1 SHL OR DUP5 PUSH1 0x0 ADD MLOAD PUSH3 0x22D2 SWAP1 SWAP2 SWAP1 PUSH4 0xFFFFFFFF AND JUMP JUMPDEST POP PUSH3 0x1F94 DUP2 PUSH8 0xFFFFFFFFFFFFFFFF AND PUSH1 0x1 DUP6 PUSH1 0x0 ADD MLOAD PUSH3 0x2346 SWAP1 SWAP3 SWAP2 SWAP1 PUSH4 0xFFFFFFFF AND JUMP JUMPDEST POP PUSH3 0x20B5 JUMP JUMPDEST PUSH2 0xFFFF DUP2 PUSH8 0xFFFFFFFFFFFFFFFF AND GT PUSH3 0x2000 JUMPI PUSH3 0x1FD2 PUSH1 0x19 PUSH1 0x5 DUP5 PUSH1 0xFF AND SWAP1 SHL OR DUP5 PUSH1 0x0 ADD MLOAD PUSH3 0x22D2 SWAP1 SWAP2 SWAP1 PUSH4 0xFFFFFFFF AND JUMP JUMPDEST POP PUSH3 0x1FF9 DUP2 PUSH8 0xFFFFFFFFFFFFFFFF AND PUSH1 0x2 DUP6 PUSH1 0x0 ADD MLOAD PUSH3 0x2346 SWAP1 SWAP3 SWAP2 SWAP1 PUSH4 0xFFFFFFFF AND JUMP JUMPDEST POP PUSH3 0x20B4 JUMP JUMPDEST PUSH4 0xFFFFFFFF DUP2 PUSH8 0xFFFFFFFFFFFFFFFF AND GT PUSH3 0x2067 JUMPI PUSH3 0x2039 PUSH1 0x1A PUSH1 0x5 DUP5 PUSH1 0xFF AND SWAP1 SHL OR DUP5 PUSH1 0x0 ADD MLOAD PUSH3 0x22D2 SWAP1 SWAP2 SWAP1 PUSH4 0xFFFFFFFF AND JUMP JUMPDEST POP PUSH3 0x2060 DUP2 PUSH8 0xFFFFFFFFFFFFFFFF AND PUSH1 0x4 DUP6 PUSH1 0x0 ADD MLOAD PUSH3 0x2346 SWAP1 SWAP3 SWAP2 SWAP1 PUSH4 0xFFFFFFFF AND JUMP JUMPDEST POP PUSH3 0x20B3 JUMP JUMPDEST PUSH3 0x208A PUSH1 0x1B PUSH1 0x5 DUP5 PUSH1 0xFF AND SWAP1 SHL OR DUP5 PUSH1 0x0 ADD MLOAD PUSH3 0x22D2 SWAP1 SWAP2 SWAP1 PUSH4 0xFFFFFFFF AND JUMP JUMPDEST POP PUSH3 0x20B1 DUP2 PUSH8 0xFFFFFFFFFFFFFFFF AND PUSH1 0x8 DUP6 PUSH1 0x0 ADD MLOAD PUSH3 0x2346 SWAP1 SWAP3 SWAP2 SWAP1 PUSH4 0xFFFFFFFF AND JUMP JUMPDEST POP JUMPDEST JUMPDEST JUMPDEST JUMPDEST POP POP POP JUMP JUMPDEST PUSH1 0x0 DUP1 PUSH1 0x0 DUP1 PUSH3 0x20CD DUP7 DUP7 PUSH3 0x23E1 JUMP JUMPDEST SWAP1 POP PUSH1 0x1 DUP6 PUSH3 0x20DE SWAP2 SWAP1 PUSH3 0x3950 JUMP JUMPDEST SWAP5 POP PUSH1 0x0 PUSH1 0x5 PUSH1 0xE0 DUP4 AND PUSH1 0xFF AND SWAP1 SHR SWAP1 POP PUSH1 0x0 PUSH1 0x1F DUP4 AND SWAP1 POP PUSH1 0x1C DUP2 PUSH1 0xFF AND LT PUSH3 0x2140 JUMPI PUSH1 0x40 MLOAD PUSH32 0x8C379A000000000000000000000000000000000000000000000000000000000 DUP2 MSTORE PUSH1 0x4 ADD PUSH3 0x2137 SWAP1 PUSH3 0x3B00 JUMP JUMPDEST PUSH1 0x40 MLOAD DUP1 SWAP2 SUB SWAP1 REVERT JUMPDEST PUSH1 0x18 DUP2 PUSH1 0xFF AND LT ISZERO PUSH3 0x2165 JUMPI DUP2 DUP2 DUP9 DUP2 PUSH1 0xFF AND SWAP2 POP SWAP6 POP SWAP6 POP SWAP6 POP POP POP POP PUSH3 0x22CB JUMP JUMPDEST PUSH1 0x18 DUP2 PUSH1 0xFF AND SUB PUSH3 0x21F5 JUMPI PUSH1 0x0 PUSH3 0x217F DUP10 DUP10 PUSH3 0x23E1 JUMP JUMPDEST SWAP1 POP PUSH1 0x1 DUP9 PUSH3 0x2190 SWAP2 SWAP1 PUSH3 0x3950 JUMP JUMPDEST SWAP8 POP PUSH1 0x18 DUP2 PUSH1 0xFF AND LT ISZERO PUSH3 0x21DC JUMPI PUSH1 0x40 MLOAD PUSH32 0x8C379A000000000000000000000000000000000000000000000000000000000 DUP2 MSTORE PUSH1 0x4 ADD PUSH3 0x21D3 SWAP1 PUSH3 0x3B72 JUMP JUMPDEST PUSH1 0x40 MLOAD DUP1 SWAP2 SUB SWAP1 REVERT JUMPDEST DUP3 DUP2 DUP10 DUP2 PUSH1 0xFF AND SWAP2 POP SWAP7 POP SWAP7 POP SWAP7 POP POP POP POP POP PUSH3 0x22CB JUMP JUMPDEST PUSH1 0x19 DUP2 PUSH1 0xFF AND SUB PUSH3 0x223C JUMPI PUSH1 0x0 PUSH3 0x220F DUP10 DUP10 PUSH3 0x2464 JUMP JUMPDEST SWAP1 POP PUSH1 0x2 DUP9 PUSH3 0x2220 SWAP2 SWAP1 PUSH3 0x3950 JUMP JUMPDEST SWAP8 POP DUP3 DUP2 DUP10 DUP2 PUSH2 0xFFFF AND SWAP2 POP SWAP7 POP SWAP7 POP SWAP7 POP POP POP POP POP PUSH3 0x22CB JUMP JUMPDEST PUSH1 0x1A DUP2 PUSH1 0xFF AND SUB PUSH3 0x2285 JUMPI PUSH1 0x0 PUSH3 0x2256 DUP10 DUP10 PUSH3 0x24D3 JUMP JUMPDEST SWAP1 POP PUSH1 0x4 DUP9 PUSH3 0x2267 SWAP2 SWAP1 PUSH3 0x3950 JUMP JUMPDEST SWAP8 POP DUP3 DUP2 DUP10 DUP2 PUSH4 0xFFFFFFFF AND SWAP2 POP SWAP7 POP SWAP7 POP SWAP7 POP POP POP POP POP PUSH3 0x22CB JUMP JUMPDEST PUSH1 0x1B DUP2 PUSH1 0xFF AND EQ PUSH3 0x229C JUMPI PUSH3 0x229B PUSH3 0x3921 JUMP JUMPDEST JUMPDEST PUSH1 0x0 PUSH3 0x22AA DUP10 DUP10 PUSH3 0x2542 JUMP JUMPDEST SWAP1 POP PUSH1 0x8 DUP9 PUSH3 0x22BB SWAP2 SWAP1 PUSH3 0x3950 JUMP JUMPDEST SWAP8 POP DUP3 DUP2 DUP10 SWAP7 POP SWAP7 POP SWAP7 POP POP POP POP POP JUMPDEST SWAP3 POP SWAP3 POP SWAP3 JUMP JUMPDEST PUSH3 0x22DC PUSH3 0x2743 JUMP JUMPDEST PUSH1 0x0 DUP4 PUSH1 0x0 ADD MLOAD MLOAD SWAP1 POP PUSH1 0x0 PUSH1 0x1 DUP3 PUSH3 0x22F7 SWAP2 SWAP1 PUSH3 0x3950 JUMP JUMPDEST SWAP1 POP DUP5 PUSH1 0x20 ADD MLOAD DUP3 LT PUSH3 0x2320 JUMPI PUSH3 0x231F DUP6 PUSH1 0x2 DUP4 PUSH3 0x2319 SWAP2 SWAP1 PUSH3 0x3B94 JUMP JUMPDEST PUSH3 0x25B1 JUMP JUMPDEST JUMPDEST DUP5 MLOAD PUSH1 0x20 DUP4 DUP3 ADD ADD DUP6 DUP2 MSTORE8 DUP2 MLOAD DUP4 GT ISZERO PUSH3 0x2339 JUMPI DUP3 DUP3 MSTORE JUMPDEST POP POP DUP5 SWAP3 POP POP POP SWAP3 SWAP2 POP POP JUMP JUMPDEST PUSH3 0x2350 PUSH3 0x2743 JUMP JUMPDEST PUSH1 0x0 DUP5 PUSH1 0x0 ADD MLOAD MLOAD SWAP1 POP PUSH1 0x0 DUP2 DUP5 PUSH3 0x236A SWAP2 SWAP1 PUSH3 0x3950 JUMP JUMPDEST SWAP1 POP DUP6 PUSH1 0x20 ADD MLOAD DUP2 GT ISZERO PUSH3 0x2394 JUMPI PUSH3 0x2393 DUP7 PUSH1 0x2 DUP4 PUSH3 0x238D SWAP2 SWAP1 PUSH3 0x3B94 JUMP JUMPDEST PUSH3 0x25B1 JUMP JUMPDEST JUMPDEST PUSH1 0x0 PUSH1 0x1 DUP6 PUSH2 0x100 PUSH3 0x23A8 SWAP2 SWAP1 PUSH3 0x3D33 JUMP JUMPDEST PUSH3 0x23B4 SWAP2 SWAP1 PUSH3 0x31C5 JUMP JUMPDEST SWAP1 POP DUP7 MLOAD DUP3 DUP2 ADD DUP8 DUP4 NOT DUP3 MLOAD AND OR DUP2 MSTORE DUP2 MLOAD DUP5 GT ISZERO PUSH3 0x23D2 JUMPI DUP4 DUP3 MSTORE JUMPDEST POP POP DUP7 SWAP4 POP POP POP POP SWAP4 SWAP3 POP POP POP JUMP JUMPDEST PUSH1 0x0 PUSH1 0x1 DUP3 PUSH3 0x23F2 SWAP2 SWAP1 PUSH3 0x3950 JUMP JUMPDEST DUP4 MLOAD LT ISZERO PUSH3 0x2438 JUMPI PUSH1 0x40 MLOAD PUSH32 0x8C379A000000000000000000000000000000000000000000000000000000000 DUP2 MSTORE PUSH1 0x4 ADD PUSH3 0x242F SWAP1 PUSH3 0x3DD4 JUMP JUMPDEST PUSH1 0x40 MLOAD DUP1 SWAP2 SUB SWAP1 REVERT JUMPDEST DUP3 DUP3 DUP2 MLOAD DUP2 LT PUSH3 0x244E JUMPI PUSH3 0x244D PUSH3 0x2FB3 JUMP JUMPDEST JUMPDEST PUSH1 0x20 ADD ADD MLOAD PUSH1 0xF8 SHR PUSH1 0xF8 SHL PUSH1 0xF8 SHR SWAP1 POP SWAP3 SWAP2 POP POP JUMP JUMPDEST PUSH1 0x0 PUSH1 0x2 DUP3 PUSH3 0x2475 SWAP2 SWAP1 PUSH3 0x3950 JUMP JUMPDEST DUP4 MLOAD LT ISZERO PUSH3 0x24BB JUMPI PUSH1 0x40 MLOAD PUSH32 0x8C379A000000000000000000000000000000000000000000000000000000000 DUP2 MSTORE PUSH1 0x4 ADD PUSH3 0x24B2 SWAP1 PUSH3 0x3DD4 JUMP JUMPDEST PUSH1 0x40 MLOAD DUP1 SWAP2 SUB SWAP1 REVERT JUMPDEST PUSH1 0x0 DUP3 PUSH1 0x20 ADD DUP5 ADD MLOAD SWAP1 POP DUP1 PUSH1 0xF0 SHR SWAP2 POP POP SWAP3 SWAP2 POP POP JUMP JUMPDEST PUSH1 0x0 PUSH1 0x4 DUP3 PUSH3 0x24E4 SWAP2 SWAP1 PUSH3 0x3950 JUMP JUMPDEST DUP4 MLOAD LT ISZERO PUSH3 0x252A JUMPI PUSH1 0x40 MLOAD PUSH32 0x8C379A000000000000000000000000000000000000000000000000000000000 DUP2 MSTORE PUSH1 0x4 ADD PUSH3 0x2521 SWAP1 PUSH3 0x3DD4 JUMP JUMPDEST PUSH1 0x40 MLOAD DUP1 SWAP2 SUB SWAP1 REVERT JUMPDEST PUSH1 0x0 DUP3 PUSH1 0x20 ADD DUP5 ADD MLOAD SWAP1 POP DUP1 PUSH1 0xE0 SHR SWAP2 POP POP SWAP3 SWAP2 POP POP JUMP JUMPDEST PUSH1 0x0 PUSH1 0x8 DUP3 PUSH3 0x2553 SWAP2 SWAP1 PUSH3 0x3950 JUMP JUMPDEST DUP4 MLOAD LT ISZERO PUSH3 0x2599 JUMPI PUSH1 0x40 MLOAD PUSH32 0x8C379A000000000000000000000000000000000000000000000000000000000 DUP2 MSTORE PUSH1 0x4 ADD PUSH3 0x2590 SWAP1 PUSH3 0x3DD4 JUMP JUMPDEST PUSH1 0x40 MLOAD DUP1 SWAP2 SUB SWAP1 REVERT JUMPDEST PUSH1 0x0 DUP3 PUSH1 0x20 ADD DUP5 ADD MLOAD SWAP1 POP DUP1 PUSH1 0xC0 SHR SWAP2 POP POP SWAP3 SWAP2 POP POP JUMP JUMPDEST PUSH1 0x0 DUP3 PUSH1 0x0 ADD MLOAD SWAP1 POP PUSH3 0x25C6 DUP4 DUP4 PUSH3 0x1E73 JUMP JUMPDEST POP PUSH3 0x25D3 DUP4 DUP3 PUSH3 0x25D9 JUMP JUMPDEST POP POP POP POP JUMP JUMPDEST PUSH3 0x25E3 PUSH3 0x2743 JUMP JUMPDEST PUSH3 0x25F1 DUP4 DUP4 DUP5 MLOAD PUSH3 0x25F9 JUMP JUMPDEST SWAP1 POP SWAP3 SWAP2 POP POP JUMP JUMPDEST PUSH3 0x2603 PUSH3 0x2743 JUMP JUMPDEST DUP3 MLOAD DUP3 GT ISZERO PUSH3 0x2612 JUMPI PUSH1 0x0 DUP1 REVERT JUMPDEST PUSH1 0x0 DUP5 PUSH1 0x0 ADD MLOAD MLOAD SWAP1 POP PUSH1 0x0 DUP4 DUP3 PUSH3 0x262C SWAP2 SWAP1 PUSH3 0x3950 JUMP JUMPDEST SWAP1 POP DUP6 PUSH1 0x20 ADD MLOAD DUP2 GT ISZERO PUSH3 0x2656 JUMPI PUSH3 0x2655 DUP7 PUSH1 0x2 DUP4 PUSH3 0x264F SWAP2 SWAP1 PUSH3 0x3B94 JUMP JUMPDEST PUSH3 0x25B1 JUMP JUMPDEST JUMPDEST PUSH1 0x0 DUP1 DUP8 MLOAD DUP1 MLOAD DUP6 PUSH1 0x20 DUP4 ADD ADD SWAP4 POP DUP1 DUP6 GT ISZERO PUSH3 0x2672 JUMPI DUP5 DUP3 MSTORE JUMPDEST PUSH1 0x20 DUP10 ADD SWAP3 POP POP POP JUMPDEST PUSH1 0x20 DUP7 LT PUSH3 0x26C1 JUMPI DUP1 MLOAD DUP3 MSTORE PUSH1 0x20 DUP3 PUSH3 0x2697 SWAP2 SWAP1 PUSH3 0x3950 JUMP JUMPDEST SWAP2 POP PUSH1 0x20 DUP2 PUSH3 0x26A8 SWAP2 SWAP1 PUSH3 0x3950 JUMP JUMPDEST SWAP1 POP PUSH1 0x20 DUP7 PUSH3 0x26B9 SWAP2 SWAP1 PUSH3 0x31C5 JUMP JUMPDEST SWAP6 POP PUSH3 0x267B JUMP JUMPDEST PUSH1 0x0 PUSH1 0x1 DUP8 PUSH1 0x20 SUB PUSH2 0x100 EXP SUB SWAP1 POP DUP1 NOT DUP3 MLOAD AND DUP2 DUP5 MLOAD AND DUP2 DUP2 OR DUP6 MSTORE POP POP POP DUP8 SWAP5 POP POP POP POP POP SWAP4 SWAP3 POP POP POP JUMP JUMPDEST PUSH2 0x180A DUP1 PUSH3 0x3DF7 DUP4 CODECOPY ADD SWAP1 JUMP JUMPDEST PUSH1 0x40 MLOAD DUP1 PUSH1 0x40 ADD PUSH1 0x40 MSTORE DUP1 PUSH1 0x60 DUP2 MSTORE PUSH1 0x20 ADD PUSH1 0x0 PUSH8 0xFFFFFFFFFFFFFFFF AND DUP2 MSTORE POP SWAP1 JUMP JUMPDEST PUSH1 0x40 MLOAD DUP1 PUSH1 0x40 ADD PUSH1 0x40 MSTORE DUP1 PUSH3 0x2736 PUSH3 0x2743 JUMP JUMPDEST DUP2 MSTORE PUSH1 0x20 ADD PUSH1 0x0 DUP2 MSTORE POP SWAP1 JUMP JUMPDEST PUSH1 0x40 MLOAD DUP1 PUSH1 0x40 ADD PUSH1 0x40 MSTORE DUP1 PUSH1 0x60 DUP2 MSTORE PUSH1 0x20 ADD PUSH1 0x0 DUP2 MSTORE POP SWAP1 JUMP JUMPDEST PUSH1 0x0 PUSH1 0x40 MLOAD SWAP1 POP SWAP1 JUMP JUMPDEST PUSH1 0x0 DUP1 REVERT JUMPDEST PUSH1 0x0 DUP1 REVERT JUMPDEST PUSH1 0x0 PUSH20 0xFFFFFFFFFFFFFFFFFFFFFFFFFFFFFFFFFFFFFFFF DUP3 AND SWAP1 POP SWAP2 SWAP1 POP JUMP JUMPDEST PUSH1 0x0 PUSH3 0x279E DUP3 PUSH3 0x2771 JUMP JUMPDEST SWAP1 POP SWAP2 SWAP1 POP JUMP JUMPDEST PUSH3 0x27B0 DUP2 PUSH3 0x2791 JUMP JUMPDEST DUP2 EQ PUSH3 0x27BC JUMPI PUSH1 0x0 DUP1 REVERT JUMPDEST POP JUMP JUMPDEST PUSH1 0x0 DUP2 CALLDATALOAD SWAP1 POP PUSH3 0x27D0 DUP2 PUSH3 0x27A5 JUMP JUMPDEST SWAP3 SWAP2 POP POP JUMP JUMPDEST PUSH1 0x0 PUSH1 0x20 DUP3 DUP5 SUB SLT ISZERO PUSH3 0x27EF JUMPI PUSH3 0x27EE PUSH3 0x2767 JUMP JUMPDEST JUMPDEST PUSH1 0x0 PUSH3 0x27FF DUP5 DUP3 DUP6 ADD PUSH3 0x27BF JUMP JUMPDEST SWAP2 POP POP SWAP3 SWAP2 POP POP JUMP JUMPDEST PUSH1 0x0 DUP2 ISZERO ISZERO SWAP1 POP SWAP2 SWAP1 POP JUMP JUMPDEST PUSH3 0x281F DUP2 PUSH3 0x2808 JUMP JUMPDEST DUP3 MSTORE POP POP JUMP JUMPDEST PUSH1 0x0 PUSH1 0x20 DUP3 ADD SWAP1 POP PUSH3 0x283C PUSH1 0x0 DUP4 ADD DUP5 PUSH3 0x2814 JUMP JUMPDEST SWAP3 SWAP2 POP POP JUMP JUMPDEST PUSH1 0x0 DUP1 REVERT JUMPDEST PUSH1 0x0 DUP1 REVERT JUMPDEST PUSH1 0x0 PUSH1 0x1F NOT PUSH1 0x1F DUP4 ADD AND SWAP1 POP SWAP2 SWAP1 POP JUMP JUMPDEST PUSH32 0x4E487B7100000000000000000000000000000000000000000000000000000000 PUSH1 0x0 MSTORE PUSH1 0x41 PUSH1 0x4 MSTORE PUSH1 0x24 PUSH1 0x0 REVERT JUMPDEST PUSH3 0x2897 DUP3 PUSH3 0x284C JUMP JUMPDEST DUP2 ADD DUP2 DUP2 LT PUSH8 0xFFFFFFFFFFFFFFFF DUP3 GT OR ISZERO PUSH3 0x28B9 JUMPI PUSH3 0x28B8 PUSH3 0x285D JUMP JUMPDEST JUMPDEST DUP1 PUSH1 0x40 MSTORE POP POP POP JUMP JUMPDEST PUSH1 0x0 PUSH3 0x28CE PUSH3 0x275D JUMP JUMPDEST SWAP1 POP PUSH3 0x28DC DUP3 DUP3 PUSH3 0x288C JUMP JUMPDEST SWAP2 SWAP1 POP JUMP JUMPDEST PUSH1 0x0 PUSH8 0xFFFFFFFFFFFFFFFF DUP3 GT ISZERO PUSH3 0x28FF JUMPI PUSH3 0x28FE PUSH3 0x285D JUMP JUMPDEST JUMPDEST PUSH3 0x290A DUP3 PUSH3 0x284C JUMP JUMPDEST SWAP1 POP PUSH1 0x20 DUP2 ADD SWAP1 POP SWAP2 SWAP1 POP JUMP JUMPDEST DUP3 DUP2 DUP4 CALLDATACOPY PUSH1 0x0 DUP4 DUP4 ADD MSTORE POP POP POP JUMP JUMPDEST PUSH1 0x0 PUSH3 0x293D PUSH3 0x2937 DUP5 PUSH3 0x28E1 JUMP JUMPDEST PUSH3 0x28C2 JUMP JUMPDEST SWAP1 POP DUP3 DUP2 MSTORE PUSH1 0x20 DUP2 ADD DUP5 DUP5 DUP5 ADD GT ISZERO PUSH3 0x295C JUMPI PUSH3 0x295B PUSH3 0x2847 JUMP JUMPDEST JUMPDEST PUSH3 0x2969 DUP5 DUP3 DUP6 PUSH3 0x2917 JUMP JUMPDEST POP SWAP4 SWAP3 POP POP POP JUMP JUMPDEST PUSH1 0x0 DUP3 PUSH1 0x1F DUP4 ADD SLT PUSH3 0x2989 JUMPI PUSH3 0x2988 PUSH3 0x2842 JUMP JUMPDEST JUMPDEST DUP2 CALLDATALOAD PUSH3 0x299B DUP5 DUP3 PUSH1 0x20 DUP7 ADD PUSH3 0x2926 JUMP JUMPDEST SWAP2 POP POP SWAP3 SWAP2 POP POP JUMP JUMPDEST PUSH1 0x0 DUP1 PUSH1 0x40 DUP4 DUP6 SUB SLT ISZERO PUSH3 0x29BE JUMPI PUSH3 0x29BD PUSH3 0x2767 JUMP JUMPDEST JUMPDEST PUSH1 0x0 DUP4 ADD CALLDATALOAD PUSH8 0xFFFFFFFFFFFFFFFF DUP2 GT ISZERO PUSH3 0x29DF JUMPI PUSH3 0x29DE PUSH3 0x276C JUMP JUMPDEST JUMPDEST PUSH3 0x29ED DUP6 DUP3 DUP7 ADD PUSH3 0x2971 JUMP JUMPDEST SWAP3 POP POP PUSH1 0x20 DUP4 ADD CALLDATALOAD PUSH8 0xFFFFFFFFFFFFFFFF DUP2 GT ISZERO PUSH3 0x2A11 JUMPI PUSH3 0x2A10 PUSH3 0x276C JUMP JUMPDEST JUMPDEST PUSH3 0x2A1F DUP6 DUP3 DUP7 ADD PUSH3 0x2971 JUMP JUMPDEST SWAP2 POP POP SWAP3 POP SWAP3 SWAP1 POP JUMP JUMPDEST PUSH1 0x0 DUP2 MLOAD SWAP1 POP SWAP2 SWAP1 POP JUMP JUMPDEST PUSH1 0x0 DUP3 DUP3 MSTORE PUSH1 0x20 DUP3 ADD SWAP1 POP SWAP3 SWAP2 POP POP JUMP JUMPDEST PUSH1 0x0 JUMPDEST DUP4 DUP2 LT ISZERO PUSH3 0x2A65 JUMPI DUP1 DUP3 ADD MLOAD DUP2 DUP5 ADD MSTORE PUSH1 0x20 DUP2 ADD SWAP1 POP PUSH3 0x2A48 JUMP JUMPDEST PUSH1 0x0 DUP5 DUP5 ADD MSTORE POP POP POP POP JUMP JUMPDEST PUSH1 0x0 PUSH3 0x2A7E DUP3 PUSH3 0x2A29 JUMP JUMPDEST PUSH3 0x2A8A DUP2 DUP6 PUSH3 0x2A34 JUMP JUMPDEST SWAP4 POP PUSH3 0x2A9C DUP2 DUP6 PUSH1 0x20 DUP7 ADD PUSH3 0x2A45 JUMP JUMPDEST PUSH3 0x2AA7 DUP2 PUSH3 0x284C JUMP JUMPDEST DUP5 ADD SWAP2 POP POP SWAP3 SWAP2 POP POP JUMP JUMPDEST PUSH1 0x0 PUSH1 0x20 DUP3 ADD SWAP1 POP DUP2 DUP2 SUB PUSH1 0x0 DUP4 ADD MSTORE PUSH3 0x2ACE DUP2 DUP5 PUSH3 0x2A71 JUMP JUMPDEST SWAP1 POP SWAP3 SWAP2 POP POP JUMP JUMPDEST PUSH1 0x0 DUP2 SWAP1 POP SWAP2 SWAP1 POP JUMP JUMPDEST PUSH3 0x2AEB DUP2 PUSH3 0x2AD6 JUMP JUMPDEST DUP2 EQ PUSH3 0x2AF7 JUMPI PUSH1 0x0 DUP1 REVERT JUMPDEST POP JUMP JUMPDEST PUSH1 0x0 DUP2 CALLDATALOAD SWAP1 POP PUSH3 0x2B0B DUP2 PUSH3 0x2AE0 JUMP JUMPDEST SWAP3 SWAP2 POP POP JUMP JUMPDEST PUSH1 0x0 PUSH1 0x20 DUP3 DUP5 SUB SLT ISZERO PUSH3 0x2B2A JUMPI PUSH3 0x2B29 PUSH3 0x2767 JUMP JUMPDEST JUMPDEST PUSH1 0x0 PUSH3 0x2B3A DUP5 DUP3 DUP6 ADD PUSH3 0x2AFA JUMP JUMPDEST SWAP2 POP POP SWAP3 SWAP2 POP POP JUMP JUMPDEST PUSH1 0x0 DUP2 SWAP1 POP SWAP2 SWAP1 POP JUMP JUMPDEST PUSH1 0x0 PUSH3 0x2B6E PUSH3 0x2B68 PUSH3 0x2B62 DUP5 PUSH3 0x2771 JUMP JUMPDEST PUSH3 0x2B43 JUMP JUMPDEST PUSH3 0x2771 JUMP JUMPDEST SWAP1 POP SWAP2 SWAP1 POP JUMP JUMPDEST PUSH1 0x0 PUSH3 0x2B82 DUP3 PUSH3 0x2B4D JUMP JUMPDEST SWAP1 POP SWAP2 SWAP1 POP JUMP JUMPDEST PUSH1 0x0 PUSH3 0x2B96 DUP3 PUSH3 0x2B75 JUMP JUMPDEST SWAP1 POP SWAP2 SWAP1 POP JUMP JUMPDEST PUSH3 0x2BA8 DUP2 PUSH3 0x2B89 JUMP JUMPDEST DUP3 MSTORE POP POP JUMP JUMPDEST PUSH1 0x0 PUSH1 0x20 DUP3 ADD SWAP1 POP PUSH3 0x2BC5 PUSH1 0x0 DUP4 ADD DUP5 PUSH3 0x2B9D JUMP JUMPDEST SWAP3 SWAP2 POP POP JUMP JUMPDEST PUSH3 0x2BD6 DUP2 PUSH3 0x2791 JUMP JUMPDEST DUP3 MSTORE POP POP JUMP JUMPDEST PUSH3 0x2BE7 DUP2 PUSH3 0x2AD6 JUMP JUMPDEST DUP3 MSTORE POP POP JUMP JUMPDEST PUSH1 0x0 PUSH1 0xC0 DUP3 ADD SWAP1 POP PUSH3 0x2C04 PUSH1 0x0 DUP4 ADD DUP10 PUSH3 0x2BCB JUMP JUMPDEST PUSH3 0x2C13 PUSH1 0x20 DUP4 ADD DUP9 PUSH3 0x2BDC JUMP JUMPDEST PUSH3 0x2C22 PUSH1 0x40 DUP4 ADD DUP8 PUSH3 0x2BDC JUMP JUMPDEST PUSH3 0x2C31 PUSH1 0x60 DUP4 ADD DUP7 PUSH3 0x2BDC JUMP JUMPDEST DUP2 DUP2 SUB PUSH1 0x80 DUP4 ADD MSTORE PUSH3 0x2C45 DUP2 DUP6 PUSH3 0x2A71 JUMP JUMPDEST SWAP1 POP PUSH3 0x2C56 PUSH1 0xA0 DUP4 ADD DUP5 PUSH3 0x2BDC JUMP JUMPDEST SWAP8 SWAP7 POP POP POP POP POP POP POP JUMP JUMPDEST PUSH1 0x0 DUP1 PUSH1 0x40 DUP4 DUP6 SUB SLT ISZERO PUSH3 0x2C7B JUMPI PUSH3 0x2C7A PUSH3 0x2767 JUMP JUMPDEST JUMPDEST PUSH1 0x0 PUSH3 0x2C8B DUP6 DUP3 DUP7 ADD PUSH3 0x27BF JUMP JUMPDEST SWAP3 POP POP PUSH1 0x20 PUSH3 0x2C9E DUP6 DUP3 DUP7 ADD PUSH3 0x2AFA JUMP JUMPDEST SWAP2 POP POP SWAP3 POP SWAP3 SWAP1 POP JUMP JUMPDEST PUSH1 0x0 PUSH1 0x20 DUP3 ADD SWAP1 POP PUSH3 0x2CBF PUSH1 0x0 DUP4 ADD DUP5 PUSH3 0x2BCB JUMP JUMPDEST SWAP3 SWAP2 POP POP JUMP JUMPDEST PUSH1 0x0 PUSH1 0x20 DUP3 ADD SWAP1 POP PUSH3 0x2CDC PUSH1 0x0 DUP4 ADD DUP5 PUSH3 0x2BDC JUMP JUMPDEST SWAP3 SWAP2 POP POP JUMP JUMPDEST PUSH3 0x2CED DUP2 PUSH3 0x2808 JUMP JUMPDEST DUP2 EQ PUSH3 0x2CF9 JUMPI PUSH1 0x0 DUP1 REVERT JUMPDEST POP JUMP JUMPDEST PUSH1 0x0 DUP2 CALLDATALOAD SWAP1 POP PUSH3 0x2D0D DUP2 PUSH3 0x2CE2 JUMP JUMPDEST SWAP3 SWAP2 POP POP JUMP JUMPDEST PUSH1 0x0 DUP1 PUSH1 0x40 DUP4 DUP6 SUB SLT ISZERO PUSH3 0x2D2D JUMPI PUSH3 0x2D2C PUSH3 0x2767 JUMP JUMPDEST JUMPDEST PUSH1 0x0 PUSH3 0x2D3D DUP6 DUP3 DUP7 ADD PUSH3 0x27BF JUMP JUMPDEST SWAP3 POP POP PUSH1 0x20 PUSH3 0x2D50 DUP6 DUP3 DUP7 ADD PUSH3 0x2CFC JUMP JUMPDEST SWAP2 POP POP SWAP3 POP SWAP3 SWAP1 POP JUMP JUMPDEST PUSH1 0x0 DUP2 MLOAD SWAP1 POP SWAP2 SWAP1 POP JUMP JUMPDEST PUSH1 0x0 DUP3 DUP3 MSTORE PUSH1 0x20 DUP3 ADD SWAP1 POP SWAP3 SWAP2 POP POP JUMP JUMPDEST PUSH1 0x0 DUP2 SWAP1 POP PUSH1 0x20 DUP3 ADD SWAP1 POP SWAP2 SWAP1 POP JUMP JUMPDEST PUSH1 0x0 DUP3 DUP3 MSTORE PUSH1 0x20 DUP3 ADD SWAP1 POP SWAP3 SWAP2 POP POP JUMP JUMPDEST PUSH1 0x0 PUSH3 0x2DA4 DUP3 PUSH3 0x2A29 JUMP JUMPDEST PUSH3 0x2DB0 DUP2 DUP6 PUSH3 0x2D86 JUMP JUMPDEST SWAP4 POP PUSH3 0x2DC2 DUP2 DUP6 PUSH1 0x20 DUP7 ADD PUSH3 0x2A45 JUMP JUMPDEST PUSH3 0x2DCD DUP2 PUSH3 0x284C JUMP JUMPDEST DUP5 ADD SWAP2 POP POP SWAP3 SWAP2 POP POP JUMP JUMPDEST PUSH1 0x0 PUSH3 0x2DE6 DUP4 DUP4 PUSH3 0x2D97 JUMP JUMPDEST SWAP1 POP SWAP3 SWAP2 POP POP JUMP JUMPDEST PUSH1 0x0 PUSH1 0x20 DUP3 ADD SWAP1 POP SWAP2 SWAP1 POP JUMP JUMPDEST PUSH1 0x0 PUSH3 0x2E08 DUP3 PUSH3 0x2D5A JUMP JUMPDEST PUSH3 0x2E14 DUP2 DUP6 PUSH3 0x2D65 JUMP JUMPDEST SWAP4 POP DUP4 PUSH1 0x20 DUP3 MUL DUP6 ADD PUSH3 0x2E28 DUP6 PUSH3 0x2D76 JUMP JUMPDEST DUP1 PUSH1 0x0 JUMPDEST DUP6 DUP2 LT ISZERO PUSH3 0x2E6A JUMPI DUP5 DUP5 SUB DUP10 MSTORE DUP2 MLOAD PUSH3 0x2E48 DUP6 DUP3 PUSH3 0x2DD8 JUMP JUMPDEST SWAP5 POP PUSH3 0x2E55 DUP4 PUSH3 0x2DEE JUMP JUMPDEST SWAP3 POP PUSH1 0x20 DUP11 ADD SWAP10 POP POP PUSH1 0x1 DUP2 ADD SWAP1 POP PUSH3 0x2E2C JUMP JUMPDEST POP DUP3 SWAP8 POP DUP8 SWAP6 POP POP POP POP POP POP SWAP3 SWAP2 POP POP JUMP JUMPDEST PUSH1 0x0 DUP2 MLOAD SWAP1 POP SWAP2 SWAP1 POP JUMP JUMPDEST PUSH1 0x0 DUP3 DUP3 MSTORE PUSH1 0x20 DUP3 ADD SWAP1 POP SWAP3 SWAP2 POP POP JUMP JUMPDEST PUSH1 0x0 DUP2 SWAP1 POP PUSH1 0x20 DUP3 ADD SWAP1 POP SWAP2 SWAP1 POP JUMP JUMPDEST PUSH3 0x2EB3 DUP2 PUSH3 0x2791 JUMP JUMPDEST DUP3 MSTORE POP POP JUMP JUMPDEST PUSH1 0x0 PUSH3 0x2EC7 DUP4 DUP4 PUSH3 0x2EA8 JUMP JUMPDEST PUSH1 0x20 DUP4 ADD SWAP1 POP SWAP3 SWAP2 POP POP JUMP JUMPDEST PUSH1 0x0 PUSH1 0x20 DUP3 ADD SWAP1 POP SWAP2 SWAP1 POP JUMP JUMPDEST PUSH1 0x0 PUSH3 0x2EED DUP3 PUSH3 0x2E7C JUMP JUMPDEST PUSH3 0x2EF9 DUP2 DUP6 PUSH3 0x2E87 JUMP JUMPDEST SWAP4 POP PUSH3 0x2F06 DUP4 PUSH3 0x2E98 JUMP JUMPDEST DUP1 PUSH1 0x0 JUMPDEST DUP4 DUP2 LT ISZERO PUSH3 0x2F3D JUMPI DUP2 MLOAD PUSH3 0x2F21 DUP9 DUP3 PUSH3 0x2EB9 JUMP JUMPDEST SWAP8 POP PUSH3 0x2F2E DUP4 PUSH3 0x2ED3 JUMP JUMPDEST SWAP3 POP POP PUSH1 0x1 DUP2 ADD SWAP1 POP PUSH3 0x2F0A JUMP JUMPDEST POP DUP6 SWAP4 POP POP POP POP SWAP3 SWAP2 POP POP JUMP JUMPDEST PUSH1 0x0 PUSH1 0x80 DUP3 ADD SWAP1 POP DUP2 DUP2 SUB PUSH1 0x0 DUP4 ADD MSTORE PUSH3 0x2F66 DUP2 DUP8 PUSH3 0x2DFB JUMP JUMPDEST SWAP1 POP DUP2 DUP2 SUB PUSH1 0x20 DUP4 ADD MSTORE PUSH3 0x2F7C DUP2 DUP7 PUSH3 0x2DFB JUMP JUMPDEST SWAP1 POP DUP2 DUP2 SUB PUSH1 0x40 DUP4 ADD MSTORE PUSH3 0x2F92 DUP2 DUP6 PUSH3 0x2DFB JUMP JUMPDEST SWAP1 POP DUP2 DUP2 SUB PUSH1 0x60 DUP4 ADD MSTORE PUSH3 0x2FA8 DUP2 DUP5 PUSH3 0x2EE0 JUMP JUMPDEST SWAP1 POP SWAP6 SWAP5 POP POP POP POP POP JUMP JUMPDEST PUSH32 0x4E487B7100000000000000000000000000000000000000000000000000000000 PUSH1 0x0 MSTORE PUSH1 0x32 PUSH1 0x4 MSTORE PUSH1 0x24 PUSH1 0x0 REVERT JUMPDEST PUSH1 0x0 DUP2 MLOAD SWAP1 POP PUSH3 0x2FF3 DUP2 PUSH3 0x2CE2 JUMP JUMPDEST SWAP3 SWAP2 POP POP JUMP JUMPDEST PUSH1 0x0 PUSH1 0x20 DUP3 DUP5 SUB SLT ISZERO PUSH3 0x3012 JUMPI PUSH3 0x3011 PUSH3 0x2767 JUMP JUMPDEST JUMPDEST PUSH1 0x0 PUSH3 0x3022 DUP5 DUP3 DUP6 ADD PUSH3 0x2FE2 JUMP JUMPDEST SWAP2 POP POP SWAP3 SWAP2 POP POP JUMP JUMPDEST PUSH32 0x4E487B7100000000000000000000000000000000000000000000000000000000 PUSH1 0x0 MSTORE PUSH1 0x22 PUSH1 0x4 MSTORE PUSH1 0x24 PUSH1 0x0 REVERT JUMPDEST PUSH1 0x0 PUSH1 0x2 DUP3 DIV SWAP1 POP PUSH1 0x1 DUP3 AND DUP1 PUSH3 0x3073 JUMPI PUSH1 0x7F DUP3 AND SWAP2 POP JUMPDEST PUSH1 0x20 DUP3 LT DUP2 SUB PUSH3 0x3089 JUMPI PUSH3 0x3088 PUSH3 0x302B JUMP JUMPDEST JUMPDEST POP SWAP2 SWAP1 POP JUMP JUMPDEST PUSH1 0x0 DUP2 SWAP1 POP DUP2 PUSH1 0x0 MSTORE PUSH1 0x20 PUSH1 0x0 KECCAK256 SWAP1 POP SWAP2 SWAP1 POP JUMP JUMPDEST PUSH1 0x0 DUP2 SLOAD PUSH3 0x30B3 DUP2 PUSH3 0x305A JUMP JUMPDEST PUSH3 0x30BF DUP2 DUP7 PUSH3 0x2A34 JUMP JUMPDEST SWAP5 POP PUSH1 0x1 DUP3 AND PUSH1 0x0 DUP2 EQ PUSH3 0x30DD JUMPI PUSH1 0x1 DUP2 EQ PUSH3 0x30F4 JUMPI PUSH3 0x312B JUMP JUMPDEST PUSH1 0xFF NOT DUP4 AND DUP7 MSTORE DUP2 ISZERO ISZERO PUSH1 0x20 MUL DUP7 ADD SWAP4 POP PUSH3 0x312B JUMP JUMPDEST PUSH3 0x30FF DUP6 PUSH3 0x308F JUMP JUMPDEST PUSH1 0x0 JUMPDEST DUP4 DUP2 LT ISZERO PUSH3 0x3123 JUMPI DUP2 SLOAD DUP2 DUP10 ADD MSTORE PUSH1 0x1 DUP3 ADD SWAP2 POP PUSH1 0x20 DUP2 ADD SWAP1 POP PUSH3 0x3102 JUMP JUMPDEST DUP1 DUP9 ADD SWAP6 POP POP POP JUMPDEST POP POP POP SWAP3 SWAP2 POP POP JUMP JUMPDEST PUSH1 0x0 PUSH1 0x80 DUP3 ADD SWAP1 POP PUSH3 0x314B PUSH1 0x0 DUP4 ADD DUP8 PUSH3 0x2BCB JUMP JUMPDEST DUP2 DUP2 SUB PUSH1 0x20 DUP4 ADD MSTORE PUSH3 0x315F DUP2 DUP7 PUSH3 0x2A71 JUMP JUMPDEST SWAP1 POP DUP2 DUP2 SUB PUSH1 0x40 DUP4 ADD MSTORE PUSH3 0x3175 DUP2 DUP6 PUSH3 0x2A71 JUMP JUMPDEST SWAP1 POP DUP2 DUP2 SUB PUSH1 0x60 DUP4 ADD MSTORE PUSH3 0x318B DUP2 DUP5 PUSH3 0x30A4 JUMP JUMPDEST SWAP1 POP SWAP6 SWAP5 POP POP POP POP POP JUMP JUMPDEST PUSH32 0x4E487B7100000000000000000000000000000000000000000000000000000000 PUSH1 0x0 MSTORE PUSH1 0x11 PUSH1 0x4 MSTORE PUSH1 0x24 PUSH1 0x0 REVERT JUMPDEST PUSH1 0x0 PUSH3 0x31D2 DUP3 PUSH3 0x2AD6 JUMP JUMPDEST SWAP2 POP PUSH3 0x31DF DUP4 PUSH3 0x2AD6 JUMP JUMPDEST SWAP3 POP DUP3 DUP3 SUB SWAP1 POP DUP2 DUP2 GT ISZERO PUSH3 0x31FA JUMPI PUSH3 0x31F9 PUSH3 0x3196 JUMP JUMPDEST JUMPDEST SWAP3 SWAP2 POP POP JUMP JUMPDEST PUSH1 0x0 PUSH3 0x3217 PUSH3 0x3211 DUP5 PUSH3 0x28E1 JUMP JUMPDEST PUSH3 0x28C2 JUMP JUMPDEST SWAP1 POP DUP3 DUP2 MSTORE PUSH1 0x20 DUP2 ADD DUP5 DUP5 DUP5 ADD GT ISZERO PUSH3 0x3236 JUMPI PUSH3 0x3235 PUSH3 0x2847 JUMP JUMPDEST JUMPDEST PUSH3 0x3243 DUP5 DUP3 DUP6 PUSH3 0x2A45 JUMP JUMPDEST POP SWAP4 SWAP3 POP POP POP JUMP JUMPDEST PUSH1 0x0 DUP3 PUSH1 0x1F DUP4 ADD SLT PUSH3 0x3263 JUMPI PUSH3 0x3262 PUSH3 0x2842 JUMP JUMPDEST JUMPDEST DUP2 MLOAD PUSH3 0x3275 DUP5 DUP3 PUSH1 0x20 DUP7 ADD PUSH3 0x3200 JUMP JUMPDEST SWAP2 POP POP SWAP3 SWAP2 POP POP JUMP JUMPDEST PUSH1 0x0 PUSH1 0x20 DUP3 DUP5 SUB SLT ISZERO PUSH3 0x3297 JUMPI PUSH3 0x3296 PUSH3 0x2767 JUMP JUMPDEST JUMPDEST PUSH1 0x0 DUP3 ADD MLOAD PUSH8 0xFFFFFFFFFFFFFFFF DUP2 GT ISZERO PUSH3 0x32B8 JUMPI PUSH3 0x32B7 PUSH3 0x276C JUMP JUMPDEST JUMPDEST PUSH3 0x32C6 DUP5 DUP3 DUP6 ADD PUSH3 0x324B JUMP JUMPDEST SWAP2 POP POP SWAP3 SWAP2 POP POP JUMP JUMPDEST PUSH1 0x0 DUP2 MLOAD SWAP1 POP PUSH3 0x32E0 DUP2 PUSH3 0x27A5 JUMP JUMPDEST SWAP3 SWAP2 POP POP JUMP JUMPDEST PUSH1 0x0 PUSH1 0x20 DUP3 DUP5 SUB SLT ISZERO PUSH3 0x32FF JUMPI PUSH3 0x32FE PUSH3 0x2767 JUMP JUMPDEST JUMPDEST PUSH1 0x0 PUSH3 0x330F DUP5 DUP3 DUP6 ADD PUSH3 0x32CF JUMP JUMPDEST SWAP2 POP POP SWAP3 SWAP2 POP POP JUMP JUMPDEST PUSH1 0x0 DUP2 MLOAD SWAP1 POP PUSH3 0x3329 DUP2 PUSH3 0x2AE0 JUMP JUMPDEST SWAP3 SWAP2 POP POP JUMP JUMPDEST PUSH1 0x0 PUSH1 0x20 DUP3 DUP5 SUB SLT ISZERO PUSH3 0x3348 JUMPI PUSH3 0x3347 PUSH3 0x2767 JUMP JUMPDEST JUMPDEST PUSH1 0x0 PUSH3 0x3358 DUP5 DUP3 DUP6 ADD PUSH3 0x3318 JUMP JUMPDEST SWAP2 POP POP SWAP3 SWAP2 POP POP JUMP JUMPDEST PUSH1 0x0 PUSH1 0x40 DUP3 ADD SWAP1 POP PUSH3 0x3378 PUSH1 0x0 DUP4 ADD DUP6 PUSH3 0x2BCB JUMP JUMPDEST PUSH3 0x3387 PUSH1 0x20 DUP4 ADD DUP5 PUSH3 0x2BDC JUMP JUMPDEST SWAP4 SWAP3 POP POP POP JUMP JUMPDEST PUSH1 0x0 PUSH1 0x40 DUP3 ADD SWAP1 POP PUSH3 0x33A5 PUSH1 0x0 DUP4 ADD DUP6 PUSH3 0x2BCB JUMP JUMPDEST PUSH3 0x33B4 PUSH1 0x20 DUP4 ADD DUP5 PUSH3 0x2814 JUMP JUMPDEST SWAP4 SWAP3 POP POP POP JUMP JUMPDEST PUSH1 0x0 PUSH3 0x33C8 DUP3 PUSH3 0x2AD6 JUMP JUMPDEST SWAP2 POP PUSH32 0xFFFFFFFFFFFFFFFFFFFFFFFFFFFFFFFFFFFFFFFFFFFFFFFFFFFFFFFFFFFFFFFF DUP3 SUB PUSH3 0x33FD JUMPI PUSH3 0x33FC PUSH3 0x3196 JUMP JUMPDEST JUMPDEST PUSH1 0x1 DUP3 ADD SWAP1 POP SWAP2 SWAP1 POP JUMP JUMPDEST PUSH1 0x0 PUSH1 0x40 DUP3 ADD SWAP1 POP PUSH3 0x341F PUSH1 0x0 DUP4 ADD DUP6 PUSH3 0x2BDC JUMP JUMPDEST PUSH3 0x342E PUSH1 0x20 DUP4 ADD DUP5 PUSH3 0x2BDC JUMP JUMPDEST SWAP4 SWAP3 POP POP POP JUMP JUMPDEST PUSH1 0x0 PUSH8 0xFFFFFFFFFFFFFFFF DUP3 AND SWAP1 POP SWAP2 SWAP1 POP JUMP JUMPDEST PUSH3 0x3454 DUP2 PUSH3 0x3435 JUMP JUMPDEST DUP3 MSTORE POP POP JUMP JUMPDEST PUSH1 0x0 DUP2 MLOAD SWAP1 POP SWAP2 SWAP1 POP JUMP JUMPDEST PUSH1 0x0 DUP3 DUP3 MSTORE PUSH1 0x20 DUP3 ADD SWAP1 POP SWAP3 SWAP2 POP POP JUMP JUMPDEST PUSH1 0x0 PUSH3 0x3483 DUP3 PUSH3 0x345A JUMP JUMPDEST PUSH3 0x348F DUP2 DUP6 PUSH3 0x3465 JUMP JUMPDEST SWAP4 POP PUSH3 0x34A1 DUP2 DUP6 PUSH1 0x20 DUP7 ADD PUSH3 0x2A45 JUMP JUMPDEST PUSH3 0x34AC DUP2 PUSH3 0x284C JUMP JUMPDEST DUP5 ADD SWAP2 POP POP SWAP3 SWAP2 POP POP JUMP JUMPDEST PUSH1 0x0 PUSH3 0x34D8 PUSH3 0x34D2 PUSH3 0x34CC DUP5 PUSH3 0x3435 JUMP JUMPDEST PUSH3 0x2B43 JUMP JUMPDEST PUSH3 0x3435 JUMP JUMPDEST SWAP1 POP SWAP2 SWAP1 POP JUMP JUMPDEST PUSH3 0x34EA DUP2 PUSH3 0x34B7 JUMP JUMPDEST DUP3 MSTORE POP POP JUMP JUMPDEST PUSH1 0x0 PUSH1 0xC0 DUP3 ADD SWAP1 POP PUSH3 0x3507 PUSH1 0x0 DUP4 ADD DUP10 PUSH3 0x3449 JUMP JUMPDEST PUSH3 0x3516 PUSH1 0x20 DUP4 ADD DUP9 PUSH3 0x2BDC JUMP JUMPDEST PUSH3 0x3525 PUSH1 0x40 DUP4 ADD DUP8 PUSH3 0x3449 JUMP JUMPDEST PUSH3 0x3534 PUSH1 0x60 DUP4 ADD DUP7 PUSH3 0x3449 JUMP JUMPDEST DUP2 DUP2 SUB PUSH1 0x80 DUP4 ADD MSTORE PUSH3 0x3548 DUP2 DUP6 PUSH3 0x3476 JUMP JUMPDEST SWAP1 POP PUSH3 0x3559 PUSH1 0xA0 DUP4 ADD DUP5 PUSH3 0x34DF JUMP JUMPDEST SWAP8 SWAP7 POP POP POP POP POP POP POP JUMP JUMPDEST PUSH1 0x0 DUP2 SWAP1 POP SWAP3 SWAP2 POP POP JUMP JUMPDEST PUSH1 0x0 PUSH3 0x357C DUP3 PUSH3 0x345A JUMP JUMPDEST PUSH3 0x3588 DUP2 DUP6 PUSH3 0x3564 JUMP JUMPDEST SWAP4 POP PUSH3 0x359A DUP2 DUP6 PUSH1 0x20 DUP7 ADD PUSH3 0x2A45 JUMP JUMPDEST DUP1 DUP5 ADD SWAP2 POP POP SWAP3 SWAP2 POP POP JUMP JUMPDEST PUSH1 0x0 PUSH3 0x35B4 DUP3 DUP5 PUSH3 0x356F JUMP JUMPDEST SWAP2 POP DUP2 SWAP1 POP SWAP3 SWAP2 POP POP JUMP JUMPDEST PUSH32 0x496E76616C69642043424F520000000000000000000000000000000000000000 PUSH1 0x0 DUP3 ADD MSTORE POP JUMP JUMPDEST PUSH1 0x0 PUSH3 0x35F7 PUSH1 0xC DUP4 PUSH3 0x2A34 JUMP JUMPDEST SWAP2 POP PUSH3 0x3604 DUP3 PUSH3 0x35BF JUMP JUMPDEST PUSH1 0x20 DUP3 ADD SWAP1 POP SWAP2 SWAP1 POP JUMP JUMPDEST PUSH1 0x0 PUSH1 0x20 DUP3 ADD SWAP1 POP DUP2 DUP2 SUB PUSH1 0x0 DUP4 ADD MSTORE PUSH3 0x362A DUP2 PUSH3 0x35E8 JUMP JUMPDEST SWAP1 POP SWAP2 SWAP1 POP JUMP JUMPDEST PUSH1 0x0 DUP2 SWAP1 POP SWAP2 SWAP1 POP JUMP JUMPDEST PUSH3 0x3646 DUP2 PUSH3 0x3631 JUMP JUMPDEST DUP2 EQ PUSH3 0x3652 JUMPI PUSH1 0x0 DUP1 REVERT JUMPDEST POP JUMP JUMPDEST PUSH1 0x0 DUP2 MLOAD SWAP1 POP PUSH3 0x3666 DUP2 PUSH3 0x363B JUMP JUMPDEST SWAP3 SWAP2 POP POP JUMP JUMPDEST PUSH3 0x3677 DUP2 PUSH3 0x3435 JUMP JUMPDEST DUP2 EQ PUSH3 0x3683 JUMPI PUSH1 0x0 DUP1 REVERT JUMPDEST POP JUMP JUMPDEST PUSH1 0x0 DUP2 MLOAD SWAP1 POP PUSH3 0x3697 DUP2 PUSH3 0x366C JUMP JUMPDEST SWAP3 SWAP2 POP POP JUMP JUMPDEST PUSH1 0x0 PUSH8 0xFFFFFFFFFFFFFFFF DUP3 GT ISZERO PUSH3 0x36BB JUMPI PUSH3 0x36BA PUSH3 0x285D JUMP JUMPDEST JUMPDEST PUSH3 0x36C6 DUP3 PUSH3 0x284C JUMP JUMPDEST SWAP1 POP PUSH1 0x20 DUP2 ADD SWAP1 POP SWAP2 SWAP1 POP JUMP JUMPDEST PUSH1 0x0 PUSH3 0x36EA PUSH3 0x36E4 DUP5 PUSH3 0x369D JUMP JUMPDEST PUSH3 0x28C2 JUMP JUMPDEST SWAP1 POP DUP3 DUP2 MSTORE PUSH1 0x20 DUP2 ADD DUP5 DUP5 DUP5 ADD GT ISZERO PUSH3 0x3709 JUMPI PUSH3 0x3708 PUSH3 0x2847 JUMP JUMPDEST JUMPDEST PUSH3 0x3716 DUP5 DUP3 DUP6 PUSH3 0x2A45 JUMP JUMPDEST POP SWAP4 SWAP3 POP POP POP JUMP JUMPDEST PUSH1 0x0 DUP3 PUSH1 0x1F DUP4 ADD SLT PUSH3 0x3736 JUMPI PUSH3 0x3735 PUSH3 0x2842 JUMP JUMPDEST JUMPDEST DUP2 MLOAD PUSH3 0x3748 DUP5 DUP3 PUSH1 0x20 DUP7 ADD PUSH3 0x36D3 JUMP JUMPDEST SWAP2 POP POP SWAP3 SWAP2 POP POP JUMP JUMPDEST PUSH1 0x0 DUP1 PUSH1 0x0 PUSH1 0x60 DUP5 DUP7 SUB SLT ISZERO PUSH3 0x376D JUMPI PUSH3 0x376C PUSH3 0x2767 JUMP JUMPDEST JUMPDEST PUSH1 0x0 PUSH3 0x377D DUP7 DUP3 DUP8 ADD PUSH3 0x3655 JUMP JUMPDEST SWAP4 POP POP PUSH1 0x20 PUSH3 0x3790 DUP7 DUP3 DUP8 ADD PUSH3 0x3686 JUMP JUMPDEST SWAP3 POP POP PUSH1 0x40 DUP5 ADD MLOAD PUSH8 0xFFFFFFFFFFFFFFFF DUP2 GT ISZERO PUSH3 0x37B4 JUMPI PUSH3 0x37B3 PUSH3 0x276C JUMP JUMPDEST JUMPDEST PUSH3 0x37C2 DUP7 DUP3 DUP8 ADD PUSH3 0x371E JUMP JUMPDEST SWAP2 POP POP SWAP3 POP SWAP3 POP SWAP3 JUMP JUMPDEST PUSH1 0x0 PUSH1 0x20 DUP3 ADD SWAP1 POP PUSH3 0x37E3 PUSH1 0x0 DUP4 ADD DUP5 PUSH3 0x3449 JUMP JUMPDEST SWAP3 SWAP2 POP POP JUMP JUMPDEST PUSH3 0x37F4 DUP2 PUSH3 0x3631 JUMP JUMPDEST DUP3 MSTORE POP POP JUMP JUMPDEST PUSH1 0x0 PUSH1 0x20 DUP3 ADD SWAP1 POP PUSH3 0x3811 PUSH1 0x0 DUP4 ADD DUP5 PUSH3 0x37E9 JUMP JUMPDEST SWAP3 SWAP2 POP POP JUMP JUMPDEST PUSH32 0x696E76616C6964206D616A20286578706563746564204D616A41727261792900 PUSH1 0x0 DUP3 ADD MSTORE POP JUMP JUMPDEST PUSH1 0x0 PUSH3 0x384F PUSH1 0x1F DUP4 PUSH3 0x2A34 JUMP JUMPDEST SWAP2 POP PUSH3 0x385C DUP3 PUSH3 0x3817 JUMP JUMPDEST PUSH1 0x20 DUP3 ADD SWAP1 POP SWAP2 SWAP1 POP JUMP JUMPDEST PUSH1 0x0 PUSH1 0x20 DUP3 ADD SWAP1 POP DUP2 DUP2 SUB PUSH1 0x0 DUP4 ADD MSTORE PUSH3 0x3882 DUP2 PUSH3 0x3840 JUMP JUMPDEST SWAP1 POP SWAP2 SWAP1 POP JUMP JUMPDEST PUSH32 0x696E76616C6964206D616A20286578706563746564204D616A546167206F7220 PUSH1 0x0 DUP3 ADD MSTORE PUSH32 0x4D616A42797465537472696E6729000000000000000000000000000000000000 PUSH1 0x20 DUP3 ADD MSTORE POP JUMP JUMPDEST PUSH1 0x0 PUSH3 0x38E7 PUSH1 0x2E DUP4 PUSH3 0x2A34 JUMP JUMPDEST SWAP2 POP PUSH3 0x38F4 DUP3 PUSH3 0x3889 JUMP JUMPDEST PUSH1 0x40 DUP3 ADD SWAP1 POP SWAP2 SWAP1 POP JUMP JUMPDEST PUSH1 0x0 PUSH1 0x20 DUP3 ADD SWAP1 POP DUP2 DUP2 SUB PUSH1 0x0 DUP4 ADD MSTORE PUSH3 0x391A DUP2 PUSH3 0x38D8 JUMP JUMPDEST SWAP1 POP SWAP2 SWAP1 POP JUMP JUMPDEST PUSH32 0x4E487B7100000000000000000000000000000000000000000000000000000000 PUSH1 0x0 MSTORE PUSH1 0x1 PUSH1 0x4 MSTORE PUSH1 0x24 PUSH1 0x0 REVERT JUMPDEST PUSH1 0x0 PUSH3 0x395D DUP3 PUSH3 0x2AD6 JUMP JUMPDEST SWAP2 POP PUSH3 0x396A DUP4 PUSH3 0x2AD6 JUMP JUMPDEST SWAP3 POP DUP3 DUP3 ADD SWAP1 POP DUP1 DUP3 GT ISZERO PUSH3 0x3985 JUMPI PUSH3 0x3984 PUSH3 0x3196 JUMP JUMPDEST JUMPDEST SWAP3 SWAP2 POP POP JUMP JUMPDEST PUSH32 0x696E76616C6964206D616A20286578706563746564204D616A556E7369676E65 PUSH1 0x0 DUP3 ADD MSTORE PUSH32 0x64496E7429000000000000000000000000000000000000000000000000000000 PUSH1 0x20 DUP3 ADD MSTORE POP JUMP JUMPDEST PUSH1 0x0 PUSH3 0x39E9 PUSH1 0x25 DUP4 PUSH3 0x2A34 JUMP JUMPDEST SWAP2 POP PUSH3 0x39F6 DUP3 PUSH3 0x398B JUMP JUMPDEST PUSH1 0x40 DUP3 ADD SWAP1 POP SWAP2 SWAP1 POP JUMP JUMPDEST PUSH1 0x0 PUSH1 0x20 DUP3 ADD SWAP1 POP DUP2 DUP2 SUB PUSH1 0x0 DUP4 ADD MSTORE PUSH3 0x3A1C DUP2 PUSH3 0x39DA JUMP JUMPDEST SWAP1 POP SWAP2 SWAP1 POP JUMP JUMPDEST PUSH32 0x4E487B7100000000000000000000000000000000000000000000000000000000 PUSH1 0x0 MSTORE PUSH1 0x12 PUSH1 0x4 MSTORE PUSH1 0x24 PUSH1 0x0 REVERT JUMPDEST PUSH1 0x0 PUSH3 0x3A5F DUP3 PUSH3 0x2AD6 JUMP JUMPDEST SWAP2 POP PUSH3 0x3A6C DUP4 PUSH3 0x2AD6 JUMP JUMPDEST SWAP3 POP DUP3 PUSH3 0x3A7F JUMPI PUSH3 0x3A7E PUSH3 0x3A23 JUMP JUMPDEST JUMPDEST DUP3 DUP3 MOD SWAP1 POP SWAP3 SWAP2 POP POP JUMP JUMPDEST PUSH32 0x63616E6E6F742068616E646C6520686561646572732077697468206578747261 PUSH1 0x0 DUP3 ADD MSTORE PUSH32 0x203E203237000000000000000000000000000000000000000000000000000000 PUSH1 0x20 DUP3 ADD MSTORE POP JUMP JUMPDEST PUSH1 0x0 PUSH3 0x3AE8 PUSH1 0x25 DUP4 PUSH3 0x2A34 JUMP JUMPDEST SWAP2 POP PUSH3 0x3AF5 DUP3 PUSH3 0x3A8A JUMP JUMPDEST PUSH1 0x40 DUP3 ADD SWAP1 POP SWAP2 SWAP1 POP JUMP JUMPDEST PUSH1 0x0 PUSH1 0x20 DUP3 ADD SWAP1 POP DUP2 DUP2 SUB PUSH1 0x0 DUP4 ADD MSTORE PUSH3 0x3B1B DUP2 PUSH3 0x3AD9 JUMP JUMPDEST SWAP1 POP SWAP2 SWAP1 POP JUMP JUMPDEST PUSH32 0x696E76616C69642063626F720000000000000000000000000000000000000000 PUSH1 0x0 DUP3 ADD MSTORE POP JUMP JUMPDEST PUSH1 0x0 PUSH3 0x3B5A PUSH1 0xC DUP4 PUSH3 0x2A34 JUMP JUMPDEST SWAP2 POP PUSH3 0x3B67 DUP3 PUSH3 0x3B22 JUMP JUMPDEST PUSH1 0x20 DUP3 ADD SWAP1 POP SWAP2 SWAP1 POP JUMP JUMPDEST PUSH1 0x0 PUSH1 0x20 DUP3 ADD SWAP1 POP DUP2 DUP2 SUB PUSH1 0x0 DUP4 ADD MSTORE PUSH3 0x3B8D DUP2 PUSH3 0x3B4B JUMP JUMPDEST SWAP1 POP SWAP2 SWAP1 POP JUMP JUMPDEST PUSH1 0x0 PUSH3 0x3BA1 DUP3 PUSH3 0x2AD6 JUMP JUMPDEST SWAP2 POP PUSH3 0x3BAE DUP4 PUSH3 0x2AD6 JUMP JUMPDEST SWAP3 POP DUP3 DUP3 MUL PUSH3 0x3BBE DUP2 PUSH3 0x2AD6 JUMP JUMPDEST SWAP2 POP DUP3 DUP3 DIV DUP5 EQ DUP4 ISZERO OR PUSH3 0x3BD8 JUMPI PUSH3 0x3BD7 PUSH3 0x3196 JUMP JUMPDEST JUMPDEST POP SWAP3 SWAP2 POP POP JUMP JUMPDEST PUSH1 0x0 DUP2 PUSH1 0x1 SHR SWAP1 POP SWAP2 SWAP1 POP JUMP JUMPDEST PUSH1 0x0 DUP1 DUP3 SWAP2 POP DUP4 SWAP1 POP JUMPDEST PUSH1 0x1 DUP6 GT ISZERO PUSH3 0x3C3E JUMPI DUP1 DUP7 DIV DUP2 GT ISZERO PUSH3 0x3C16 JUMPI PUSH3 0x3C15 PUSH3 0x3196 JUMP JUMPDEST JUMPDEST PUSH1 0x1 DUP6 AND ISZERO PUSH3 0x3C26 JUMPI DUP1 DUP3 MUL SWAP2 POP JUMPDEST DUP1 DUP2 MUL SWAP1 POP PUSH3 0x3C36 DUP6 PUSH3 0x3BDF JUMP JUMPDEST SWAP5 POP PUSH3 0x3BF6 JUMP JUMPDEST SWAP5 POP SWAP5 SWAP3 POP POP POP JUMP JUMPDEST PUSH1 0x0 DUP3 PUSH3 0x3C59 JUMPI PUSH1 0x1 SWAP1 POP PUSH3 0x3D2C JUMP JUMPDEST DUP2 PUSH3 0x3C69 JUMPI PUSH1 0x0 SWAP1 POP PUSH3 0x3D2C JUMP JUMPDEST DUP2 PUSH1 0x1 DUP2 EQ PUSH3 0x3C82 JUMPI PUSH1 0x2 DUP2 EQ PUSH3 0x3C8D JUMPI PUSH3 0x3CC3 JUMP JUMPDEST PUSH1 0x1 SWAP2 POP POP PUSH3 0x3D2C JUMP JUMPDEST PUSH1 0xFF DUP5 GT ISZERO PUSH3 0x3CA2 JUMPI PUSH3 0x3CA1 PUSH3 0x3196 JUMP JUMPDEST JUMPDEST DUP4 PUSH1 0x2 EXP SWAP2 POP DUP5 DUP3 GT ISZERO PUSH3 0x3CBC JUMPI PUSH3 0x3CBB PUSH3 0x3196 JUMP JUMPDEST JUMPDEST POP PUSH3 0x3D2C JUMP JUMPDEST POP PUSH1 0x20 DUP4 LT PUSH2 0x133 DUP4 LT AND PUSH1 0x4E DUP5 LT PUSH1 0xB DUP5 LT AND OR ISZERO PUSH3 0x3CFD JUMPI DUP3 DUP3 EXP SWAP1 POP DUP4 DUP2 GT ISZERO PUSH3 0x3CF7 JUMPI PUSH3 0x3CF6 PUSH3 0x3196 JUMP JUMPDEST JUMPDEST PUSH3 0x3D2C JUMP JUMPDEST PUSH3 0x3D0C DUP5 DUP5 DUP5 PUSH1 0x1 PUSH3 0x3BEC JUMP JUMPDEST SWAP3 POP SWAP1 POP DUP2 DUP5 DIV DUP2 GT ISZERO PUSH3 0x3D26 JUMPI PUSH3 0x3D25 PUSH3 0x3196 JUMP JUMPDEST JUMPDEST DUP2 DUP2 MUL SWAP1 POP JUMPDEST SWAP4 SWAP3 POP POP POP JUMP JUMPDEST PUSH1 0x0 PUSH3 0x3D40 DUP3 PUSH3 0x2AD6 JUMP JUMPDEST SWAP2 POP PUSH3 0x3D4D DUP4 PUSH3 0x2AD6 JUMP JUMPDEST SWAP3 POP PUSH3 0x3D7C PUSH32 0xFFFFFFFFFFFFFFFFFFFFFFFFFFFFFFFFFFFFFFFFFFFFFFFFFFFFFFFFFFFFFFFF DUP5 DUP5 PUSH3 0x3C47 JUMP JUMPDEST SWAP1 POP SWAP3 SWAP2 POP POP JUMP JUMPDEST PUSH32 0x736C6963696E67206F7574206F662072616E6765000000000000000000000000 PUSH1 0x0 DUP3 ADD MSTORE POP JUMP JUMPDEST PUSH1 0x0 PUSH3 0x3DBC PUSH1 0x14 DUP4 PUSH3 0x2A34 JUMP JUMPDEST SWAP2 POP PUSH3 0x3DC9 DUP3 PUSH3 0x3D84 JUMP JUMPDEST PUSH1 0x20 DUP3 ADD SWAP1 POP SWAP2 SWAP1 POP JUMP JUMPDEST PUSH1 0x0 PUSH1 0x20 DUP3 ADD SWAP1 POP DUP2 DUP2 SUB PUSH1 0x0 DUP4 ADD MSTORE PUSH3 0x3DEF DUP2 PUSH3 0x3DAD JUMP JUMPDEST SWAP1 POP SWAP2 SWAP1 POP JUMP INVALID PUSH1 0x80 PUSH1 0x40 MSTORE CALLVALUE DUP1 ISZERO PUSH3 0x11 JUMPI PUSH1 0x0 DUP1 REVERT JUMPDEST POP PUSH1 0x40 MLOAD PUSH3 0x180A CODESIZE SUB DUP1 PUSH3 0x180A DUP4 CODECOPY DUP2 DUP2 ADD PUSH1 0x40 MSTORE DUP2 ADD SWAP1 PUSH3 0x37 SWAP2 SWAP1 PUSH3 0x2E5 JUMP JUMPDEST DUP4 PUSH1 0x0 DUP1 PUSH2 0x100 EXP DUP2 SLOAD DUP2 PUSH20 0xFFFFFFFFFFFFFFFFFFFFFFFFFFFFFFFFFFFFFFFF MUL NOT AND SWAP1 DUP4 PUSH20 0xFFFFFFFFFFFFFFFFFFFFFFFFFFFFFFFFFFFFFFFF AND MUL OR SWAP1 SSTORE POP DUP3 PUSH1 0x1 SWAP1 DUP2 PUSH3 0x88 SWAP2 SWAP1 PUSH3 0x5FF JUMP JUMPDEST POP DUP2 PUSH1 0x2 SWAP1 DUP2 PUSH3 0x9A SWAP2 SWAP1 PUSH3 0x5FF JUMP JUMPDEST POP PUSH1 0x2 PUSH1 0x3 DUP2 SWAP1 SSTORE POP PUSH1 0x0 PUSH1 0x4 PUSH1 0x0 PUSH2 0x100 EXP DUP2 SLOAD DUP2 PUSH1 0xFF MUL NOT AND SWAP1 DUP4 PUSH1 0x2 DUP2 GT ISZERO PUSH3 0xCC JUMPI PUSH3 0xCB PUSH3 0x6E6 JUMP JUMPDEST JUMPDEST MUL OR SWAP1 SSTORE POP DUP1 PUSH1 0x9 SWAP1 DUP2 PUSH3 0xE2 SWAP2 SWAP1 PUSH3 0x5FF JUMP JUMPDEST POP POP POP POP POP PUSH3 0x715 JUMP JUMPDEST PUSH1 0x0 PUSH1 0x40 MLOAD SWAP1 POP SWAP1 JUMP JUMPDEST PUSH1 0x0 DUP1 REVERT JUMPDEST PUSH1 0x0 DUP1 REVERT JUMPDEST PUSH1 0x0 PUSH20 0xFFFFFFFFFFFFFFFFFFFFFFFFFFFFFFFFFFFFFFFF DUP3 AND SWAP1 POP SWAP2 SWAP1 POP JUMP JUMPDEST PUSH1 0x0 PUSH3 0x12E DUP3 PUSH3 0x101 JUMP JUMPDEST SWAP1 POP SWAP2 SWAP1 POP JUMP JUMPDEST PUSH3 0x140 DUP2 PUSH3 0x121 JUMP JUMPDEST DUP2 EQ PUSH3 0x14C JUMPI PUSH1 0x0 DUP1 REVERT JUMPDEST POP JUMP JUMPDEST PUSH1 0x0 DUP2 MLOAD SWAP1 POP PUSH3 0x160 DUP2 PUSH3 0x135 JUMP JUMPDEST SWAP3 SWAP2 POP POP JUMP JUMPDEST PUSH1 0x0 DUP1 REVERT JUMPDEST PUSH1 0x0 DUP1 REVERT JUMPDEST PUSH1 0x0 PUSH1 0x1F NOT PUSH1 0x1F DUP4 ADD AND SWAP1 POP SWAP2 SWAP1 POP JUMP JUMPDEST PUSH32 0x4E487B7100000000000000000000000000000000000000000000000000000000 PUSH1 0x0 MSTORE PUSH1 0x41 PUSH1 0x4 MSTORE PUSH1 0x24 PUSH1 0x0 REVERT JUMPDEST PUSH3 0x1BB DUP3 PUSH3 0x170 JUMP JUMPDEST DUP2 ADD DUP2 DUP2 LT PUSH8 0xFFFFFFFFFFFFFFFF DUP3 GT OR ISZERO PUSH3 0x1DD JUMPI PUSH3 0x1DC PUSH3 0x181 JUMP JUMPDEST JUMPDEST DUP1 PUSH1 0x40 MSTORE POP POP POP JUMP JUMPDEST PUSH1 0x0 PUSH3 0x1F2 PUSH3 0xED JUMP JUMPDEST SWAP1 POP PUSH3 0x200 DUP3 DUP3 PUSH3 0x1B0 JUMP JUMPDEST SWAP2 SWAP1 POP JUMP JUMPDEST PUSH1 0x0 PUSH8 0xFFFFFFFFFFFFFFFF DUP3 GT ISZERO PUSH3 0x223 JUMPI PUSH3 0x222 PUSH3 0x181 JUMP JUMPDEST JUMPDEST PUSH3 0x22E DUP3 PUSH3 0x170 JUMP JUMPDEST SWAP1 POP PUSH1 0x20 DUP2 ADD SWAP1 POP SWAP2 SWAP1 POP JUMP JUMPDEST PUSH1 0x0 JUMPDEST DUP4 DUP2 LT ISZERO PUSH3 0x25B JUMPI DUP1 DUP3 ADD MLOAD DUP2 DUP5 ADD MSTORE PUSH1 0x20 DUP2 ADD SWAP1 POP PUSH3 0x23E JUMP JUMPDEST PUSH1 0x0 DUP5 DUP5 ADD MSTORE POP POP POP POP JUMP JUMPDEST PUSH1 0x0 PUSH3 0x27E PUSH3 0x278 DUP5 PUSH3 0x205 JUMP JUMPDEST PUSH3 0x1E6 JUMP JUMPDEST SWAP1 POP DUP3 DUP2 MSTORE PUSH1 0x20 DUP2 ADD DUP5 DUP5 DUP5 ADD GT ISZERO PUSH3 0x29D JUMPI PUSH3 0x29C PUSH3 0x16B JUMP JUMPDEST JUMPDEST PUSH3 0x2AA DUP5 DUP3 DUP6 PUSH3 0x23B JUMP JUMPDEST POP SWAP4 SWAP3 POP POP POP JUMP JUMPDEST PUSH1 0x0 DUP3 PUSH1 0x1F DUP4 ADD SLT PUSH3 0x2CA JUMPI PUSH3 0x2C9 PUSH3 0x166 JUMP JUMPDEST JUMPDEST DUP2 MLOAD PUSH3 0x2DC DUP5 DUP3 PUSH1 0x20 DUP7 ADD PUSH3 0x267 JUMP JUMPDEST SWAP2 POP POP SWAP3 SWAP2 POP POP JUMP JUMPDEST PUSH1 0x0 DUP1 PUSH1 0x0 DUP1 PUSH1 0x80 DUP6 DUP8 SUB SLT ISZERO PUSH3 0x302 JUMPI PUSH3 0x301 PUSH3 0xF7 JUMP JUMPDEST JUMPDEST PUSH1 0x0 PUSH3 0x312 DUP8 DUP3 DUP9 ADD PUSH3 0x14F JUMP JUMPDEST SWAP5 POP POP PUSH1 0x20 DUP6 ADD MLOAD PUSH8 0xFFFFFFFFFFFFFFFF DUP2 GT ISZERO PUSH3 0x336 JUMPI PUSH3 0x335 PUSH3 0xFC JUMP JUMPDEST JUMPDEST PUSH3 0x344 DUP8 DUP3 DUP9 ADD PUSH3 0x2B2 JUMP JUMPDEST SWAP4 POP POP PUSH1 0x40 DUP6 ADD MLOAD PUSH8 0xFFFFFFFFFFFFFFFF DUP2 GT ISZERO PUSH3 0x368 JUMPI PUSH3 0x367 PUSH3 0xFC JUMP JUMPDEST JUMPDEST PUSH3 0x376 DUP8 DUP3 DUP9 ADD PUSH3 0x2B2 JUMP JUMPDEST SWAP3 POP POP PUSH1 0x60 DUP6 ADD MLOAD PUSH8 0xFFFFFFFFFFFFFFFF DUP2 GT ISZERO PUSH3 0x39A JUMPI PUSH3 0x399 PUSH3 0xFC JUMP JUMPDEST JUMPDEST PUSH3 0x3A8 DUP8 DUP3 DUP9 ADD PUSH3 0x2B2 JUMP JUMPDEST SWAP2 POP POP SWAP3 SWAP6 SWAP2 SWAP5 POP SWAP3 POP JUMP JUMPDEST PUSH1 0x0 DUP2 MLOAD SWAP1 POP SWAP2 SWAP1 POP JUMP JUMPDEST PUSH32 0x4E487B7100000000000000000000000000000000000000000000000000000000 PUSH1 0x0 MSTORE PUSH1 0x22 PUSH1 0x4 MSTORE PUSH1 0x24 PUSH1 0x0 REVERT JUMPDEST PUSH1 0x0 PUSH1 0x2 DUP3 DIV SWAP1 POP PUSH1 0x1 DUP3 AND DUP1 PUSH3 0x407 JUMPI PUSH1 0x7F DUP3 AND SWAP2 POP JUMPDEST PUSH1 0x20 DUP3 LT DUP2 SUB PUSH3 0x41D JUMPI PUSH3 0x41C PUSH3 0x3BF JUMP JUMPDEST JUMPDEST POP SWAP2 SWAP1 POP JUMP JUMPDEST PUSH1 0x0 DUP2 SWAP1 POP DUP2 PUSH1 0x0 MSTORE PUSH1 0x20 PUSH1 0x0 KECCAK256 SWAP1 POP SWAP2 SWAP1 POP JUMP JUMPDEST PUSH1 0x0 PUSH1 0x20 PUSH1 0x1F DUP4 ADD DIV SWAP1 POP SWAP2 SWAP1 POP JUMP JUMPDEST PUSH1 0x0 DUP3 DUP3 SHL SWAP1 POP SWAP3 SWAP2 POP POP JUMP JUMPDEST PUSH1 0x0 PUSH1 0x8 DUP4 MUL PUSH3 0x487 PUSH32 0xFFFFFFFFFFFFFFFFFFFFFFFFFFFFFFFFFFFFFFFFFFFFFFFFFFFFFFFFFFFFFFFF DUP3 PUSH3 0x448 JUMP JUMPDEST PUSH3 0x493 DUP7 DUP4 PUSH3 0x448 JUMP JUMPDEST SWAP6 POP DUP1 NOT DUP5 AND SWAP4 POP DUP1 DUP7 AND DUP5 OR SWAP3 POP POP POP SWAP4 SWAP3 POP POP POP JUMP JUMPDEST PUSH1 0x0 DUP2 SWAP1 POP SWAP2 SWAP1 POP JUMP JUMPDEST PUSH1 0x0 DUP2 SWAP1 POP SWAP2 SWAP1 POP JUMP JUMPDEST PUSH1 0x0 PUSH3 0x4E0 PUSH3 0x4DA PUSH3 0x4D4 DUP5 PUSH3 0x4AB JUMP JUMPDEST PUSH3 0x4B5 JUMP JUMPDEST PUSH3 0x4AB JUMP JUMPDEST SWAP1 POP SWAP2 SWAP1 POP JUMP JUMPDEST PUSH1 0x0 DUP2 SWAP1 POP SWAP2 SWAP1 POP JUMP JUMPDEST PUSH3 0x4FC DUP4 PUSH3 0x4BF JUMP JUMPDEST PUSH3 0x514 PUSH3 0x50B DUP3 PUSH3 0x4E7 JUMP JUMPDEST DUP5 DUP5 SLOAD PUSH3 0x455 JUMP JUMPDEST DUP3 SSTORE POP POP POP POP JUMP JUMPDEST PUSH1 0x0 SWAP1 JUMP JUMPDEST PUSH3 0x52B PUSH3 0x51C JUMP JUMPDEST PUSH3 0x538 DUP2 DUP5 DUP5 PUSH3 0x4F1 JUMP JUMPDEST POP POP POP JUMP JUMPDEST JUMPDEST DUP2 DUP2 LT ISZERO PUSH3 0x560 JUMPI PUSH3 0x554 PUSH1 0x0 DUP3 PUSH3 0x521 JUMP JUMPDEST PUSH1 0x1 DUP2 ADD SWAP1 POP PUSH3 0x53E JUMP JUMPDEST POP POP JUMP JUMPDEST PUSH1 0x1F DUP3 GT ISZERO PUSH3 0x5AF JUMPI PUSH3 0x579 DUP2 PUSH3 0x423 JUMP JUMPDEST PUSH3 0x584 DUP5 PUSH3 0x438 JUMP JUMPDEST DUP2 ADD PUSH1 0x20 DUP6 LT ISZERO PUSH3 0x594 JUMPI DUP2 SWAP1 POP JUMPDEST PUSH3 0x5AC PUSH3 0x5A3 DUP6 PUSH3 0x438 JUMP JUMPDEST DUP4 ADD DUP3 PUSH3 0x53D JUMP JUMPDEST POP POP JUMPDEST POP POP POP JUMP JUMPDEST PUSH1 0x0 DUP3 DUP3 SHR SWAP1 POP SWAP3 SWAP2 POP POP JUMP JUMPDEST PUSH1 0x0 PUSH3 0x5D4 PUSH1 0x0 NOT DUP5 PUSH1 0x8 MUL PUSH3 0x5B4 JUMP JUMPDEST NOT DUP1 DUP4 AND SWAP2 POP POP SWAP3 SWAP2 POP POP JUMP JUMPDEST PUSH1 0x0 PUSH3 0x5EF DUP4 DUP4 PUSH3 0x5C1 JUMP JUMPDEST SWAP2 POP DUP3 PUSH1 0x2 MUL DUP3 OR SWAP1 POP SWAP3 SWAP2 POP POP JUMP JUMPDEST PUSH3 0x60A DUP3 PUSH3 0x3B4 JUMP JUMPDEST PUSH8 0xFFFFFFFFFFFFFFFF DUP2 GT ISZERO PUSH3 0x626 JUMPI PUSH3 0x625 PUSH3 0x181 JUMP JUMPDEST JUMPDEST PUSH3 0x632 DUP3 SLOAD PUSH3 0x3EE JUMP JUMPDEST PUSH3 0x63F DUP3 DUP3 DUP6 PUSH3 0x564 JUMP JUMPDEST PUSH1 0x0 PUSH1 0x20 SWAP1 POP PUSH1 0x1F DUP4 GT PUSH1 0x1 DUP2 EQ PUSH3 0x677 JUMPI PUSH1 0x0 DUP5 ISZERO PUSH3 0x662 JUMPI DUP3 DUP8 ADD MLOAD SWAP1 POP JUMPDEST PUSH3 0x66E DUP6 DUP3 PUSH3 0x5E1 JUMP JUMPDEST DUP7 SSTORE POP PUSH3 0x6DE JUMP JUMPDEST PUSH1 0x1F NOT DUP5 AND PUSH3 0x687 DUP7 PUSH3 0x423 JUMP JUMPDEST PUSH1 0x0 JUMPDEST DUP3 DUP2 LT ISZERO PUSH3 0x6B1 JUMPI DUP5 DUP10 ADD MLOAD DUP3 SSTORE PUSH1 0x1 DUP3 ADD SWAP2 POP PUSH1 0x20 DUP6 ADD SWAP5 POP PUSH1 0x20 DUP2 ADD SWAP1 POP PUSH3 0x68A JUMP JUMPDEST DUP7 DUP4 LT ISZERO PUSH3 0x6D1 JUMPI DUP5 DUP10 ADD MLOAD PUSH3 0x6CD PUSH1 0x1F DUP10 AND DUP3 PUSH3 0x5C1 JUMP JUMPDEST DUP4 SSTORE POP JUMPDEST PUSH1 0x1 PUSH1 0x2 DUP9 MUL ADD DUP9 SSTORE POP POP POP JUMPDEST POP POP POP POP POP POP JUMP JUMPDEST PUSH32 0x4E487B7100000000000000000000000000000000000000000000000000000000 PUSH1 0x0 MSTORE PUSH1 0x21 PUSH1 0x4 MSTORE PUSH1 0x24 PUSH1 0x0 REVERT JUMPDEST PUSH2 0x10E5 DUP1 PUSH3 0x725 PUSH1 0x0 CODECOPY PUSH1 0x0 RETURN INVALID PUSH1 0x80 PUSH1 0x40 MSTORE CALLVALUE DUP1 ISZERO PUSH2 0x10 JUMPI PUSH1 0x0 DUP1 REVERT JUMPDEST POP PUSH1 0x4 CALLDATASIZE LT PUSH2 0x116 JUMPI PUSH1 0x0 CALLDATALOAD PUSH1 0xE0 SHR DUP1 PUSH4 0x580C5217 GT PUSH2 0xA2 JUMPI DUP1 PUSH4 0x9143462E GT PUSH2 0x71 JUMPI DUP1 PUSH4 0x9143462E EQ PUSH2 0x2D5 JUMPI DUP1 PUSH4 0xA8E4FB90 EQ PUSH2 0x305 JUMPI DUP1 PUSH4 0xBD041C4D EQ PUSH2 0x323 JUMPI DUP1 PUSH4 0xCB8D00A1 EQ PUSH2 0x33F JUMPI DUP1 PUSH4 0xD910B05A EQ PUSH2 0x36F JUMPI PUSH2 0x116 JUMP JUMPDEST DUP1 PUSH4 0x580C5217 EQ PUSH2 0x24D JUMPI DUP1 PUSH4 0x5CAF5896 EQ PUSH2 0x269 JUMPI DUP1 PUSH4 0x7284E416 EQ PUSH2 0x299 JUMPI DUP1 PUSH4 0x72D64170 EQ PUSH2 0x2B7 JUMPI PUSH2 0x116 JUMP JUMPDEST DUP1 PUSH4 0x4A79D50C GT PUSH2 0xE9 JUMPI DUP1 PUSH4 0x4A79D50C EQ PUSH2 0x1B7 JUMPI DUP1 PUSH4 0x4E69D560 EQ PUSH2 0x1D5 JUMPI DUP1 PUSH4 0x4FE437D5 EQ PUSH2 0x1F3 JUMPI DUP1 PUSH4 0x5369CCE5 EQ PUSH2 0x211 JUMPI DUP1 PUSH4 0x57ED4B2F EQ PUSH2 0x22F JUMPI PUSH2 0x116 JUMP JUMPDEST DUP1 PUSH4 0x9EEF43E EQ PUSH2 0x11B JUMPI DUP1 PUSH4 0x200D2ED2 EQ PUSH2 0x14B JUMPI DUP1 PUSH4 0x44B88CFA EQ PUSH2 0x169 JUMPI DUP1 PUSH4 0x4812C7E6 EQ PUSH2 0x187 JUMPI JUMPDEST PUSH1 0x0 DUP1 REVERT JUMPDEST PUSH2 0x135 PUSH1 0x4 DUP1 CALLDATASIZE SUB DUP2 ADD SWAP1 PUSH2 0x130 SWAP2 SWAP1 PUSH2 0xD45 JUMP JUMPDEST PUSH2 0x38D JUMP JUMPDEST PUSH1 0x40 MLOAD PUSH2 0x142 SWAP2 SWAP1 PUSH2 0xD8D JUMP JUMPDEST PUSH1 0x40 MLOAD DUP1 SWAP2 SUB SWAP1 RETURN JUMPDEST PUSH2 0x153 PUSH2 0x437 JUMP JUMPDEST PUSH1 0x40 MLOAD PUSH2 0x160 SWAP2 SWAP1 PUSH2 0xE1F JUMP JUMPDEST PUSH1 0x40 MLOAD DUP1 SWAP2 SUB SWAP1 RETURN JUMPDEST PUSH2 0x171 PUSH2 0x44A JUMP JUMPDEST PUSH1 0x40 MLOAD PUSH2 0x17E SWAP2 SWAP1 PUSH2 0xE53 JUMP JUMPDEST PUSH1 0x40 MLOAD DUP1 SWAP2 SUB SWAP1 RETURN JUMPDEST PUSH2 0x1A1 PUSH1 0x4 DUP1 CALLDATASIZE SUB DUP2 ADD SWAP1 PUSH2 0x19C SWAP2 SWAP1 PUSH2 0xE9A JUMP JUMPDEST PUSH2 0x457 JUMP JUMPDEST PUSH1 0x40 MLOAD PUSH2 0x1AE SWAP2 SWAP1 PUSH2 0xED6 JUMP JUMPDEST PUSH1 0x40 MLOAD DUP1 SWAP2 SUB SWAP1 RETURN JUMPDEST PUSH2 0x1BF PUSH2 0x496 JUMP JUMPDEST PUSH1 0x40 MLOAD PUSH2 0x1CC SWAP2 SWAP1 PUSH2 0xF81 JUMP JUMPDEST PUSH1 0x40 MLOAD DUP1 SWAP2 SUB SWAP1 RETURN JUMPDEST PUSH2 0x1DD PUSH2 0x524 JUMP JUMPDEST PUSH1 0x40 MLOAD PUSH2 0x1EA SWAP2 SWAP1 PUSH2 0xF81 JUMP JUMPDEST PUSH1 0x40 MLOAD DUP1 SWAP2 SUB SWAP1 RETURN JUMPDEST PUSH2 0x1FB PUSH2 0x651 JUMP JUMPDEST PUSH1 0x40 MLOAD PUSH2 0x208 SWAP2 SWAP1 PUSH2 0xE53 JUMP JUMPDEST PUSH1 0x40 MLOAD DUP1 SWAP2 SUB SWAP1 RETURN JUMPDEST PUSH2 0x219 PUSH2 0x657 JUMP JUMPDEST PUSH1 0x40 MLOAD PUSH2 0x226 SWAP2 SWAP1 PUSH2 0xE53 JUMP JUMPDEST PUSH1 0x40 MLOAD DUP1 SWAP2 SUB SWAP1 RETURN JUMPDEST PUSH2 0x237 PUSH2 0x664 JUMP JUMPDEST PUSH1 0x40 MLOAD PUSH2 0x244 SWAP2 SWAP1 PUSH2 0xE53 JUMP JUMPDEST PUSH1 0x40 MLOAD DUP1 SWAP2 SUB SWAP1 RETURN JUMPDEST PUSH2 0x267 PUSH1 0x4 DUP1 CALLDATASIZE SUB DUP2 ADD SWAP1 PUSH2 0x262 SWAP2 SWAP1 PUSH2 0xFA3 JUMP JUMPDEST PUSH2 0x66A JUMP JUMPDEST STOP JUMPDEST PUSH2 0x283 PUSH1 0x4 DUP1 CALLDATASIZE SUB DUP2 ADD SWAP1 PUSH2 0x27E SWAP2 SWAP1 PUSH2 0xD45 JUMP JUMPDEST PUSH2 0x728 JUMP JUMPDEST PUSH1 0x40 MLOAD PUSH2 0x290 SWAP2 SWAP1 PUSH2 0xD8D JUMP JUMPDEST PUSH1 0x40 MLOAD DUP1 SWAP2 SUB SWAP1 RETURN JUMPDEST PUSH2 0x2A1 PUSH2 0x748 JUMP JUMPDEST PUSH1 0x40 MLOAD PUSH2 0x2AE SWAP2 SWAP1 PUSH2 0xF81 JUMP JUMPDEST PUSH1 0x40 MLOAD DUP1 SWAP2 SUB SWAP1 RETURN JUMPDEST PUSH2 0x2BF PUSH2 0x7D6 JUMP JUMPDEST PUSH1 0x40 MLOAD PUSH2 0x2CC SWAP2 SWAP1 PUSH2 0xF81 JUMP JUMPDEST PUSH1 0x40 MLOAD DUP1 SWAP2 SUB SWAP1 RETURN JUMPDEST PUSH2 0x2EF PUSH1 0x4 DUP1 CALLDATASIZE SUB DUP2 ADD SWAP1 PUSH2 0x2EA SWAP2 SWAP1 PUSH2 0xD45 JUMP JUMPDEST PUSH2 0x958 JUMP JUMPDEST PUSH1 0x40 MLOAD PUSH2 0x2FC SWAP2 SWAP1 PUSH2 0xD8D JUMP JUMPDEST PUSH1 0x40 MLOAD DUP1 SWAP2 SUB SWAP1 RETURN JUMPDEST PUSH2 0x30D PUSH2 0x978 JUMP JUMPDEST PUSH1 0x40 MLOAD PUSH2 0x31A SWAP2 SWAP1 PUSH2 0xED6 JUMP JUMPDEST PUSH1 0x40 MLOAD DUP1 SWAP2 SUB SWAP1 RETURN JUMPDEST PUSH2 0x33D PUSH1 0x4 DUP1 CALLDATASIZE SUB DUP2 ADD SWAP1 PUSH2 0x338 SWAP2 SWAP1 PUSH2 0x100F JUMP JUMPDEST PUSH2 0x99C JUMP JUMPDEST STOP JUMPDEST PUSH2 0x359 PUSH1 0x4 DUP1 CALLDATASIZE SUB DUP2 ADD SWAP1 PUSH2 0x354 SWAP2 SWAP1 PUSH2 0xE9A JUMP JUMPDEST PUSH2 0xC90 JUMP JUMPDEST PUSH1 0x40 MLOAD PUSH2 0x366 SWAP2 SWAP1 PUSH2 0xED6 JUMP JUMPDEST PUSH1 0x40 MLOAD DUP1 SWAP2 SUB SWAP1 RETURN JUMPDEST PUSH2 0x377 PUSH2 0xCCF JUMP JUMPDEST PUSH1 0x40 MLOAD PUSH2 0x384 SWAP2 SWAP1 PUSH2 0xD8D JUMP JUMPDEST PUSH1 0x40 MLOAD DUP1 SWAP2 SUB SWAP1 RETURN JUMPDEST PUSH1 0x0 PUSH1 0x6 PUSH1 0x0 DUP4 PUSH20 0xFFFFFFFFFFFFFFFFFFFFFFFFFFFFFFFFFFFFFFFF AND PUSH20 0xFFFFFFFFFFFFFFFFFFFFFFFFFFFFFFFFFFFFFFFF AND DUP2 MSTORE PUSH1 0x20 ADD SWAP1 DUP2 MSTORE PUSH1 0x20 ADD PUSH1 0x0 KECCAK256 PUSH1 0x0 SWAP1 SLOAD SWAP1 PUSH2 0x100 EXP SWAP1 DIV PUSH1 0xFF AND DUP1 PUSH2 0x430 JUMPI POP PUSH1 0x8 PUSH1 0x0 DUP4 PUSH20 0xFFFFFFFFFFFFFFFFFFFFFFFFFFFFFFFFFFFFFFFF AND PUSH20 0xFFFFFFFFFFFFFFFFFFFFFFFFFFFFFFFFFFFFFFFF AND DUP2 MSTORE PUSH1 0x20 ADD SWAP1 DUP2 MSTORE PUSH1 0x20 ADD PUSH1 0x0 KECCAK256 PUSH1 0x0 SWAP1 SLOAD SWAP1 PUSH2 0x100 EXP SWAP1 DIV PUSH1 0xFF AND JUMPDEST SWAP1 POP SWAP2 SWAP1 POP JUMP JUMPDEST PUSH1 0x4 PUSH1 0x0 SWAP1 SLOAD SWAP1 PUSH2 0x100 EXP SWAP1 DIV PUSH1 0xFF AND DUP2 JUMP JUMPDEST PUSH1 0x0 PUSH1 0x7 DUP1 SLOAD SWAP1 POP SWAP1 POP SWAP1 JUMP JUMPDEST PUSH1 0x5 DUP2 DUP2 SLOAD DUP2 LT PUSH2 0x467 JUMPI PUSH1 0x0 DUP1 REVERT JUMPDEST SWAP1 PUSH1 0x0 MSTORE PUSH1 0x20 PUSH1 0x0 KECCAK256 ADD PUSH1 0x0 SWAP2 POP SLOAD SWAP1 PUSH2 0x100 EXP SWAP1 DIV PUSH20 0xFFFFFFFFFFFFFFFFFFFFFFFFFFFFFFFFFFFFFFFF AND DUP2 JUMP JUMPDEST PUSH1 0x1 DUP1 SLOAD PUSH2 0x4A3 SWAP1 PUSH2 0x107E JUMP JUMPDEST DUP1 PUSH1 0x1F ADD PUSH1 0x20 DUP1 SWAP2 DIV MUL PUSH1 0x20 ADD PUSH1 0x40 MLOAD SWAP1 DUP2 ADD PUSH1 0x40 MSTORE DUP1 SWAP3 SWAP2 SWAP1 DUP2 DUP2 MSTORE PUSH1 0x20 ADD DUP3 DUP1 SLOAD PUSH2 0x4CF SWAP1 PUSH2 0x107E JUMP JUMPDEST DUP1 ISZERO PUSH2 0x51C JUMPI DUP1 PUSH1 0x1F LT PUSH2 0x4F1 JUMPI PUSH2 0x100 DUP1 DUP4 SLOAD DIV MUL DUP4 MSTORE SWAP2 PUSH1 0x20 ADD SWAP2 PUSH2 0x51C JUMP JUMPDEST DUP3 ADD SWAP2 SWAP1 PUSH1 0x0 MSTORE PUSH1 0x20 PUSH1 0x0 KECCAK256 SWAP1 JUMPDEST DUP2 SLOAD DUP2 MSTORE SWAP1 PUSH1 0x1 ADD SWAP1 PUSH1 0x20 ADD DUP1 DUP4 GT PUSH2 0x4FF JUMPI DUP3 SWAP1 SUB PUSH1 0x1F AND DUP3 ADD SWAP2 JUMPDEST POP POP POP POP POP DUP2 JUMP JUMPDEST PUSH1 0x60 PUSH1 0x1 PUSH1 0x2 DUP2 GT ISZERO PUSH2 0x53A JUMPI PUSH2 0x539 PUSH2 0xDA8 JUMP JUMPDEST JUMPDEST PUSH1 0x4 PUSH1 0x0 SWAP1 SLOAD SWAP1 PUSH2 0x100 EXP SWAP1 DIV PUSH1 0xFF AND PUSH1 0x2 DUP2 GT ISZERO PUSH2 0x55C JUMPI PUSH2 0x55B PUSH2 0xDA8 JUMP JUMPDEST JUMPDEST SUB PUSH2 0x59E JUMPI PUSH1 0x40 MLOAD DUP1 PUSH1 0x40 ADD PUSH1 0x40 MSTORE DUP1 PUSH1 0x7 DUP2 MSTORE PUSH1 0x20 ADD PUSH32 0x5375636365737300000000000000000000000000000000000000000000000000 DUP2 MSTORE POP SWAP1 POP PUSH2 0x64E JUMP JUMPDEST PUSH1 0x2 DUP1 DUP2 GT ISZERO PUSH2 0x5B1 JUMPI PUSH2 0x5B0 PUSH2 0xDA8 JUMP JUMPDEST JUMPDEST PUSH1 0x4 PUSH1 0x0 SWAP1 SLOAD SWAP1 PUSH2 0x100 EXP SWAP1 DIV PUSH1 0xFF AND PUSH1 0x2 DUP2 GT ISZERO PUSH2 0x5D3 JUMPI PUSH2 0x5D2 PUSH2 0xDA8 JUMP JUMPDEST JUMPDEST SUB PUSH2 0x615 JUMPI PUSH1 0x40 MLOAD DUP1 PUSH1 0x40 ADD PUSH1 0x40 MSTORE DUP1 PUSH1 0x6 DUP2 MSTORE PUSH1 0x20 ADD PUSH32 0x4661696C65640000000000000000000000000000000000000000000000000000 DUP2 MSTORE POP SWAP1 POP PUSH2 0x64E JUMP JUMPDEST PUSH1 0x40 MLOAD DUP1 PUSH1 0x40 ADD PUSH1 0x40 MSTORE DUP1 PUSH1 0x6 DUP2 MSTORE PUSH1 0x20 ADD PUSH32 0x566F74696E670000000000000000000000000000000000000000000000000000 DUP2 MSTORE POP SWAP1 POP JUMPDEST SWAP1 JUMP JUMPDEST PUSH1 0x3 SLOAD DUP2 JUMP JUMPDEST PUSH1 0x0 PUSH1 0x5 DUP1 SLOAD SWAP1 POP SWAP1 POP SWAP1 JUMP JUMPDEST PUSH1 0xB SLOAD DUP2 JUMP JUMPDEST PUSH1 0x1 PUSH1 0x2 DUP2 GT ISZERO PUSH2 0x67E JUMPI PUSH2 0x67D PUSH2 0xDA8 JUMP JUMPDEST JUMPDEST PUSH1 0x4 PUSH1 0x0 SWAP1 SLOAD SWAP1 PUSH2 0x100 EXP SWAP1 DIV PUSH1 0xFF AND PUSH1 0x2 DUP2 GT ISZERO PUSH2 0x6A0 JUMPI PUSH2 0x69F PUSH2 0xDA8 JUMP JUMPDEST JUMPDEST EQ PUSH2 0x6AA JUMPI PUSH1 0x0 DUP1 REVERT JUMPDEST PUSH1 0x0 DUP1 SLOAD SWAP1 PUSH2 0x100 EXP SWAP1 DIV PUSH20 0xFFFFFFFFFFFFFFFFFFFFFFFFFFFFFFFFFFFFFFFF AND PUSH20 0xFFFFFFFFFFFFFFFFFFFFFFFFFFFFFFFFFFFFFFFF AND DUP3 PUSH20 0xFFFFFFFFFFFFFFFFFFFFFFFFFFFFFFFFFFFFFFFF AND EQ PUSH2 0x702 JUMPI PUSH1 0x0 DUP1 REVERT JUMPDEST DUP1 PUSH1 0xB DUP2 SWAP1 SSTORE POP PUSH1 0x1 PUSH1 0xA PUSH1 0x0 PUSH2 0x100 EXP DUP2 SLOAD DUP2 PUSH1 0xFF MUL NOT AND SWAP1 DUP4 ISZERO ISZERO MUL OR SWAP1 SSTORE POP POP POP JUMP JUMPDEST PUSH1 0x8 PUSH1 0x20 MSTORE DUP1 PUSH1 0x0 MSTORE PUSH1 0x40 PUSH1 0x0 KECCAK256 PUSH1 0x0 SWAP2 POP SLOAD SWAP1 PUSH2 0x100 EXP SWAP1 DIV PUSH1 0xFF AND DUP2 JUMP JUMPDEST PUSH1 0x2 DUP1 SLOAD PUSH2 0x755 SWAP1 PUSH2 0x107E JUMP JUMPDEST DUP1 PUSH1 0x1F ADD PUSH1 0x20 DUP1 SWAP2 DIV MUL PUSH1 0x20 ADD PUSH1 0x40 MLOAD SWAP1 DUP2 ADD PUSH1 0x40 MSTORE DUP1 SWAP3 SWAP2 SWAP1 DUP2 DUP2 MSTORE PUSH1 0x20 ADD DUP3 DUP1 SLOAD PUSH2 0x781 SWAP1 PUSH2 0x107E JUMP JUMPDEST DUP1 ISZERO PUSH2 0x7CE JUMPI DUP1 PUSH1 0x1F LT PUSH2 0x7A3 JUMPI PUSH2 0x100 DUP1 DUP4 SLOAD DIV MUL DUP4 MSTORE SWAP2 PUSH1 0x20 ADD SWAP2 PUSH2 0x7CE JUMP JUMPDEST DUP3 ADD SWAP2 SWAP1 PUSH1 0x0 MSTORE PUSH1 0x20 PUSH1 0x0 KECCAK256 SWAP1 JUMPDEST DUP2 SLOAD DUP2 MSTORE SWAP1 PUSH1 0x1 ADD SWAP1 PUSH1 0x20 ADD DUP1 DUP4 GT PUSH2 0x7B1 JUMPI DUP3 SWAP1 SUB PUSH1 0x1F AND DUP3 ADD SWAP2 JUMPDEST POP POP POP POP POP DUP2 JUMP JUMPDEST PUSH1 0x60 PUSH1 0x1 PUSH1 0x2 DUP2 GT ISZERO PUSH2 0x7EC JUMPI PUSH2 0x7EB PUSH2 0xDA8 JUMP JUMPDEST JUMPDEST PUSH1 0x4 PUSH1 0x0 SWAP1 SLOAD SWAP1 PUSH2 0x100 EXP SWAP1 DIV PUSH1 0xFF AND PUSH1 0x2 DUP2 GT ISZERO PUSH2 0x80E JUMPI PUSH2 0x80D PUSH2 0xDA8 JUMP JUMPDEST JUMPDEST SUB PUSH2 0x8A5 JUMPI PUSH1 0x9 DUP1 SLOAD PUSH2 0x820 SWAP1 PUSH2 0x107E JUMP JUMPDEST DUP1 PUSH1 0x1F ADD PUSH1 0x20 DUP1 SWAP2 DIV MUL PUSH1 0x20 ADD PUSH1 0x40 MLOAD SWAP1 DUP2 ADD PUSH1 0x40 MSTORE DUP1 SWAP3 SWAP2 SWAP1 DUP2 DUP2 MSTORE PUSH1 0x20 ADD DUP3 DUP1 SLOAD PUSH2 0x84C SWAP1 PUSH2 0x107E JUMP JUMPDEST DUP1 ISZERO PUSH2 0x899 JUMPI DUP1 PUSH1 0x1F LT PUSH2 0x86E JUMPI PUSH2 0x100 DUP1 DUP4 SLOAD DIV MUL DUP4 MSTORE SWAP2 PUSH1 0x20 ADD SWAP2 PUSH2 0x899 JUMP JUMPDEST DUP3 ADD SWAP2 SWAP1 PUSH1 0x0 MSTORE PUSH1 0x20 PUSH1 0x0 KECCAK256 SWAP1 JUMPDEST DUP2 SLOAD DUP2 MSTORE SWAP1 PUSH1 0x1 ADD SWAP1 PUSH1 0x20 ADD DUP1 DUP4 GT PUSH2 0x87C JUMPI DUP3 SWAP1 SUB PUSH1 0x1F AND DUP3 ADD SWAP2 JUMPDEST POP POP POP POP POP SWAP1 POP PUSH2 0x955 JUMP JUMPDEST PUSH1 0x2 DUP1 DUP2 GT ISZERO PUSH2 0x8B8 JUMPI PUSH2 0x8B7 PUSH2 0xDA8 JUMP JUMPDEST JUMPDEST PUSH1 0x4 PUSH1 0x0 SWAP1 SLOAD SWAP1 PUSH2 0x100 EXP SWAP1 DIV PUSH1 0xFF AND PUSH1 0x2 DUP2 GT ISZERO PUSH2 0x8DA JUMPI PUSH2 0x8D9 PUSH2 0xDA8 JUMP JUMPDEST JUMPDEST SUB PUSH2 0x91C JUMPI PUSH1 0x40 MLOAD DUP1 PUSH1 0x40 ADD PUSH1 0x40 MSTORE DUP1 PUSH1 0x17 DUP2 MSTORE PUSH1 0x20 ADD PUSH32 0x54726164696E672050726F706F73616C204661696C6564000000000000000000 DUP2 MSTORE POP SWAP1 POP PUSH2 0x955 JUMP JUMPDEST PUSH1 0x40 MLOAD DUP1 PUSH1 0x40 ADD PUSH1 0x40 MSTORE DUP1 PUSH1 0x12 DUP2 MSTORE PUSH1 0x20 ADD PUSH32 0x566F74696E6720496E2050726F67726573730000000000000000000000000000 DUP2 MSTORE POP SWAP1 POP JUMPDEST SWAP1 JUMP JUMPDEST PUSH1 0x6 PUSH1 0x20 MSTORE DUP1 PUSH1 0x0 MSTORE PUSH1 0x40 PUSH1 0x0 KECCAK256 PUSH1 0x0 SWAP2 POP SLOAD SWAP1 PUSH2 0x100 EXP SWAP1 DIV PUSH1 0xFF AND DUP2 JUMP JUMPDEST PUSH1 0x0 DUP1 SLOAD SWAP1 PUSH2 0x100 EXP SWAP1 DIV PUSH20 0xFFFFFFFFFFFFFFFFFFFFFFFFFFFFFFFFFFFFFFFF AND DUP2 JUMP JUMPDEST PUSH1 0x0 PUSH1 0x2 DUP2 GT ISZERO PUSH2 0x9B0 JUMPI PUSH2 0x9AF PUSH2 0xDA8 JUMP JUMPDEST JUMPDEST PUSH1 0x4 PUSH1 0x0 SWAP1 SLOAD SWAP1 PUSH2 0x100 EXP SWAP1 DIV PUSH1 0xFF AND PUSH1 0x2 DUP2 GT ISZERO PUSH2 0x9D2 JUMPI PUSH2 0x9D1 PUSH2 0xDA8 JUMP JUMPDEST JUMPDEST EQ PUSH2 0x9DC JUMPI PUSH1 0x0 DUP1 REVERT JUMPDEST PUSH1 0x1 ISZERO ISZERO PUSH1 0x6 PUSH1 0x0 DUP5 PUSH20 0xFFFFFFFFFFFFFFFFFFFFFFFFFFFFFFFFFFFFFFFF AND PUSH20 0xFFFFFFFFFFFFFFFFFFFFFFFFFFFFFFFFFFFFFFFF AND DUP2 MSTORE PUSH1 0x20 ADD SWAP1 DUP2 MSTORE PUSH1 0x20 ADD PUSH1 0x0 KECCAK256 PUSH1 0x0 SWAP1 SLOAD SWAP1 PUSH2 0x100 EXP SWAP1 DIV PUSH1 0xFF AND ISZERO ISZERO SUB PUSH2 0xA39 JUMPI PUSH1 0x0 DUP1 REVERT JUMPDEST PUSH1 0x1 ISZERO ISZERO PUSH1 0x8 PUSH1 0x0 DUP5 PUSH20 0xFFFFFFFFFFFFFFFFFFFFFFFFFFFFFFFFFFFFFFFF AND PUSH20 0xFFFFFFFFFFFFFFFFFFFFFFFFFFFFFFFFFFFFFFFF AND DUP2 MSTORE PUSH1 0x20 ADD SWAP1 DUP2 MSTORE PUSH1 0x20 ADD PUSH1 0x0 KECCAK256 PUSH1 0x0 SWAP1 SLOAD SWAP1 PUSH2 0x100 EXP SWAP1 DIV PUSH1 0xFF AND ISZERO ISZERO SUB PUSH2 0xA96 JUMPI PUSH1 0x0 DUP1 REVERT JUMPDEST DUP1 ISZERO PUSH2 0xB96 JUMPI PUSH1 0x5 DUP3 SWAP1 DUP1 PUSH1 0x1 DUP2 SLOAD ADD DUP1 DUP3 SSTORE DUP1 SWAP2 POP POP PUSH1 0x1 SWAP1 SUB SWAP1 PUSH1 0x0 MSTORE PUSH1 0x20 PUSH1 0x0 KECCAK256 ADD PUSH1 0x0 SWAP1 SWAP2 SWAP1 SWAP2 SWAP1 SWAP2 PUSH2 0x100 EXP DUP2 SLOAD DUP2 PUSH20 0xFFFFFFFFFFFFFFFFFFFFFFFFFFFFFFFFFFFFFFFF MUL NOT AND SWAP1 DUP4 PUSH20 0xFFFFFFFFFFFFFFFFFFFFFFFFFFFFFFFFFFFFFFFF AND MUL OR SWAP1 SSTORE POP PUSH1 0x1 PUSH1 0x6 PUSH1 0x0 DUP5 PUSH20 0xFFFFFFFFFFFFFFFFFFFFFFFFFFFFFFFFFFFFFFFF AND PUSH20 0xFFFFFFFFFFFFFFFFFFFFFFFFFFFFFFFFFFFFFFFF AND DUP2 MSTORE PUSH1 0x20 ADD SWAP1 DUP2 MSTORE PUSH1 0x20 ADD PUSH1 0x0 KECCAK256 PUSH1 0x0 PUSH2 0x100 EXP DUP2 SLOAD DUP2 PUSH1 0xFF MUL NOT AND SWAP1 DUP4 ISZERO ISZERO MUL OR SWAP1 SSTORE POP PUSH1 0x3 SLOAD PUSH1 0x5 DUP1 SLOAD SWAP1 POP SUB PUSH2 0xB91 JUMPI PUSH1 0x1 PUSH1 0x4 PUSH1 0x0 PUSH2 0x100 EXP DUP2 SLOAD DUP2 PUSH1 0xFF MUL NOT AND SWAP1 DUP4 PUSH1 0x2 DUP2 GT ISZERO PUSH2 0xB8B JUMPI PUSH2 0xB8A PUSH2 0xDA8 JUMP JUMPDEST JUMPDEST MUL OR SWAP1 SSTORE POP JUMPDEST PUSH2 0xC8C JUMP JUMPDEST PUSH1 0x7 DUP3 SWAP1 DUP1 PUSH1 0x1 DUP2 SLOAD ADD DUP1 DUP3 SSTORE DUP1 SWAP2 POP POP PUSH1 0x1 SWAP1 SUB SWAP1 PUSH1 0x0 MSTORE PUSH1 0x20 PUSH1 0x0 KECCAK256 ADD PUSH1 0x0 SWAP1 SWAP2 SWAP1 SWAP2 SWAP1 SWAP2 PUSH2 0x100 EXP DUP2 SLOAD DUP2 PUSH20 0xFFFFFFFFFFFFFFFFFFFFFFFFFFFFFFFFFFFFFFFF MUL NOT AND SWAP1 DUP4 PUSH20 0xFFFFFFFFFFFFFFFFFFFFFFFFFFFFFFFFFFFFFFFF AND MUL OR SWAP1 SSTORE POP PUSH1 0x1 PUSH1 0x8 PUSH1 0x0 DUP5 PUSH20 0xFFFFFFFFFFFFFFFFFFFFFFFFFFFFFFFFFFFFFFFF AND PUSH20 0xFFFFFFFFFFFFFFFFFFFFFFFFFFFFFFFFFFFFFFFF AND DUP2 MSTORE PUSH1 0x20 ADD SWAP1 DUP2 MSTORE PUSH1 0x20 ADD PUSH1 0x0 KECCAK256 PUSH1 0x0 PUSH2 0x100 EXP DUP2 SLOAD DUP2 PUSH1 0xFF MUL NOT AND SWAP1 DUP4 ISZERO ISZERO MUL OR SWAP1 SSTORE POP PUSH1 0x3 SLOAD PUSH1 0x7 DUP1 SLOAD SWAP1 POP SUB PUSH2 0xC8B JUMPI PUSH1 0x2 PUSH1 0x4 PUSH1 0x0 PUSH2 0x100 EXP DUP2 SLOAD DUP2 PUSH1 0xFF MUL NOT AND SWAP1 DUP4 PUSH1 0x2 DUP2 GT ISZERO PUSH2 0xC85 JUMPI PUSH2 0xC84 PUSH2 0xDA8 JUMP JUMPDEST JUMPDEST MUL OR SWAP1 SSTORE POP JUMPDEST JUMPDEST POP POP JUMP JUMPDEST PUSH1 0x7 DUP2 DUP2 SLOAD DUP2 LT PUSH2 0xCA0 JUMPI PUSH1 0x0 DUP1 REVERT JUMPDEST SWAP1 PUSH1 0x0 MSTORE PUSH1 0x20 PUSH1 0x0 KECCAK256 ADD PUSH1 0x0 SWAP2 POP SLOAD SWAP1 PUSH2 0x100 EXP SWAP1 DIV PUSH20 0xFFFFFFFFFFFFFFFFFFFFFFFFFFFFFFFFFFFFFFFF AND DUP2 JUMP JUMPDEST PUSH1 0xA PUSH1 0x0 SWAP1 SLOAD SWAP1 PUSH2 0x100 EXP SWAP1 DIV PUSH1 0xFF AND DUP2 JUMP JUMPDEST PUSH1 0x0 DUP1 REVERT JUMPDEST PUSH1 0x0 PUSH20 0xFFFFFFFFFFFFFFFFFFFFFFFFFFFFFFFFFFFFFFFF DUP3 AND SWAP1 POP SWAP2 SWAP1 POP JUMP JUMPDEST PUSH1 0x0 PUSH2 0xD12 DUP3 PUSH2 0xCE7 JUMP JUMPDEST SWAP1 POP SWAP2 SWAP1 POP JUMP JUMPDEST PUSH2 0xD22 DUP2 PUSH2 0xD07 JUMP JUMPDEST DUP2 EQ PUSH2 0xD2D JUMPI PUSH1 0x0 DUP1 REVERT JUMPDEST POP JUMP JUMPDEST PUSH1 0x0 DUP2 CALLDATALOAD SWAP1 POP PUSH2 0xD3F DUP2 PUSH2 0xD19 JUMP JUMPDEST SWAP3 SWAP2 POP POP JUMP JUMPDEST PUSH1 0x0 PUSH1 0x20 DUP3 DUP5 SUB SLT ISZERO PUSH2 0xD5B JUMPI PUSH2 0xD5A PUSH2 0xCE2 JUMP JUMPDEST JUMPDEST PUSH1 0x0 PUSH2 0xD69 DUP5 DUP3 DUP6 ADD PUSH2 0xD30 JUMP JUMPDEST SWAP2 POP POP SWAP3 SWAP2 POP POP JUMP JUMPDEST PUSH1 0x0 DUP2 ISZERO ISZERO SWAP1 POP SWAP2 SWAP1 POP JUMP JUMPDEST PUSH2 0xD87 DUP2 PUSH2 0xD72 JUMP JUMPDEST DUP3 MSTORE POP POP JUMP JUMPDEST PUSH1 0x0 PUSH1 0x20 DUP3 ADD SWAP1 POP PUSH2 0xDA2 PUSH1 0x0 DUP4 ADD DUP5 PUSH2 0xD7E JUMP JUMPDEST SWAP3 SWAP2 POP POP JUMP JUMPDEST PUSH32 0x4E487B7100000000000000000000000000000000000000000000000000000000 PUSH1 0x0 MSTORE PUSH1 0x21 PUSH1 0x4 MSTORE PUSH1 0x24 PUSH1 0x0 REVERT JUMPDEST PUSH1 0x3 DUP2 LT PUSH2 0xDE8 JUMPI PUSH2 0xDE7 PUSH2 0xDA8 JUMP JUMPDEST JUMPDEST POP JUMP JUMPDEST PUSH1 0x0 DUP2 SWAP1 POP PUSH2 0xDF9 DUP3 PUSH2 0xDD7 JUMP JUMPDEST SWAP2 SWAP1 POP JUMP JUMPDEST PUSH1 0x0 PUSH2 0xE09 DUP3 PUSH2 0xDEB JUMP JUMPDEST SWAP1 POP SWAP2 SWAP1 POP JUMP JUMPDEST PUSH2 0xE19 DUP2 PUSH2 0xDFE JUMP JUMPDEST DUP3 MSTORE POP POP JUMP JUMPDEST PUSH1 0x0 PUSH1 0x20 DUP3 ADD SWAP1 POP PUSH2 0xE34 PUSH1 0x0 DUP4 ADD DUP5 PUSH2 0xE10 JUMP JUMPDEST SWAP3 SWAP2 POP POP JUMP JUMPDEST PUSH1 0x0 DUP2 SWAP1 POP SWAP2 SWAP1 POP JUMP JUMPDEST PUSH2 0xE4D DUP2 PUSH2 0xE3A JUMP JUMPDEST DUP3 MSTORE POP POP JUMP JUMPDEST PUSH1 0x0 PUSH1 0x20 DUP3 ADD SWAP1 POP PUSH2 0xE68 PUSH1 0x0 DUP4 ADD DUP5 PUSH2 0xE44 JUMP JUMPDEST SWAP3 SWAP2 POP POP JUMP JUMPDEST PUSH2 0xE77 DUP2 PUSH2 0xE3A JUMP JUMPDEST DUP2 EQ PUSH2 0xE82 JUMPI PUSH1 0x0 DUP1 REVERT JUMPDEST POP JUMP JUMPDEST PUSH1 0x0 DUP2 CALLDATALOAD SWAP1 POP PUSH2 0xE94 DUP2 PUSH2 0xE6E JUMP JUMPDEST SWAP3 SWAP2 POP POP JUMP JUMPDEST PUSH1 0x0 PUSH1 0x20 DUP3 DUP5 SUB SLT ISZERO PUSH2 0xEB0 JUMPI PUSH2 0xEAF PUSH2 0xCE2 JUMP JUMPDEST JUMPDEST PUSH1 0x0 PUSH2 0xEBE DUP5 DUP3 DUP6 ADD PUSH2 0xE85 JUMP JUMPDEST SWAP2 POP POP SWAP3 SWAP2 POP POP JUMP JUMPDEST PUSH2 0xED0 DUP2 PUSH2 0xD07 JUMP JUMPDEST DUP3 MSTORE POP POP JUMP JUMPDEST PUSH1 0x0 PUSH1 0x20 DUP3 ADD SWAP1 POP PUSH2 0xEEB PUSH1 0x0 DUP4 ADD DUP5 PUSH2 0xEC7 JUMP JUMPDEST SWAP3 SWAP2 POP POP JUMP JUMPDEST PUSH1 0x0 DUP2 MLOAD SWAP1 POP SWAP2 SWAP1 POP JUMP JUMPDEST PUSH1 0x0 DUP3 DUP3 MSTORE PUSH1 0x20 DUP3 ADD SWAP1 POP SWAP3 SWAP2 POP POP JUMP JUMPDEST PUSH1 0x0 JUMPDEST DUP4 DUP2 LT ISZERO PUSH2 0xF2B JUMPI DUP1 DUP3 ADD MLOAD DUP2 DUP5 ADD MSTORE PUSH1 0x20 DUP2 ADD SWAP1 POP PUSH2 0xF10 JUMP JUMPDEST PUSH1 0x0 DUP5 DUP5 ADD MSTORE POP POP POP POP JUMP JUMPDEST PUSH1 0x0 PUSH1 0x1F NOT PUSH1 0x1F DUP4 ADD AND SWAP1 POP SWAP2 SWAP1 POP JUMP JUMPDEST PUSH1 0x0 PUSH2 0xF53 DUP3 PUSH2 0xEF1 JUMP JUMPDEST PUSH2 0xF5D DUP2 DUP6 PUSH2 0xEFC JUMP JUMPDEST SWAP4 POP PUSH2 0xF6D DUP2 DUP6 PUSH1 0x20 DUP7 ADD PUSH2 0xF0D JUMP JUMPDEST PUSH2 0xF76 DUP2 PUSH2 0xF37 JUMP JUMPDEST DUP5 ADD SWAP2 POP POP SWAP3 SWAP2 POP POP JUMP JUMPDEST PUSH1 0x0 PUSH1 0x20 DUP3 ADD SWAP1 POP DUP2 DUP2 SUB PUSH1 0x0 DUP4 ADD MSTORE PUSH2 0xF9B DUP2 DUP5 PUSH2 0xF48 JUMP JUMPDEST SWAP1 POP SWAP3 SWAP2 POP POP JUMP JUMPDEST PUSH1 0x0 DUP1 PUSH1 0x40 DUP4 DUP6 SUB SLT ISZERO PUSH2 0xFBA JUMPI PUSH2 0xFB9 PUSH2 0xCE2 JUMP JUMPDEST JUMPDEST PUSH1 0x0 PUSH2 0xFC8 DUP6 DUP3 DUP7 ADD PUSH2 0xD30 JUMP JUMPDEST SWAP3 POP POP PUSH1 0x20 PUSH2 0xFD9 DUP6 DUP3 DUP7 ADD PUSH2 0xE85 JUMP JUMPDEST SWAP2 POP POP SWAP3 POP SWAP3 SWAP1 POP JUMP JUMPDEST PUSH2 0xFEC DUP2 PUSH2 0xD72 JUMP JUMPDEST DUP2 EQ PUSH2 0xFF7 JUMPI PUSH1 0x0 DUP1 REVERT JUMPDEST POP JUMP JUMPDEST PUSH1 0x0 DUP2 CALLDATALOAD SWAP1 POP PUSH2 0x1009 DUP2 PUSH2 0xFE3 JUMP JUMPDEST SWAP3 SWAP2 POP POP JUMP JUMPDEST PUSH1 0x0 DUP1 PUSH1 0x40 DUP4 DUP6 SUB SLT ISZERO PUSH2 0x1026 JUMPI PUSH2 0x1025 PUSH2 0xCE2 JUMP JUMPDEST JUMPDEST PUSH1 0x0 PUSH2 0x1034 DUP6 DUP3 DUP7 ADD PUSH2 0xD30 JUMP JUMPDEST SWAP3 POP POP PUSH1 0x20 PUSH2 0x1045 DUP6 DUP3 DUP7 ADD PUSH2 0xFFA JUMP JUMPDEST SWAP2 POP POP SWAP3 POP SWAP3 SWAP1 POP JUMP JUMPDEST PUSH32 0x4E487B7100000000000000000000000000000000000000000000000000000000 PUSH1 0x0 MSTORE PUSH1 0x22 PUSH1 0x4 MSTORE PUSH1 0x24 PUSH1 0x0 REVERT JUMPDEST PUSH1 0x0 PUSH1 0x2 DUP3 DIV SWAP1 POP PUSH1 0x1 DUP3 AND DUP1 PUSH2 0x1096 JUMPI PUSH1 0x7F DUP3 AND SWAP2 POP JUMPDEST PUSH1 0x20 DUP3 LT DUP2 SUB PUSH2 0x10A9 JUMPI PUSH2 0x10A8 PUSH2 0x104F JUMP JUMPDEST JUMPDEST POP SWAP2 SWAP1 POP JUMP INVALID LOG2 PUSH5 0x6970667358 0x22 SLT KECCAK256 PUSH22 0xEE86DE05DA6A1AA5C0BC2BF1DF4CB7A279A1A16C5311 GT ORIGIN SWAP3 0xC6 DIFFICULTY BLOCKHASH PUSH22 0x63C264736F6C63430008110033A26469706673582212 KECCAK256 0xD1 PUSH31 0xEF967FD6A45C7C11B842198F58C95A43C8B406DEC8DA7EAA0F68BF30402C64 PUSH20 0x6F6C634300081100330000000000000000000000 "},"methodIdentifiers":{"checkIfDatasetIsListed(address)":"2e2750da","checkIfMember()":"d495133d","createTradingProposal(string,string)":"1124ef42","getDetailedTradingProposalInfo(address)":"405cf1b7","getTradingProposalCID(address)":"12a0feff","getTradingProposalList()":"f22d5e28","hasVoted(address)":"09eef43e","joinDataDao()":"9c07f4e7","listDataset(address,uint256)":"580c5217","members(uint256)":"5daf08ca","tradingProposals(uint256)":"2b42f88d","tradingProposalsList(address)":"91e944a0","vote(address,bool)":"bd041c4d"}}}}}