{
  "_format": "hh-sol-artifact-1",
  "contractName": "DataDao",
  "sourceName": "contracts/DataDao.sol",
  "abi": [
    {
      "inputs": [
        {
          "internalType": "string",
          "name": "_datasetCID",
          "type": "string"
        }
      ],
      "stateMutability": "nonpayable",
      "type": "constructor"
    },
    {
      "inputs": [
        {
          "internalType": "int256",
          "name": "errorCode",
          "type": "int256"
        }
      ],
      "name": "ActorError",
      "type": "error"
    },
    {
      "inputs": [],
      "name": "FailToCallActor",
      "type": "error"
    },
    {
      "inputs": [
        {
          "internalType": "uint64",
          "name": "",
          "type": "uint64"
        }
      ],
      "name": "InvalidCodec",
      "type": "error"
    },
    {
      "inputs": [],
      "name": "InvalidResponseLength",
      "type": "error"
    },
    {
      "inputs": [
        {
          "internalType": "uint256",
          "name": "balance",
          "type": "uint256"
        },
        {
          "internalType": "uint256",
          "name": "value",
          "type": "uint256"
        }
      ],
      "name": "NotEnoughBalance",
      "type": "error"
    },
    {
      "inputs": [
        {
          "internalType": "address",
          "name": "tradingProposalAddress",
          "type": "address"
        }
      ],
      "name": "checkIfDatasetIsListed",
      "outputs": [
        {
          "internalType": "bool",
          "name": "",
          "type": "bool"
        }
      ],
      "stateMutability": "view",
      "type": "function"
    },
    {
      "inputs": [],
      "name": "checkIfMember",
      "outputs": [
        {
          "internalType": "bool",
          "name": "",
          "type": "bool"
        }
      ],
      "stateMutability": "view",
      "type": "function"
    },
    {
      "inputs": [
        {
          "internalType": "string",
          "name": "title",
          "type": "string"
        },
        {
          "internalType": "string",
          "name": "description",
          "type": "string"
        }
      ],
      "name": "createTradingProposal",
      "outputs": [],
      "stateMutability": "nonpayable",
      "type": "function"
    },
    {
      "inputs": [
        {
          "internalType": "address",
          "name": "_tradingProposalList",
          "type": "address"
        }
      ],
      "name": "getDetailedTradingProposalInfo",
      "outputs": [
        {
          "internalType": "address",
          "name": "_proposer",
          "type": "address"
        },
        {
          "internalType": "uint256",
          "name": "_numberOfYesVotes",
          "type": "uint256"
        },
        {
          "internalType": "uint256",
          "name": "_numberOfNoVotes",
          "type": "uint256"
        },
        {
          "internalType": "uint256",
          "name": "_voteThreshold",
          "type": "uint256"
        },
        {
          "internalType": "string",
          "name": "_cid",
          "type": "string"
        },
        {
          "internalType": "uint256",
          "name": "_listedPrice",
          "type": "uint256"
        }
      ],
      "stateMutability": "view",
      "type": "function"
    },
    {
      "inputs": [
        {
          "internalType": "address",
          "name": "tradingProposalAddress",
          "type": "address"
        }
      ],
      "name": "getTradingProposalCID",
      "outputs": [
        {
          "internalType": "string",
          "name": "_cid",
          "type": "string"
        }
      ],
      "stateMutability": "view",
      "type": "function"
    },
    {
      "inputs": [],
      "name": "getTradingProposalList",
      "outputs": [
        {
          "internalType": "string[]",
          "name": "title",
          "type": "string[]"
        },
        {
          "internalType": "string[]",
          "name": "description",
          "type": "string[]"
        },
        {
          "internalType": "string[]",
          "name": "status",
          "type": "string[]"
        },
        {
          "internalType": "address[]",
          "name": "tradingProposalContractAddress",
          "type": "address[]"
        }
      ],
      "stateMutability": "view",
      "type": "function"
    },
    {
      "inputs": [
        {
          "internalType": "address",
          "name": "tradingProposalAddress",
          "type": "address"
        }
      ],
      "name": "hasVoted",
      "outputs": [
        {
          "internalType": "bool",
          "name": "",
          "type": "bool"
        }
      ],
      "stateMutability": "view",
      "type": "function"
    },
    {
      "inputs": [],
      "name": "joinDataDao",
      "outputs": [],
      "stateMutability": "nonpayable",
      "type": "function"
    },
    {
      "inputs": [
        {
          "internalType": "address",
          "name": "tradingProposalAddress",
          "type": "address"
        },
        {
          "internalType": "uint256",
          "name": "price",
          "type": "uint256"
        }
      ],
      "name": "listDataset",
      "outputs": [],
      "stateMutability": "nonpayable",
      "type": "function"
    },
    {
      "inputs": [
        {
          "internalType": "uint256",
          "name": "",
          "type": "uint256"
        }
      ],
      "name": "members",
      "outputs": [
        {
          "internalType": "address",
          "name": "",
          "type": "address"
        }
      ],
      "stateMutability": "view",
      "type": "function"
    },
    {
      "inputs": [
        {
          "internalType": "uint256",
          "name": "",
          "type": "uint256"
        }
      ],
      "name": "tradingProposals",
      "outputs": [
        {
          "internalType": "contract TradingProposal",
          "name": "",
          "type": "address"
        }
      ],
      "stateMutability": "view",
      "type": "function"
    },
    {
      "inputs": [
        {
          "internalType": "address",
          "name": "",
          "type": "address"
        }
      ],
      "name": "tradingProposalsList",
      "outputs": [
        {
          "internalType": "uint256",
          "name": "",
          "type": "uint256"
        }
      ],
      "stateMutability": "view",
      "type": "function"
    },
    {
      "inputs": [
        {
          "internalType": "address",
          "name": "tradingProposalAddress",
          "type": "address"
        },
        {
          "internalType": "bool",
          "name": "isYesVote",
          "type": "bool"
        }
      ],
      "name": "vote",
      "outputs": [],
      "stateMutability": "nonpayable",
      "type": "function"
    }
  ],
  "bytecode": "0x60806040523480156200001157600080fd5b5060405162005c6638038062005c6683398181016040528101906200003791906200029d565b806002908162000048919062000539565b5060018060003373ffffffffffffffffffffffffffffffffffffffff1673ffffffffffffffffffffffffffffffffffffffff16815260200190815260200160002060006101000a81548160ff0219169083151502179055506000339080600181540180825580915050600190039060005260206000200160009091909190916101000a81548173ffffffffffffffffffffffffffffffffffffffff021916908373ffffffffffffffffffffffffffffffffffffffff1602179055505062000620565b6000604051905090565b600080fd5b600080fd5b600080fd5b600080fd5b6000601f19601f8301169050919050565b7f4e487b7100000000000000000000000000000000000000000000000000000000600052604160045260246000fd5b620001738262000128565b810181811067ffffffffffffffff8211171562000195576200019462000139565b5b80604052505050565b6000620001aa6200010a565b9050620001b8828262000168565b919050565b600067ffffffffffffffff821115620001db57620001da62000139565b5b620001e68262000128565b9050602081019050919050565b60005b8381101562000213578082015181840152602081019050620001f6565b60008484015250505050565b6000620002366200023084620001bd565b6200019e565b90508281526020810184848401111562000255576200025462000123565b5b62000262848285620001f3565b509392505050565b600082601f8301126200028257620002816200011e565b5b8151620002948482602086016200021f565b91505092915050565b600060208284031215620002b657620002b562000114565b5b600082015167ffffffffffffffff811115620002d757620002d662000119565b5b620002e5848285016200026a565b91505092915050565b600081519050919050565b7f4e487b7100000000000000000000000000000000000000000000000000000000600052602260045260246000fd5b600060028204905060018216806200034157607f821691505b602082108103620003575762000356620002f9565b5b50919050565b60008190508160005260206000209050919050565b60006020601f8301049050919050565b600082821b905092915050565b600060088302620003c17fffffffffffffffffffffffffffffffffffffffffffffffffffffffffffffffff8262000382565b620003cd868362000382565b95508019841693508086168417925050509392505050565b6000819050919050565b6000819050919050565b60006200041a620004146200040e84620003e5565b620003ef565b620003e5565b9050919050565b6000819050919050565b6200043683620003f9565b6200044e620004458262000421565b8484546200038f565b825550505050565b600090565b6200046562000456565b620004728184846200042b565b505050565b5b818110156200049a576200048e6000826200045b565b60018101905062000478565b5050565b601f821115620004e957620004b3816200035d565b620004be8462000372565b81016020851015620004ce578190505b620004e6620004dd8562000372565b83018262000477565b50505b505050565b600082821c905092915050565b60006200050e60001984600802620004ee565b1980831691505092915050565b6000620005298383620004fb565b9150826002028217905092915050565b6200054482620002ee565b67ffffffffffffffff81111562000560576200055f62000139565b5b6200056c825462000328565b620005798282856200049e565b600060209050601f831160018114620005b157600084156200059c578287015190505b620005a885826200051b565b86555062000618565b601f198416620005c1866200035d565b60005b82811015620005eb57848901518255600182019150602085019450602081019050620005c4565b868310156200060b578489015162000607601f891682620004fb565b8355505b6001600288020188555050505b505050505050565b61563680620006306000396000f3fe60806040523480156200001157600080fd5b5060043610620000e25760003560e01c8063580c521711620000995780639c07f4e7116200006f5780639c07f4e714620002a6578063bd041c4d14620002b2578063d495133d14620002d2578063f22d5e2814620002f457620000e2565b8063580c5217146200021a5780635daf08ca146200023a57806391e944a0146200027057620000e2565b806309eef43e14620000e75780631124ef42146200011d57806312a0feff146200013d5780632b42f88d14620001735780632e2750da14620001a9578063405cf1b714620001df575b600080fd5b620001056004803603810190620000ff9190620027d6565b62000319565b60405162000114919062002825565b60405180910390f35b6200013b6004803603810190620001359190620029a4565b6200042c565b005b6200015b6004803603810190620001559190620027d6565b620005d4565b6040516200016a919062002ab2565b60405180910390f35b6200019160048036038101906200018b919062002b11565b6200073e565b604051620001a0919062002bae565b60405180910390f35b620001c76004803603810190620001c19190620027d6565b6200077e565b604051620001d6919062002825565b60405180910390f35b620001fd6004803603810190620001f79190620027d6565b62000884565b604051620002119695949392919062002bed565b60405180910390f35b62000238600480360381019062000232919062002c61565b62000c3e565b005b62000258600480360381019062000252919062002b11565b62000db9565b60405162000267919062002ca8565b60405180910390f35b6200028e6004803603810190620002889190620027d6565b62000df9565b6040516200029d919062002cc5565b60405180910390f35b620002b062000e11565b005b620002d06004803603810190620002ca919062002d13565b62000f2b565b005b620002dc62001132565b604051620002eb919062002825565b60405180910390f35b620002fe62001186565b60405162000310949392919062002f4a565b60405180910390f35b600080600460008473ffffffffffffffffffffffffffffffffffffffff1673ffffffffffffffffffffffffffffffffffffffff16815260200190815260200160002054905060006003828154811062000377576200037662002fb3565b5b9060005260206000200160009054906101000a900473ffffffffffffffffffffffffffffffffffffffff1690508073ffffffffffffffffffffffffffffffffffffffff166309eef43e336040518263ffffffff1660e01b8152600401620003df919062002ca8565b602060405180830381865afa158015620003fd573d6000803e3d6000fd5b505050506040513d601f19601f8201168201806040525081019062000423919062002ff9565b92505050919050565b3373ffffffffffffffffffffffffffffffffffffffff16600080815481106200045a576200045962002fb3565b5b9060005260206000200160009054906101000a900473ffffffffffffffffffffffffffffffffffffffff1673ffffffffffffffffffffffffffffffffffffffff1614620004a657600080fd5b6000620004b56103c762001639565b90506000816020015167ffffffffffffffff161115620005cf5760003384846002604051620004e490620026ef565b620004f3949392919062003134565b604051809103906000f08015801562000510573d6000803e3d6000fd5b5090506003819080600181540180825580915050600190039060005260206000200160009091909190916101000a81548173ffffffffffffffffffffffffffffffffffffffff021916908373ffffffffffffffffffffffffffffffffffffffff16021790555060016003805490506200058a9190620031c5565b600460008373ffffffffffffffffffffffffffffffffffffffff1673ffffffffffffffffffffffffffffffffffffffff16815260200190815260200160002081905550505b505050565b606060011515600160003373ffffffffffffffffffffffffffffffffffffffff1673ffffffffffffffffffffffffffffffffffffffff16815260200190815260200160002060009054906101000a900460ff161515146200063457600080fd5b6000600460008473ffffffffffffffffffffffffffffffffffffffff1673ffffffffffffffffffffffffffffffffffffffff16815260200190815260200160002054905060006003828154811062000691576200069062002fb3565b5b9060005260206000200160009054906101000a900473ffffffffffffffffffffffffffffffffffffffff1690508073ffffffffffffffffffffffffffffffffffffffff166372d641706040518163ffffffff1660e01b8152600401600060405180830381865afa1580156200070a573d6000803e3d6000fd5b505050506040513d6000823e3d601f19601f820116820180604052508101906200073591906200327e565b92505050919050565b600381815481106200074f57600080fd5b906000526020600020016000915054906101000a900473ffffffffffffffffffffffffffffffffffffffff1681565b600080600460008473ffffffffffffffffffffffffffffffffffffffff1673ffffffffffffffffffffffffffffffffffffffff168152602001908152602001600020549050600060038281548110620007dc57620007db62002fb3565b5b9060005260206000200160009054906101000a900473ffffffffffffffffffffffffffffffffffffffff1690508073ffffffffffffffffffffffffffffffffffffffff1663d910b05a6040518163ffffffff1660e01b8152600401602060405180830381865afa15801562000855573d6000803e3d6000fd5b505050506040513d601f19601f820116820180604052508101906200087b919062002ff9565b92505050919050565b6000806000806060600060011515600160003373ffffffffffffffffffffffffffffffffffffffff1673ffffffffffffffffffffffffffffffffffffffff16815260200190815260200160002060009054906101000a900460ff16151514620008ec57600080fd5b6000600460008973ffffffffffffffffffffffffffffffffffffffff1673ffffffffffffffffffffffffffffffffffffffff16815260200190815260200160002054905060006003828154811062000949576200094862002fb3565b5b9060005260206000200160009054906101000a900473ffffffffffffffffffffffffffffffffffffffff1690508073ffffffffffffffffffffffffffffffffffffffff1663a8e4fb906040518163ffffffff1660e01b8152600401602060405180830381865afa158015620009c2573d6000803e3d6000fd5b505050506040513d601f19601f82011682018060405250810190620009e89190620032e6565b8173ffffffffffffffffffffffffffffffffffffffff16635369cce56040518163ffffffff1660e01b8152600401602060405180830381865afa15801562000a34573d6000803e3d6000fd5b505050506040513d601f19601f8201168201806040525081019062000a5a91906200332f565b8273ffffffffffffffffffffffffffffffffffffffff166344b88cfa6040518163ffffffff1660e01b8152600401602060405180830381865afa15801562000aa6573d6000803e3d6000fd5b505050506040513d601f19601f8201168201806040525081019062000acc91906200332f565b8373ffffffffffffffffffffffffffffffffffffffff16634fe437d56040518163ffffffff1660e01b8152600401602060405180830381865afa15801562000b18573d6000803e3d6000fd5b505050506040513d601f19601f8201168201806040525081019062000b3e91906200332f565b8473ffffffffffffffffffffffffffffffffffffffff166372d641706040518163ffffffff1660e01b8152600401600060405180830381865afa15801562000b8a573d6000803e3d6000fd5b505050506040513d6000823e3d601f19601f8201168201806040525081019062000bb591906200327e565b8573ffffffffffffffffffffffffffffffffffffffff166357ed4b2f6040518163ffffffff1660e01b8152600401602060405180830381865afa15801562000c01573d6000803e3d6000fd5b505050506040513d601f19601f8201168201806040525081019062000c2791906200332f565b975097509750975097509750505091939550919395565b3373ffffffffffffffffffffffffffffffffffffffff166000808154811062000c6c5762000c6b62002fb3565b5b9060005260206000200160009054906101000a900473ffffffffffffffffffffffffffffffffffffffff1673ffffffffffffffffffffffffffffffffffffffff161462000cb857600080fd5b6000600460008473ffffffffffffffffffffffffffffffffffffffff1673ffffffffffffffffffffffffffffffffffffffff16815260200190815260200160002054905060006003828154811062000d155762000d1462002fb3565b5b9060005260206000200160009054906101000a900473ffffffffffffffffffffffffffffffffffffffff1690508073ffffffffffffffffffffffffffffffffffffffff1663580c521733856040518363ffffffff1660e01b815260040162000d7f92919062003361565b600060405180830381600087803b15801562000d9a57600080fd5b505af115801562000daf573d6000803e3d6000fd5b5050505050505050565b6000818154811062000dca57600080fd5b906000526020600020016000915054906101000a900473ffffffffffffffffffffffffffffffffffffffff1681565b60046020528060005260406000206000915090505481565b60011515600160003373ffffffffffffffffffffffffffffffffffffffff1673ffffffffffffffffffffffffffffffffffffffff16815260200190815260200160002060009054906101000a900460ff1615150362000e6f57600080fd5b6000339080600181540180825580915050600190039060005260206000200160009091909190916101000a81548173ffffffffffffffffffffffffffffffffffffffff021916908373ffffffffffffffffffffffffffffffffffffffff16021790555060018060003373ffffffffffffffffffffffffffffffffffffffff1673ffffffffffffffffffffffffffffffffffffffff16815260200190815260200160002060006101000a81548160ff021916908315150217905550565b60011515600160003373ffffffffffffffffffffffffffffffffffffffff1673ffffffffffffffffffffffffffffffffffffffff16815260200190815260200160002060009054906101000a900460ff1615151462000f8957600080fd5b3373ffffffffffffffffffffffffffffffffffffffff166000808154811062000fb75762000fb662002fb3565b5b9060005260206000200160009054906101000a900473ffffffffffffffffffffffffffffffffffffffff1673ffffffffffffffffffffffffffffffffffffffff16036200100357600080fd5b6000620010126103c762001639565b90506000816020015167ffffffffffffffff16116200103057600080fd5b6000600460008573ffffffffffffffffffffffffffffffffffffffff1673ffffffffffffffffffffffffffffffffffffffff1681526020019081526020016000205490506000600382815481106200108d576200108c62002fb3565b5b9060005260206000200160009054906101000a900473ffffffffffffffffffffffffffffffffffffffff1690508073ffffffffffffffffffffffffffffffffffffffff1663bd041c4d33866040518363ffffffff1660e01b8152600401620010f79291906200338e565b600060405180830381600087803b1580156200111257600080fd5b505af115801562001127573d6000803e3d6000fd5b505050505050505050565b6000600160003373ffffffffffffffffffffffffffffffffffffffff1673ffffffffffffffffffffffffffffffffffffffff16815260200190815260200160002060009054906101000a900460ff16905090565b60608060608060038054905067ffffffffffffffff811115620011ae57620011ad6200285d565b5b604051908082528060200260200182016040528015620011e357816020015b6060815260200190600190039081620011cd5790505b50935060038054905067ffffffffffffffff8111156200120857620012076200285d565b5b6040519080825280602002602001820160405280156200123d57816020015b6060815260200190600190039081620012275790505b50925060038054905067ffffffffffffffff8111156200126257620012616200285d565b5b6040519080825280602002602001820160405280156200129757816020015b6060815260200190600190039081620012815790505b50915060038054905067ffffffffffffffff811115620012bc57620012bb6200285d565b5b604051908082528060200260200182016040528015620012eb5781602001602082028036833780820191505090505b50905060005b60038054905081101562001632576003818154811062001316576200131562002fb3565b5b9060005260206000200160009054906101000a900473ffffffffffffffffffffffffffffffffffffffff1673ffffffffffffffffffffffffffffffffffffffff16634a79d50c6040518163ffffffff1660e01b8152600401600060405180830381865afa1580156200138c573d6000803e3d6000fd5b505050506040513d6000823e3d601f19601f82011682018060405250810190620013b791906200327e565b858281518110620013cd57620013cc62002fb3565b5b602002602001018190525060038181548110620013ef57620013ee62002fb3565b5b9060005260206000200160009054906101000a900473ffffffffffffffffffffffffffffffffffffffff1673ffffffffffffffffffffffffffffffffffffffff16637284e4166040518163ffffffff1660e01b8152600401600060405180830381865afa15801562001465573d6000803e3d6000fd5b505050506040513d6000823e3d601f19601f820116820180604052508101906200149091906200327e565b848281518110620014a657620014a562002fb3565b5b602002602001018190525060038181548110620014c857620014c762002fb3565b5b9060005260206000200160009054906101000a900473ffffffffffffffffffffffffffffffffffffffff1673ffffffffffffffffffffffffffffffffffffffff16634e69d5606040518163ffffffff1660e01b8152600401600060405180830381865afa1580156200153e573d6000803e3d6000fd5b505050506040513d6000823e3d601f19601f820116820180604052508101906200156991906200327e565b8382815181106200157f576200157e62002fb3565b5b602002602001018190525060038181548110620015a157620015a062002fb3565b5b9060005260206000200160009054906101000a900473ffffffffffffffffffffffffffffffffffffffff16828281518110620015e257620015e162002fb3565b5b602002602001019073ffffffffffffffffffffffffffffffffffffffff16908173ffffffffffffffffffffffffffffffffffffffff168152505080806200162990620033bb565b915050620012f1565b5090919293565b62001643620026fd565b60006200165a8367ffffffffffffffff166200168c565b90506000620016766005634505760a60518560006001620016c6565b9050620016838162001829565b92505050919050565b606060006200169c60406200193d565b9050620016b383826200196890919063ffffffff16565b620016be816200197a565b915050919050565b6060600047905083811015620017175780846040517f8f0f42060000000000000000000000000000000000000000000000000000000081526004016200170e92919062003408565b60405180910390fd5b60008073fe0000000000000000000000000000000000000573ffffffffffffffffffffffffffffffffffffffff168987876200175557600062001758565b60015b8b8b8f6040516020016200177296959493929190620034f0565b604051602081830303815290604052604051620017909190620035a6565b600060405180830381855af49150503d8060008114620017cd576040519150601f19603f3d011682016040523d82523d6000602084013e620017d2565b606091505b5091509150816200180f576040517f8a7db5bf00000000000000000000000000000000000000000000000000000000815260040160405180910390fd5b6200181a81620019d6565b93505050509695505050505050565b62001833620026fd565b6000806200184b828562001b6b90919063ffffffff16565b80935081925050506000811115620018ba5762001872828562001bf190919063ffffffff16565b84600001819450829052505062001893828562001ded90919063ffffffff16565b846020018194508267ffffffffffffffff1667ffffffffffffffff16815250505062001936565b600067ffffffffffffffff811115620018d857620018d76200285d565b5b6040519080825280601f01601f1916602001820160405280156200190b5781602001600182028036833780820191505090505b5083600001819052506000836020019067ffffffffffffffff16908167ffffffffffffffff16815250505b5050919050565b6200194762002721565b6200195781600001518362001e73565b506000816020018181525050919050565b620019768260008362001ef8565b5050565b60606000826020015114620019c6576040517f08c379a0000000000000000000000000000000000000000000000000000000008152600401620019bd906200360f565b60405180910390fd5b8160000151600001519050919050565b6060600080600084806020019051810190620019f3919062003751565b925092509250600067ffffffffffffffff168267ffffffffffffffff160362001a5857600081511462001a52576040517f0e74990700000000000000000000000000000000000000000000000000000000815260040160405180910390fd5b62001b18565b605167ffffffffffffffff168267ffffffffffffffff16148062001a905750607167ffffffffffffffff168267ffffffffffffffff16145b1562001ad857600081510362001ad2576040517f0e74990700000000000000000000000000000000000000000000000000000000815260040160405180910390fd5b62001b17565b816040517ff1f6bced00000000000000000000000000000000000000000000000000000000815260040162001b0e9190620037cc565b60405180910390fd5b5b6000831462001b6057826040517fd4bb667100000000000000000000000000000000000000000000000000000000815260040162001b579190620037fa565b60405180910390fd5b809350505050919050565b60008060008062001b7d8686620020bb565b8167ffffffffffffffff169150809750819350829450505050600460ff168260ff161462001be2576040517f08c379a000000000000000000000000000000000000000000000000000000000815260040162001bd99062003867565b60405180910390fd5b80859350935050509250929050565b6060600080600062001c048686620020bb565b8167ffffffffffffffff169150809750819350829450505050600660ff168260ff16148062001c395750600260ff168260ff16145b62001c7b576040517f08c379a000000000000000000000000000000000000000000000000000000000815260040162001c7290620038ff565b60405180910390fd5b600660ff168260ff160362001cca5762001c968686620020bb565b8167ffffffffffffffff169150809750819350829450505050600260ff168260ff161462001cc95762001cc862003921565b5b5b6000818662001cda919062003950565b905060008267ffffffffffffffff81111562001cfb5762001cfa6200285d565b5b6040519080825280601f01601f19166020018201604052801562001d2e5781602001600182028036833780820191505090505b5090506000808890505b8381101562001dcd5789818151811062001d575762001d5662002fb3565b5b602001015160f81c60f81b83838151811062001d785762001d7762002fb3565b5b60200101907effffffffffffffffffffffffffffffffffffffffffffffffffffffffffffff1916908160001a905350818062001db490620033bb565b925050808062001dc490620033bb565b91505062001d38565b5081848962001ddd919062003950565b9650965050505050509250929050565b60008060008062001dff8686620020bb565b8167ffffffffffffffff169150809750819350829450505050600060ff168260ff161462001e64576040517f08c379a000000000000000000000000000000000000000000000000000000000815260040162001e5b9062003a01565b60405180910390fd5b80859350935050509250929050565b62001e7d62002743565b600060208362001e8e919062003a52565b1462001ec15760208262001ea3919062003a52565b602062001eb19190620031c5565b8262001ebe919062003950565b91505b81836020018181525050604051808452600081528281016020018181101562001ee957600080fd5b80604052505082905092915050565b60178167ffffffffffffffff161162001f375762001f308160058460ff16901b60ff16178460000151620022d290919063ffffffff16565b50620020b6565b60ff8167ffffffffffffffff161162001f9b5762001f6d601860058460ff16901b178460000151620022d290919063ffffffff16565b5062001f948167ffffffffffffffff1660018560000151620023469092919063ffffffff16565b50620020b5565b61ffff8167ffffffffffffffff1611620020005762001fd2601960058460ff16901b178460000151620022d290919063ffffffff16565b5062001ff98167ffffffffffffffff1660028560000151620023469092919063ffffffff16565b50620020b4565b63ffffffff8167ffffffffffffffff1611620020675762002039601a60058460ff16901b178460000151620022d290919063ffffffff16565b50620020608167ffffffffffffffff1660048560000151620023469092919063ffffffff16565b50620020b3565b6200208a601b60058460ff16901b178460000151620022d290919063ffffffff16565b50620020b18167ffffffffffffffff1660088560000151620023469092919063ffffffff16565b505b5b5b5b505050565b600080600080620020cd8686620023e1565b9050600185620020de919062003950565b94506000600560e0831660ff16901c90506000601f83169050601c8160ff161062002140576040517f08c379a0000000000000000000000000000000000000000000000000000000008152600401620021379062003b00565b60405180910390fd5b60188160ff16101562002165578181888160ff169150955095509550505050620022cb565b60188160ff1603620021f55760006200217f8989620023e1565b905060018862002190919062003950565b975060188160ff161015620021dc576040517f08c379a0000000000000000000000000000000000000000000000000000000008152600401620021d39062003b72565b60405180910390fd5b8281898160ff16915096509650965050505050620022cb565b60198160ff16036200223c5760006200220f898962002464565b905060028862002220919062003950565b97508281898161ffff16915096509650965050505050620022cb565b601a8160ff160362002285576000620022568989620024d3565b905060048862002267919062003950565b97508281898163ffffffff16915096509650965050505050620022cb565b601b8160ff16146200229c576200229b62003921565b5b6000620022aa898962002542565b9050600888620022bb919062003950565b9750828189965096509650505050505b9250925092565b620022dc62002743565b600083600001515190506000600182620022f7919062003950565b90508460200151821062002320576200231f8560028362002319919062003b94565b620025b1565b5b8451602083820101858153815183111562002339578282525b5050849250505092915050565b6200235062002743565b60008460000151519050600081846200236a919062003950565b90508560200151811115620023945762002393866002836200238d919062003b94565b620025b1565b5b6000600185610100620023a8919062003d33565b620023b49190620031c5565b905086518281018783198251161781528151841115620023d2578382525b50508693505050509392505050565b6000600182620023f2919062003950565b8351101562002438576040517f08c379a00000000000000000000000000000000000000000000000000000000081526004016200242f9062003dd4565b60405180910390fd5b8282815181106200244e576200244d62002fb3565b5b602001015160f81c60f81b60f81c905092915050565b600060028262002475919062003950565b83511015620024bb576040517f08c379a0000000000000000000000000000000000000000000000000000000008152600401620024b29062003dd4565b60405180910390fd5b60008260200184015190508060f01c91505092915050565b6000600482620024e4919062003950565b835110156200252a576040517f08c379a0000000000000000000000000000000000000000000000000000000008152600401620025219062003dd4565b60405180910390fd5b60008260200184015190508060e01c91505092915050565b600060088262002553919062003950565b8351101562002599576040517f08c379a0000000000000000000000000000000000000000000000000000000008152600401620025909062003dd4565b60405180910390fd5b60008260200184015190508060c01c91505092915050565b600082600001519050620025c6838362001e73565b50620025d38382620025d9565b50505050565b620025e362002743565b620025f183838451620025f9565b905092915050565b6200260362002743565b82518211156200261257600080fd5b60008460000151519050600083826200262c919062003950565b90508560200151811115620026565762002655866002836200264f919062003b94565b620025b1565b5b6000808751805185602083010193508085111562002672578482525b60208901925050505b60208610620026c1578051825260208262002697919062003950565b9150602081620026a8919062003950565b9050602086620026b99190620031c5565b95506200267b565b60006001876020036101000a0390508019825116818451168181178552505050879450505050509392505050565b61180a8062003df783390190565b604051806040016040528060608152602001600067ffffffffffffffff1681525090565b60405180604001604052806200273662002743565b8152602001600081525090565b604051806040016040528060608152602001600081525090565b6000604051905090565b600080fd5b600080fd5b600073ffffffffffffffffffffffffffffffffffffffff82169050919050565b60006200279e8262002771565b9050919050565b620027b08162002791565b8114620027bc57600080fd5b50565b600081359050620027d081620027a5565b92915050565b600060208284031215620027ef57620027ee62002767565b5b6000620027ff84828501620027bf565b91505092915050565b60008115159050919050565b6200281f8162002808565b82525050565b60006020820190506200283c600083018462002814565b92915050565b600080fd5b600080fd5b6000601f19601f8301169050919050565b7f4e487b7100000000000000000000000000000000000000000000000000000000600052604160045260246000fd5b62002897826200284c565b810181811067ffffffffffffffff82111715620028b957620028b86200285d565b5b80604052505050565b6000620028ce6200275d565b9050620028dc82826200288c565b919050565b600067ffffffffffffffff821115620028ff57620028fe6200285d565b5b6200290a826200284c565b9050602081019050919050565b82818337600083830152505050565b60006200293d6200293784620028e1565b620028c2565b9050828152602081018484840111156200295c576200295b62002847565b5b6200296984828562002917565b509392505050565b600082601f83011262002989576200298862002842565b5b81356200299b84826020860162002926565b91505092915050565b60008060408385031215620029be57620029bd62002767565b5b600083013567ffffffffffffffff811115620029df57620029de6200276c565b5b620029ed8582860162002971565b925050602083013567ffffffffffffffff81111562002a115762002a106200276c565b5b62002a1f8582860162002971565b9150509250929050565b600081519050919050565b600082825260208201905092915050565b60005b8381101562002a6557808201518184015260208101905062002a48565b60008484015250505050565b600062002a7e8262002a29565b62002a8a818562002a34565b935062002a9c81856020860162002a45565b62002aa7816200284c565b840191505092915050565b6000602082019050818103600083015262002ace818462002a71565b905092915050565b6000819050919050565b62002aeb8162002ad6565b811462002af757600080fd5b50565b60008135905062002b0b8162002ae0565b92915050565b60006020828403121562002b2a5762002b2962002767565b5b600062002b3a8482850162002afa565b91505092915050565b6000819050919050565b600062002b6e62002b6862002b628462002771565b62002b43565b62002771565b9050919050565b600062002b828262002b4d565b9050919050565b600062002b968262002b75565b9050919050565b62002ba88162002b89565b82525050565b600060208201905062002bc5600083018462002b9d565b92915050565b62002bd68162002791565b82525050565b62002be78162002ad6565b82525050565b600060c08201905062002c04600083018962002bcb565b62002c13602083018862002bdc565b62002c22604083018762002bdc565b62002c31606083018662002bdc565b818103608083015262002c45818562002a71565b905062002c5660a083018462002bdc565b979650505050505050565b6000806040838503121562002c7b5762002c7a62002767565b5b600062002c8b85828601620027bf565b925050602062002c9e8582860162002afa565b9150509250929050565b600060208201905062002cbf600083018462002bcb565b92915050565b600060208201905062002cdc600083018462002bdc565b92915050565b62002ced8162002808565b811462002cf957600080fd5b50565b60008135905062002d0d8162002ce2565b92915050565b6000806040838503121562002d2d5762002d2c62002767565b5b600062002d3d85828601620027bf565b925050602062002d508582860162002cfc565b9150509250929050565b600081519050919050565b600082825260208201905092915050565b6000819050602082019050919050565b600082825260208201905092915050565b600062002da48262002a29565b62002db0818562002d86565b935062002dc281856020860162002a45565b62002dcd816200284c565b840191505092915050565b600062002de6838362002d97565b905092915050565b6000602082019050919050565b600062002e088262002d5a565b62002e14818562002d65565b93508360208202850162002e288562002d76565b8060005b8581101562002e6a578484038952815162002e48858262002dd8565b945062002e558362002dee565b925060208a0199505060018101905062002e2c565b50829750879550505050505092915050565b600081519050919050565b600082825260208201905092915050565b6000819050602082019050919050565b62002eb38162002791565b82525050565b600062002ec7838362002ea8565b60208301905092915050565b6000602082019050919050565b600062002eed8262002e7c565b62002ef9818562002e87565b935062002f068362002e98565b8060005b8381101562002f3d57815162002f21888262002eb9565b975062002f2e8362002ed3565b92505060018101905062002f0a565b5085935050505092915050565b6000608082019050818103600083015262002f66818762002dfb565b9050818103602083015262002f7c818662002dfb565b9050818103604083015262002f92818562002dfb565b9050818103606083015262002fa8818462002ee0565b905095945050505050565b7f4e487b7100000000000000000000000000000000000000000000000000000000600052603260045260246000fd5b60008151905062002ff38162002ce2565b92915050565b60006020828403121562003012576200301162002767565b5b6000620030228482850162002fe2565b91505092915050565b7f4e487b7100000000000000000000000000000000000000000000000000000000600052602260045260246000fd5b600060028204905060018216806200307357607f821691505b6020821081036200308957620030886200302b565b5b50919050565b60008190508160005260206000209050919050565b60008154620030b3816200305a565b620030bf818662002a34565b94506001821660008114620030dd5760018114620030f4576200312b565b60ff1983168652811515602002860193506200312b565b620030ff856200308f565b60005b83811015620031235781548189015260018201915060208101905062003102565b808801955050505b50505092915050565b60006080820190506200314b600083018762002bcb565b81810360208301526200315f818662002a71565b9050818103604083015262003175818562002a71565b905081810360608301526200318b8184620030a4565b905095945050505050565b7f4e487b7100000000000000000000000000000000000000000000000000000000600052601160045260246000fd5b6000620031d28262002ad6565b9150620031df8362002ad6565b9250828203905081811115620031fa57620031f962003196565b5b92915050565b6000620032176200321184620028e1565b620028c2565b90508281526020810184848401111562003236576200323562002847565b5b6200324384828562002a45565b509392505050565b600082601f83011262003263576200326262002842565b5b81516200327584826020860162003200565b91505092915050565b60006020828403121562003297576200329662002767565b5b600082015167ffffffffffffffff811115620032b857620032b76200276c565b5b620032c6848285016200324b565b91505092915050565b600081519050620032e081620027a5565b92915050565b600060208284031215620032ff57620032fe62002767565b5b60006200330f84828501620032cf565b91505092915050565b600081519050620033298162002ae0565b92915050565b60006020828403121562003348576200334762002767565b5b6000620033588482850162003318565b91505092915050565b600060408201905062003378600083018562002bcb565b62003387602083018462002bdc565b9392505050565b6000604082019050620033a5600083018562002bcb565b620033b4602083018462002814565b9392505050565b6000620033c88262002ad6565b91507fffffffffffffffffffffffffffffffffffffffffffffffffffffffffffffffff8203620033fd57620033fc62003196565b5b600182019050919050565b60006040820190506200341f600083018562002bdc565b6200342e602083018462002bdc565b9392505050565b600067ffffffffffffffff82169050919050565b620034548162003435565b82525050565b600081519050919050565b600082825260208201905092915050565b600062003483826200345a565b6200348f818562003465565b9350620034a181856020860162002a45565b620034ac816200284c565b840191505092915050565b6000620034d8620034d2620034cc8462003435565b62002b43565b62003435565b9050919050565b620034ea81620034b7565b82525050565b600060c08201905062003507600083018962003449565b62003516602083018862002bdc565b62003525604083018762003449565b62003534606083018662003449565b818103608083015262003548818562003476565b90506200355960a0830184620034df565b979650505050505050565b600081905092915050565b60006200357c826200345a565b62003588818562003564565b93506200359a81856020860162002a45565b80840191505092915050565b6000620035b482846200356f565b915081905092915050565b7f496e76616c69642043424f520000000000000000000000000000000000000000600082015250565b6000620035f7600c8362002a34565b91506200360482620035bf565b602082019050919050565b600060208201905081810360008301526200362a81620035e8565b9050919050565b6000819050919050565b620036468162003631565b81146200365257600080fd5b50565b60008151905062003666816200363b565b92915050565b620036778162003435565b81146200368357600080fd5b50565b60008151905062003697816200366c565b92915050565b600067ffffffffffffffff821115620036bb57620036ba6200285d565b5b620036c6826200284c565b9050602081019050919050565b6000620036ea620036e4846200369d565b620028c2565b90508281526020810184848401111562003709576200370862002847565b5b6200371684828562002a45565b509392505050565b600082601f83011262003736576200373562002842565b5b815162003748848260208601620036d3565b91505092915050565b6000806000606084860312156200376d576200376c62002767565b5b60006200377d8682870162003655565b9350506020620037908682870162003686565b925050604084015167ffffffffffffffff811115620037b457620037b36200276c565b5b620037c2868287016200371e565b9150509250925092565b6000602082019050620037e3600083018462003449565b92915050565b620037f48162003631565b82525050565b6000602082019050620038116000830184620037e9565b92915050565b7f696e76616c6964206d616a20286578706563746564204d616a41727261792900600082015250565b60006200384f601f8362002a34565b91506200385c8262003817565b602082019050919050565b60006020820190508181036000830152620038828162003840565b9050919050565b7f696e76616c6964206d616a20286578706563746564204d616a546167206f722060008201527f4d616a42797465537472696e6729000000000000000000000000000000000000602082015250565b6000620038e7602e8362002a34565b9150620038f48262003889565b604082019050919050565b600060208201905081810360008301526200391a81620038d8565b9050919050565b7f4e487b7100000000000000000000000000000000000000000000000000000000600052600160045260246000fd5b60006200395d8262002ad6565b91506200396a8362002ad6565b925082820190508082111562003985576200398462003196565b5b92915050565b7f696e76616c6964206d616a20286578706563746564204d616a556e7369676e6560008201527f64496e7429000000000000000000000000000000000000000000000000000000602082015250565b6000620039e960258362002a34565b9150620039f6826200398b565b604082019050919050565b6000602082019050818103600083015262003a1c81620039da565b9050919050565b7f4e487b7100000000000000000000000000000000000000000000000000000000600052601260045260246000fd5b600062003a5f8262002ad6565b915062003a6c8362002ad6565b92508262003a7f5762003a7e62003a23565b5b828206905092915050565b7f63616e6e6f742068616e646c652068656164657273207769746820657874726160008201527f203e203237000000000000000000000000000000000000000000000000000000602082015250565b600062003ae860258362002a34565b915062003af58262003a8a565b604082019050919050565b6000602082019050818103600083015262003b1b8162003ad9565b9050919050565b7f696e76616c69642063626f720000000000000000000000000000000000000000600082015250565b600062003b5a600c8362002a34565b915062003b678262003b22565b602082019050919050565b6000602082019050818103600083015262003b8d8162003b4b565b9050919050565b600062003ba18262002ad6565b915062003bae8362002ad6565b925082820262003bbe8162002ad6565b9150828204841483151762003bd85762003bd762003196565b5b5092915050565b60008160011c9050919050565b6000808291508390505b600185111562003c3e5780860481111562003c165762003c1562003196565b5b600185161562003c265780820291505b808102905062003c368562003bdf565b945062003bf6565b94509492505050565b60008262003c59576001905062003d2c565b8162003c69576000905062003d2c565b816001811462003c82576002811462003c8d5762003cc3565b600191505062003d2c565b60ff84111562003ca25762003ca162003196565b5b8360020a91508482111562003cbc5762003cbb62003196565b5b5062003d2c565b5060208310610133831016604e8410600b841016171562003cfd5782820a90508381111562003cf75762003cf662003196565b5b62003d2c565b62003d0c848484600162003bec565b9250905081840481111562003d265762003d2562003196565b5b81810290505b9392505050565b600062003d408262002ad6565b915062003d4d8362002ad6565b925062003d7c7fffffffffffffffffffffffffffffffffffffffffffffffffffffffffffffffff848462003c47565b905092915050565b7f736c6963696e67206f7574206f662072616e6765000000000000000000000000600082015250565b600062003dbc60148362002a34565b915062003dc98262003d84565b602082019050919050565b6000602082019050818103600083015262003def8162003dad565b905091905056fe60806040523480156200001157600080fd5b506040516200180a3803806200180a8339818101604052810190620000379190620002e5565b836000806101000a81548173ffffffffffffffffffffffffffffffffffffffff021916908373ffffffffffffffffffffffffffffffffffffffff1602179055508260019081620000889190620005ff565b5081600290816200009a9190620005ff565b5060026003819055506000600460006101000a81548160ff02191690836002811115620000cc57620000cb620006e6565b5b02179055508060099081620000e29190620005ff565b505050505062000715565b6000604051905090565b600080fd5b600080fd5b600073ffffffffffffffffffffffffffffffffffffffff82169050919050565b60006200012e8262000101565b9050919050565b620001408162000121565b81146200014c57600080fd5b50565b600081519050620001608162000135565b92915050565b600080fd5b600080fd5b6000601f19601f8301169050919050565b7f4e487b7100000000000000000000000000000000000000000000000000000000600052604160045260246000fd5b620001bb8262000170565b810181811067ffffffffffffffff82111715620001dd57620001dc62000181565b5b80604052505050565b6000620001f2620000ed565b9050620002008282620001b0565b919050565b600067ffffffffffffffff82111562000223576200022262000181565b5b6200022e8262000170565b9050602081019050919050565b60005b838110156200025b5780820151818401526020810190506200023e565b60008484015250505050565b60006200027e620002788462000205565b620001e6565b9050828152602081018484840111156200029d576200029c6200016b565b5b620002aa8482856200023b565b509392505050565b600082601f830112620002ca57620002c962000166565b5b8151620002dc84826020860162000267565b91505092915050565b60008060008060808587031215620003025762000301620000f7565b5b600062000312878288016200014f565b945050602085015167ffffffffffffffff811115620003365762000335620000fc565b5b6200034487828801620002b2565b935050604085015167ffffffffffffffff811115620003685762000367620000fc565b5b6200037687828801620002b2565b925050606085015167ffffffffffffffff8111156200039a5762000399620000fc565b5b620003a887828801620002b2565b91505092959194509250565b600081519050919050565b7f4e487b7100000000000000000000000000000000000000000000000000000000600052602260045260246000fd5b600060028204905060018216806200040757607f821691505b6020821081036200041d576200041c620003bf565b5b50919050565b60008190508160005260206000209050919050565b60006020601f8301049050919050565b600082821b905092915050565b600060088302620004877fffffffffffffffffffffffffffffffffffffffffffffffffffffffffffffffff8262000448565b62000493868362000448565b95508019841693508086168417925050509392505050565b6000819050919050565b6000819050919050565b6000620004e0620004da620004d484620004ab565b620004b5565b620004ab565b9050919050565b6000819050919050565b620004fc83620004bf565b620005146200050b82620004e7565b84845462000455565b825550505050565b600090565b6200052b6200051c565b62000538818484620004f1565b505050565b5b8181101562000560576200055460008262000521565b6001810190506200053e565b5050565b601f821115620005af57620005798162000423565b620005848462000438565b8101602085101562000594578190505b620005ac620005a38562000438565b8301826200053d565b50505b505050565b600082821c905092915050565b6000620005d460001984600802620005b4565b1980831691505092915050565b6000620005ef8383620005c1565b9150826002028217905092915050565b6200060a82620003b4565b67ffffffffffffffff81111562000626576200062562000181565b5b620006328254620003ee565b6200063f82828562000564565b600060209050601f83116001811462000677576000841562000662578287015190505b6200066e8582620005e1565b865550620006de565b601f198416620006878662000423565b60005b82811015620006b1578489015182556001820191506020850194506020810190506200068a565b86831015620006d15784890151620006cd601f891682620005c1565b8355505b6001600288020188555050505b505050505050565b7f4e487b7100000000000000000000000000000000000000000000000000000000600052602160045260246000fd5b6110e580620007256000396000f3fe608060405234801561001057600080fd5b50600436106101165760003560e01c8063580c5217116100a25780639143462e116100715780639143462e146102d5578063a8e4fb9014610305578063bd041c4d14610323578063cb8d00a11461033f578063d910b05a1461036f57610116565b8063580c52171461024d5780635caf5896146102695780637284e4161461029957806372d64170146102b757610116565b80634a79d50c116100e95780634a79d50c146101b75780634e69d560146101d55780634fe437d5146101f35780635369cce51461021157806357ed4b2f1461022f57610116565b806309eef43e1461011b578063200d2ed21461014b57806344b88cfa146101695780634812c7e614610187575b600080fd5b61013560048036038101906101309190610d45565b61038d565b6040516101429190610d8d565b60405180910390f35b610153610437565b6040516101609190610e1f565b60405180910390f35b61017161044a565b60405161017e9190610e53565b60405180910390f35b6101a1600480360381019061019c9190610e9a565b610457565b6040516101ae9190610ed6565b60405180910390f35b6101bf610496565b6040516101cc9190610f81565b60405180910390f35b6101dd610524565b6040516101ea9190610f81565b60405180910390f35b6101fb610651565b6040516102089190610e53565b60405180910390f35b610219610657565b6040516102269190610e53565b60405180910390f35b610237610664565b6040516102449190610e53565b60405180910390f35b61026760048036038101906102629190610fa3565b61066a565b005b610283600480360381019061027e9190610d45565b610728565b6040516102909190610d8d565b60405180910390f35b6102a1610748565b6040516102ae9190610f81565b60405180910390f35b6102bf6107d6565b6040516102cc9190610f81565b60405180910390f35b6102ef60048036038101906102ea9190610d45565b610958565b6040516102fc9190610d8d565b60405180910390f35b61030d610978565b60405161031a9190610ed6565b60405180910390f35b61033d6004803603810190610338919061100f565b61099c565b005b61035960048036038101906103549190610e9a565b610c90565b6040516103669190610ed6565b60405180910390f35b610377610ccf565b6040516103849190610d8d565b60405180910390f35b6000600660008373ffffffffffffffffffffffffffffffffffffffff1673ffffffffffffffffffffffffffffffffffffffff16815260200190815260200160002060009054906101000a900460ff16806104305750600860008373ffffffffffffffffffffffffffffffffffffffff1673ffffffffffffffffffffffffffffffffffffffff16815260200190815260200160002060009054906101000a900460ff165b9050919050565b600460009054906101000a900460ff1681565b6000600780549050905090565b6005818154811061046757600080fd5b906000526020600020016000915054906101000a900473ffffffffffffffffffffffffffffffffffffffff1681565b600180546104a39061107e565b80601f01602080910402602001604051908101604052809291908181526020018280546104cf9061107e565b801561051c5780601f106104f15761010080835404028352916020019161051c565b820191906000526020600020905b8154815290600101906020018083116104ff57829003601f168201915b505050505081565b60606001600281111561053a57610539610da8565b5b600460009054906101000a900460ff16600281111561055c5761055b610da8565b5b0361059e576040518060400160405280600781526020017f5375636365737300000000000000000000000000000000000000000000000000815250905061064e565b6002808111156105b1576105b0610da8565b5b600460009054906101000a900460ff1660028111156105d3576105d2610da8565b5b03610615576040518060400160405280600681526020017f4661696c65640000000000000000000000000000000000000000000000000000815250905061064e565b6040518060400160405280600681526020017f566f74696e67000000000000000000000000000000000000000000000000000081525090505b90565b60035481565b6000600580549050905090565b600b5481565b6001600281111561067e5761067d610da8565b5b600460009054906101000a900460ff1660028111156106a05761069f610da8565b5b146106aa57600080fd5b60008054906101000a900473ffffffffffffffffffffffffffffffffffffffff1673ffffffffffffffffffffffffffffffffffffffff168273ffffffffffffffffffffffffffffffffffffffff161461070257600080fd5b80600b819055506001600a60006101000a81548160ff0219169083151502179055505050565b60086020528060005260406000206000915054906101000a900460ff1681565b600280546107559061107e565b80601f01602080910402602001604051908101604052809291908181526020018280546107819061107e565b80156107ce5780601f106107a3576101008083540402835291602001916107ce565b820191906000526020600020905b8154815290600101906020018083116107b157829003601f168201915b505050505081565b6060600160028111156107ec576107eb610da8565b5b600460009054906101000a900460ff16600281111561080e5761080d610da8565b5b036108a557600980546108209061107e565b80601f016020809104026020016040519081016040528092919081815260200182805461084c9061107e565b80156108995780601f1061086e57610100808354040283529160200191610899565b820191906000526020600020905b81548152906001019060200180831161087c57829003601f168201915b50505050509050610955565b6002808111156108b8576108b7610da8565b5b600460009054906101000a900460ff1660028111156108da576108d9610da8565b5b0361091c576040518060400160405280601781526020017f54726164696e672050726f706f73616c204661696c65640000000000000000008152509050610955565b6040518060400160405280601281526020017f566f74696e6720496e2050726f6772657373000000000000000000000000000081525090505b90565b60066020528060005260406000206000915054906101000a900460ff1681565b60008054906101000a900473ffffffffffffffffffffffffffffffffffffffff1681565b600060028111156109b0576109af610da8565b5b600460009054906101000a900460ff1660028111156109d2576109d1610da8565b5b146109dc57600080fd5b60011515600660008473ffffffffffffffffffffffffffffffffffffffff1673ffffffffffffffffffffffffffffffffffffffff16815260200190815260200160002060009054906101000a900460ff16151503610a3957600080fd5b60011515600860008473ffffffffffffffffffffffffffffffffffffffff1673ffffffffffffffffffffffffffffffffffffffff16815260200190815260200160002060009054906101000a900460ff16151503610a9657600080fd5b8015610b96576005829080600181540180825580915050600190039060005260206000200160009091909190916101000a81548173ffffffffffffffffffffffffffffffffffffffff021916908373ffffffffffffffffffffffffffffffffffffffff1602179055506001600660008473ffffffffffffffffffffffffffffffffffffffff1673ffffffffffffffffffffffffffffffffffffffff16815260200190815260200160002060006101000a81548160ff02191690831515021790555060035460058054905003610b91576001600460006101000a81548160ff02191690836002811115610b8b57610b8a610da8565b5b02179055505b610c8c565b6007829080600181540180825580915050600190039060005260206000200160009091909190916101000a81548173ffffffffffffffffffffffffffffffffffffffff021916908373ffffffffffffffffffffffffffffffffffffffff1602179055506001600860008473ffffffffffffffffffffffffffffffffffffffff1673ffffffffffffffffffffffffffffffffffffffff16815260200190815260200160002060006101000a81548160ff02191690831515021790555060035460078054905003610c8b576002600460006101000a81548160ff02191690836002811115610c8557610c84610da8565b5b02179055505b5b5050565b60078181548110610ca057600080fd5b906000526020600020016000915054906101000a900473ffffffffffffffffffffffffffffffffffffffff1681565b600a60009054906101000a900460ff1681565b600080fd5b600073ffffffffffffffffffffffffffffffffffffffff82169050919050565b6000610d1282610ce7565b9050919050565b610d2281610d07565b8114610d2d57600080fd5b50565b600081359050610d3f81610d19565b92915050565b600060208284031215610d5b57610d5a610ce2565b5b6000610d6984828501610d30565b91505092915050565b60008115159050919050565b610d8781610d72565b82525050565b6000602082019050610da26000830184610d7e565b92915050565b7f4e487b7100000000000000000000000000000000000000000000000000000000600052602160045260246000fd5b60038110610de857610de7610da8565b5b50565b6000819050610df982610dd7565b919050565b6000610e0982610deb565b9050919050565b610e1981610dfe565b82525050565b6000602082019050610e346000830184610e10565b92915050565b6000819050919050565b610e4d81610e3a565b82525050565b6000602082019050610e686000830184610e44565b92915050565b610e7781610e3a565b8114610e8257600080fd5b50565b600081359050610e9481610e6e565b92915050565b600060208284031215610eb057610eaf610ce2565b5b6000610ebe84828501610e85565b91505092915050565b610ed081610d07565b82525050565b6000602082019050610eeb6000830184610ec7565b92915050565b600081519050919050565b600082825260208201905092915050565b60005b83811015610f2b578082015181840152602081019050610f10565b60008484015250505050565b6000601f19601f8301169050919050565b6000610f5382610ef1565b610f5d8185610efc565b9350610f6d818560208601610f0d565b610f7681610f37565b840191505092915050565b60006020820190508181036000830152610f9b8184610f48565b905092915050565b60008060408385031215610fba57610fb9610ce2565b5b6000610fc885828601610d30565b9250506020610fd985828601610e85565b9150509250929050565b610fec81610d72565b8114610ff757600080fd5b50565b60008135905061100981610fe3565b92915050565b6000806040838503121561102657611025610ce2565b5b600061103485828601610d30565b925050602061104585828601610ffa565b9150509250929050565b7f4e487b7100000000000000000000000000000000000000000000000000000000600052602260045260246000fd5b6000600282049050600182168061109657607f821691505b6020821081036110a9576110a861104f565b5b5091905056fea264697066735822122075ee86de05da6a1aa5c0bc2bf1df4cb7a279a1a16c5311113292c644407563c264736f6c63430008110033a2646970667358221220d17eef967fd6a45c7c11b842198f58c95a43c8b406dec8da7eaa0f68bf30402c64736f6c63430008110033",
  "linkReferences": {},
  "deployedLinkReferences": {}
}