{
  "_format": "hh-sol-artifact-1",
  "contractName": "TradingProposal",
  "sourceName": "contracts/tradingProposal.sol",
  "abi": [
    {
      "inputs": [
        {
          "internalType": "address",
          "name": "_proposer",
          "type": "address"
        },
        {
          "internalType": "string",
          "name": "_title",
          "type": "string"
        },
        {
          "internalType": "string",
          "name": "_description",
          "type": "string"
        },
        {
          "internalType": "string",
          "name": "_cid",
          "type": "string"
        }
      ],
      "stateMutability": "nonpayable",
      "type": "constructor"
    },
    {
      "inputs": [],
      "name": "description",
      "outputs": [
        {
          "internalType": "string",
          "name": "",
          "type": "string"
        }
      ],
      "stateMutability": "view",
      "type": "function"
    },
    {
      "inputs": [],
      "name": "getDataSetCID",
      "outputs": [
        {
          "internalType": "string",
          "name": "_cid",
          "type": "string"
        }
      ],
      "stateMutability": "view",
      "type": "function"
    },
    {
      "inputs": [],
      "name": "getNumberOfNoVotes",
      "outputs": [
        {
          "internalType": "uint256",
          "name": "_noVotes",
          "type": "uint256"
        }
      ],
      "stateMutability": "view",
      "type": "function"
    },
    {
      "inputs": [],
      "name": "getNumberOfYesVotes",
      "outputs": [
        {
          "internalType": "uint256",
          "name": "_yesVotes",
          "type": "uint256"
        }
      ],
      "stateMutability": "view",
      "type": "function"
    },
    {
      "inputs": [],
      "name": "getStatus",
      "outputs": [
        {
          "internalType": "string",
          "name": "_status",
          "type": "string"
        }
      ],
      "stateMutability": "view",
      "type": "function"
    },
    {
      "inputs": [
        {
          "internalType": "address",
          "name": "_voter",
          "type": "address"
        }
      ],
      "name": "hasVoted",
      "outputs": [
        {
          "internalType": "bool",
          "name": "",
          "type": "bool"
        }
      ],
      "stateMutability": "view",
      "type": "function"
    },
    {
      "inputs": [],
      "name": "isListed",
      "outputs": [
        {
          "internalType": "bool",
          "name": "",
          "type": "bool"
        }
      ],
      "stateMutability": "view",
      "type": "function"
    },
    {
      "inputs": [
        {
          "internalType": "address",
          "name": "_lister",
          "type": "address"
        },
        {
          "internalType": "uint256",
          "name": "_price",
          "type": "uint256"
        }
      ],
      "name": "listDataset",
      "outputs": [],
      "stateMutability": "nonpayable",
      "type": "function"
    },
    {
      "inputs": [],
      "name": "listedPrice",
      "outputs": [
        {
          "internalType": "uint256",
          "name": "",
          "type": "uint256"
        }
      ],
      "stateMutability": "view",
      "type": "function"
    },
    {
      "inputs": [
        {
          "internalType": "uint256",
          "name": "",
          "type": "uint256"
        }
      ],
      "name": "noVoters",
      "outputs": [
        {
          "internalType": "address",
          "name": "",
          "type": "address"
        }
      ],
      "stateMutability": "view",
      "type": "function"
    },
    {
      "inputs": [
        {
          "internalType": "address",
          "name": "",
          "type": "address"
        }
      ],
      "name": "noVotersList",
      "outputs": [
        {
          "internalType": "bool",
          "name": "",
          "type": "bool"
        }
      ],
      "stateMutability": "view",
      "type": "function"
    },
    {
      "inputs": [],
      "name": "proposer",
      "outputs": [
        {
          "internalType": "address",
          "name": "",
          "type": "address"
        }
      ],
      "stateMutability": "view",
      "type": "function"
    },
    {
      "inputs": [],
      "name": "status",
      "outputs": [
        {
          "internalType": "enum TradingProposal.TradingProposalState",
          "name": "",
          "type": "uint8"
        }
      ],
      "stateMutability": "view",
      "type": "function"
    },
    {
      "inputs": [],
      "name": "title",
      "outputs": [
        {
          "internalType": "string",
          "name": "",
          "type": "string"
        }
      ],
      "stateMutability": "view",
      "type": "function"
    },
    {
      "inputs": [
        {
          "internalType": "address",
          "name": "_voter",
          "type": "address"
        },
        {
          "internalType": "bool",
          "name": "isVoteYes",
          "type": "bool"
        }
      ],
      "name": "vote",
      "outputs": [],
      "stateMutability": "nonpayable",
      "type": "function"
    },
    {
      "inputs": [],
      "name": "voteThreshold",
      "outputs": [
        {
          "internalType": "uint256",
          "name": "",
          "type": "uint256"
        }
      ],
      "stateMutability": "view",
      "type": "function"
    },
    {
      "inputs": [
        {
          "internalType": "uint256",
          "name": "",
          "type": "uint256"
        }
      ],
      "name": "yesVoters",
      "outputs": [
        {
          "internalType": "address",
          "name": "",
          "type": "address"
        }
      ],
      "stateMutability": "view",
      "type": "function"
    },
    {
      "inputs": [
        {
          "internalType": "address",
          "name": "",
          "type": "address"
        }
      ],
      "name": "yesVotersList",
      "outputs": [
        {
          "internalType": "bool",
          "name": "",
          "type": "bool"
        }
      ],
      "stateMutability": "view",
      "type": "function"
    }
  ],
  "bytecode": "0x60806040523480156200001157600080fd5b506040516200180a3803806200180a8339818101604052810190620000379190620002e5565b836000806101000a81548173ffffffffffffffffffffffffffffffffffffffff021916908373ffffffffffffffffffffffffffffffffffffffff1602179055508260019081620000889190620005ff565b5081600290816200009a9190620005ff565b5060026003819055506000600460006101000a81548160ff02191690836002811115620000cc57620000cb620006e6565b5b02179055508060099081620000e29190620005ff565b505050505062000715565b6000604051905090565b600080fd5b600080fd5b600073ffffffffffffffffffffffffffffffffffffffff82169050919050565b60006200012e8262000101565b9050919050565b620001408162000121565b81146200014c57600080fd5b50565b600081519050620001608162000135565b92915050565b600080fd5b600080fd5b6000601f19601f8301169050919050565b7f4e487b7100000000000000000000000000000000000000000000000000000000600052604160045260246000fd5b620001bb8262000170565b810181811067ffffffffffffffff82111715620001dd57620001dc62000181565b5b80604052505050565b6000620001f2620000ed565b9050620002008282620001b0565b919050565b600067ffffffffffffffff82111562000223576200022262000181565b5b6200022e8262000170565b9050602081019050919050565b60005b838110156200025b5780820151818401526020810190506200023e565b60008484015250505050565b60006200027e620002788462000205565b620001e6565b9050828152602081018484840111156200029d576200029c6200016b565b5b620002aa8482856200023b565b509392505050565b600082601f830112620002ca57620002c962000166565b5b8151620002dc84826020860162000267565b91505092915050565b60008060008060808587031215620003025762000301620000f7565b5b600062000312878288016200014f565b945050602085015167ffffffffffffffff811115620003365762000335620000fc565b5b6200034487828801620002b2565b935050604085015167ffffffffffffffff811115620003685762000367620000fc565b5b6200037687828801620002b2565b925050606085015167ffffffffffffffff8111156200039a5762000399620000fc565b5b620003a887828801620002b2565b91505092959194509250565b600081519050919050565b7f4e487b7100000000000000000000000000000000000000000000000000000000600052602260045260246000fd5b600060028204905060018216806200040757607f821691505b6020821081036200041d576200041c620003bf565b5b50919050565b60008190508160005260206000209050919050565b60006020601f8301049050919050565b600082821b905092915050565b600060088302620004877fffffffffffffffffffffffffffffffffffffffffffffffffffffffffffffffff8262000448565b62000493868362000448565b95508019841693508086168417925050509392505050565b6000819050919050565b6000819050919050565b6000620004e0620004da620004d484620004ab565b620004b5565b620004ab565b9050919050565b6000819050919050565b620004fc83620004bf565b620005146200050b82620004e7565b84845462000455565b825550505050565b600090565b6200052b6200051c565b62000538818484620004f1565b505050565b5b8181101562000560576200055460008262000521565b6001810190506200053e565b5050565b601f821115620005af57620005798162000423565b620005848462000438565b8101602085101562000594578190505b620005ac620005a38562000438565b8301826200053d565b50505b505050565b600082821c905092915050565b6000620005d460001984600802620005b4565b1980831691505092915050565b6000620005ef8383620005c1565b9150826002028217905092915050565b6200060a82620003b4565b67ffffffffffffffff81111562000626576200062562000181565b5b620006328254620003ee565b6200063f82828562000564565b600060209050601f83116001811462000677576000841562000662578287015190505b6200066e8582620005e1565b865550620006de565b601f198416620006878662000423565b60005b82811015620006b1578489015182556001820191506020850194506020810190506200068a565b86831015620006d15784890151620006cd601f891682620005c1565b8355505b6001600288020188555050505b505050505050565b7f4e487b7100000000000000000000000000000000000000000000000000000000600052602160045260246000fd5b6110e580620007256000396000f3fe608060405234801561001057600080fd5b50600436106101165760003560e01c8063580c5217116100a25780639143462e116100715780639143462e146102d5578063a8e4fb9014610305578063bd041c4d14610323578063cb8d00a11461033f578063d910b05a1461036f57610116565b8063580c52171461024d5780635caf5896146102695780637284e4161461029957806372d64170146102b757610116565b80634a79d50c116100e95780634a79d50c146101b75780634e69d560146101d55780634fe437d5146101f35780635369cce51461021157806357ed4b2f1461022f57610116565b806309eef43e1461011b578063200d2ed21461014b57806344b88cfa146101695780634812c7e614610187575b600080fd5b61013560048036038101906101309190610d45565b61038d565b6040516101429190610d8d565b60405180910390f35b610153610437565b6040516101609190610e1f565b60405180910390f35b61017161044a565b60405161017e9190610e53565b60405180910390f35b6101a1600480360381019061019c9190610e9a565b610457565b6040516101ae9190610ed6565b60405180910390f35b6101bf610496565b6040516101cc9190610f81565b60405180910390f35b6101dd610524565b6040516101ea9190610f81565b60405180910390f35b6101fb610651565b6040516102089190610e53565b60405180910390f35b610219610657565b6040516102269190610e53565b60405180910390f35b610237610664565b6040516102449190610e53565b60405180910390f35b61026760048036038101906102629190610fa3565b61066a565b005b610283600480360381019061027e9190610d45565b610728565b6040516102909190610d8d565b60405180910390f35b6102a1610748565b6040516102ae9190610f81565b60405180910390f35b6102bf6107d6565b6040516102cc9190610f81565b60405180910390f35b6102ef60048036038101906102ea9190610d45565b610958565b6040516102fc9190610d8d565b60405180910390f35b61030d610978565b60405161031a9190610ed6565b60405180910390f35b61033d6004803603810190610338919061100f565b61099c565b005b61035960048036038101906103549190610e9a565b610c90565b6040516103669190610ed6565b60405180910390f35b610377610ccf565b6040516103849190610d8d565b60405180910390f35b6000600660008373ffffffffffffffffffffffffffffffffffffffff1673ffffffffffffffffffffffffffffffffffffffff16815260200190815260200160002060009054906101000a900460ff16806104305750600860008373ffffffffffffffffffffffffffffffffffffffff1673ffffffffffffffffffffffffffffffffffffffff16815260200190815260200160002060009054906101000a900460ff165b9050919050565b600460009054906101000a900460ff1681565b6000600780549050905090565b6005818154811061046757600080fd5b906000526020600020016000915054906101000a900473ffffffffffffffffffffffffffffffffffffffff1681565b600180546104a39061107e565b80601f01602080910402602001604051908101604052809291908181526020018280546104cf9061107e565b801561051c5780601f106104f15761010080835404028352916020019161051c565b820191906000526020600020905b8154815290600101906020018083116104ff57829003601f168201915b505050505081565b60606001600281111561053a57610539610da8565b5b600460009054906101000a900460ff16600281111561055c5761055b610da8565b5b0361059e576040518060400160405280600781526020017f5375636365737300000000000000000000000000000000000000000000000000815250905061064e565b6002808111156105b1576105b0610da8565b5b600460009054906101000a900460ff1660028111156105d3576105d2610da8565b5b03610615576040518060400160405280600681526020017f4661696c65640000000000000000000000000000000000000000000000000000815250905061064e565b6040518060400160405280600681526020017f566f74696e67000000000000000000000000000000000000000000000000000081525090505b90565b60035481565b6000600580549050905090565b600b5481565b6001600281111561067e5761067d610da8565b5b600460009054906101000a900460ff1660028111156106a05761069f610da8565b5b146106aa57600080fd5b60008054906101000a900473ffffffffffffffffffffffffffffffffffffffff1673ffffffffffffffffffffffffffffffffffffffff168273ffffffffffffffffffffffffffffffffffffffff161461070257600080fd5b80600b819055506001600a60006101000a81548160ff0219169083151502179055505050565b60086020528060005260406000206000915054906101000a900460ff1681565b600280546107559061107e565b80601f01602080910402602001604051908101604052809291908181526020018280546107819061107e565b80156107ce5780601f106107a3576101008083540402835291602001916107ce565b820191906000526020600020905b8154815290600101906020018083116107b157829003601f168201915b505050505081565b6060600160028111156107ec576107eb610da8565b5b600460009054906101000a900460ff16600281111561080e5761080d610da8565b5b036108a557600980546108209061107e565b80601f016020809104026020016040519081016040528092919081815260200182805461084c9061107e565b80156108995780601f1061086e57610100808354040283529160200191610899565b820191906000526020600020905b81548152906001019060200180831161087c57829003601f168201915b50505050509050610955565b6002808111156108b8576108b7610da8565b5b600460009054906101000a900460ff1660028111156108da576108d9610da8565b5b0361091c576040518060400160405280601781526020017f54726164696e672050726f706f73616c204661696c65640000000000000000008152509050610955565b6040518060400160405280601281526020017f566f74696e6720496e2050726f6772657373000000000000000000000000000081525090505b90565b60066020528060005260406000206000915054906101000a900460ff1681565b60008054906101000a900473ffffffffffffffffffffffffffffffffffffffff1681565b600060028111156109b0576109af610da8565b5b600460009054906101000a900460ff1660028111156109d2576109d1610da8565b5b146109dc57600080fd5b60011515600660008473ffffffffffffffffffffffffffffffffffffffff1673ffffffffffffffffffffffffffffffffffffffff16815260200190815260200160002060009054906101000a900460ff16151503610a3957600080fd5b60011515600860008473ffffffffffffffffffffffffffffffffffffffff1673ffffffffffffffffffffffffffffffffffffffff16815260200190815260200160002060009054906101000a900460ff16151503610a9657600080fd5b8015610b96576005829080600181540180825580915050600190039060005260206000200160009091909190916101000a81548173ffffffffffffffffffffffffffffffffffffffff021916908373ffffffffffffffffffffffffffffffffffffffff1602179055506001600660008473ffffffffffffffffffffffffffffffffffffffff1673ffffffffffffffffffffffffffffffffffffffff16815260200190815260200160002060006101000a81548160ff02191690831515021790555060035460058054905003610b91576001600460006101000a81548160ff02191690836002811115610b8b57610b8a610da8565b5b02179055505b610c8c565b6007829080600181540180825580915050600190039060005260206000200160009091909190916101000a81548173ffffffffffffffffffffffffffffffffffffffff021916908373ffffffffffffffffffffffffffffffffffffffff1602179055506001600860008473ffffffffffffffffffffffffffffffffffffffff1673ffffffffffffffffffffffffffffffffffffffff16815260200190815260200160002060006101000a81548160ff02191690831515021790555060035460078054905003610c8b576002600460006101000a81548160ff02191690836002811115610c8557610c84610da8565b5b02179055505b5b5050565b60078181548110610ca057600080fd5b906000526020600020016000915054906101000a900473ffffffffffffffffffffffffffffffffffffffff1681565b600a60009054906101000a900460ff1681565b600080fd5b600073ffffffffffffffffffffffffffffffffffffffff82169050919050565b6000610d1282610ce7565b9050919050565b610d2281610d07565b8114610d2d57600080fd5b50565b600081359050610d3f81610d19565b92915050565b600060208284031215610d5b57610d5a610ce2565b5b6000610d6984828501610d30565b91505092915050565b60008115159050919050565b610d8781610d72565b82525050565b6000602082019050610da26000830184610d7e565b92915050565b7f4e487b7100000000000000000000000000000000000000000000000000000000600052602160045260246000fd5b60038110610de857610de7610da8565b5b50565b6000819050610df982610dd7565b919050565b6000610e0982610deb565b9050919050565b610e1981610dfe565b82525050565b6000602082019050610e346000830184610e10565b92915050565b6000819050919050565b610e4d81610e3a565b82525050565b6000602082019050610e686000830184610e44565b92915050565b610e7781610e3a565b8114610e8257600080fd5b50565b600081359050610e9481610e6e565b92915050565b600060208284031215610eb057610eaf610ce2565b5b6000610ebe84828501610e85565b91505092915050565b610ed081610d07565b82525050565b6000602082019050610eeb6000830184610ec7565b92915050565b600081519050919050565b600082825260208201905092915050565b60005b83811015610f2b578082015181840152602081019050610f10565b60008484015250505050565b6000601f19601f8301169050919050565b6000610f5382610ef1565b610f5d8185610efc565b9350610f6d818560208601610f0d565b610f7681610f37565b840191505092915050565b60006020820190508181036000830152610f9b8184610f48565b905092915050565b60008060408385031215610fba57610fb9610ce2565b5b6000610fc885828601610d30565b9250506020610fd985828601610e85565b9150509250929050565b610fec81610d72565b8114610ff757600080fd5b50565b60008135905061100981610fe3565b92915050565b6000806040838503121561102657611025610ce2565b5b600061103485828601610d30565b925050602061104585828601610ffa565b9150509250929050565b7f4e487b7100000000000000000000000000000000000000000000000000000000600052602260045260246000fd5b6000600282049050600182168061109657607f821691505b6020821081036110a9576110a861104f565b5b5091905056fea264697066735822122075ee86de05da6a1aa5c0bc2bf1df4cb7a279a1a16c5311113292c644407563c264736f6c63430008110033",
  "linkReferences": {},
  "deployedLinkReferences": {}
}